{
	"contracts/MyStore.sol": {
		"MyStore": {
			"abi": [
				{
					"inputs": [
						{
							"internalType": "string",
							"name": "_productName",
							"type": "string"
						},
						{
							"internalType": "uint256",
							"name": "_quantity",
							"type": "uint256"
						}
					],
					"name": "addProduct",
					"outputs": [],
					"stateMutability": "nonpayable",
					"type": "function"
				},
				{
					"inputs": [
						{
							"internalType": "uint256",
							"name": "_prodId",
							"type": "uint256"
						},
						{
							"internalType": "uint256",
							"name": "_productQuantity",
							"type": "uint256"
						}
					],
					"name": "buy",
					"outputs": [],
					"stateMutability": "nonpayable",
					"type": "function"
				},
				{
					"inputs": [],
					"name": "owner",
					"outputs": [
						{
							"internalType": "address",
							"name": "",
							"type": "address"
						}
					],
					"stateMutability": "view",
					"type": "function"
				},
				{
					"inputs": [
						{
							"internalType": "uint256",
							"name": "_prodId",
							"type": "uint256"
						},
						{
							"internalType": "uint256",
							"name": "_productQuantity",
							"type": "uint256"
						}
					],
					"name": "returnProduct",
					"outputs": [],
					"stateMutability": "nonpayable",
					"type": "function"
				},
				{
					"inputs": [
						{
							"internalType": "uint256",
							"name": "_prodId",
							"type": "uint256"
						}
					],
					"name": "showClientsHistory",
					"outputs": [
						{
							"internalType": "address[]",
							"name": "",
							"type": "address[]"
						}
					],
					"stateMutability": "view",
					"type": "function"
				},
				{
					"inputs": [],
					"name": "showProducts",
					"outputs": [
						{
							"internalType": "string[]",
							"name": "",
							"type": "string[]"
						}
					],
					"stateMutability": "view",
					"type": "function"
				}
			],
			"devdoc": {
				"kind": "dev",
				"methods": {},
				"version": 1
			},
			"evm": {
				"assembly": "    /* \"contracts/MyStore.sol\":166:4001  contract MyStore is Ownable {... */\n  mstore(0x40, 0x80)\n    /* \"contracts/MyStore.sol\":583:584  0 */\n  0x00\n    /* \"contracts/MyStore.sol\":555:584  uint private productCount = 0 */\n  0x01\n  sstore\n    /* \"contracts/MyStore.sol\":166:4001  contract MyStore is Ownable {... */\n  callvalue\n  dup1\n  iszero\n  tag_1\n  jumpi\n  0x00\n  dup1\n  revert\ntag_1:\n  pop\n    /* \"contracts/Ownable.sol\":277:287  msg.sender */\n  caller\n    /* \"contracts/Ownable.sol\":269:274  owner */\n  0x00\n  dup1\n    /* \"contracts/Ownable.sol\":269:287  owner = msg.sender */\n  0x0100\n  exp\n  dup2\n  sload\n  dup2\n  0xffffffffffffffffffffffffffffffffffffffff\n  mul\n  not\n  and\n  swap1\n  dup4\n  0xffffffffffffffffffffffffffffffffffffffff\n  and\n  mul\n  or\n  swap1\n  sstore\n  pop\n    /* \"contracts/MyStore.sol\":166:4001  contract MyStore is Ownable {... */\n  dataSize(sub_0)\n  dup1\n  dataOffset(sub_0)\n  0x00\n  codecopy\n  0x00\n  return\nstop\n\nsub_0: assembly {\n        /* \"contracts/MyStore.sol\":166:4001  contract MyStore is Ownable {... */\n      mstore(0x40, 0x80)\n      callvalue\n      dup1\n      iszero\n      tag_1\n      jumpi\n      0x00\n      dup1\n      revert\n    tag_1:\n      pop\n      jumpi(tag_2, lt(calldatasize, 0x04))\n      shr(0xe0, calldataload(0x00))\n      dup1\n      0x8da5cb5b\n      eq\n      tag_3\n      jumpi\n      dup1\n      0xa34e5649\n      eq\n      tag_4\n      jumpi\n      dup1\n      0xa69f9d1b\n      eq\n      tag_5\n      jumpi\n      dup1\n      0xb15247d9\n      eq\n      tag_6\n      jumpi\n      dup1\n      0xca47b8c2\n      eq\n      tag_7\n      jumpi\n      dup1\n      0xd6febde8\n      eq\n      tag_8\n      jumpi\n    tag_2:\n      0x00\n      dup1\n      revert\n        /* \"contracts/Ownable.sol\":91:111  address public owner */\n    tag_3:\n      tag_9\n      tag_10\n      jump\t// in\n    tag_9:\n      mload(0x40)\n      tag_11\n      swap2\n      swap1\n      tag_12\n      jump\t// in\n    tag_11:\n      mload(0x40)\n      dup1\n      swap2\n      sub\n      swap1\n      return\n        /* \"contracts/MyStore.sol\":1309:1853  function showProducts() public view returns(string[] memory)... */\n    tag_4:\n      tag_13\n      tag_14\n      jump\t// in\n    tag_13:\n      mload(0x40)\n      tag_15\n      swap2\n      swap1\n      tag_16\n      jump\t// in\n    tag_15:\n      mload(0x40)\n      dup1\n      swap2\n      sub\n      swap1\n      return\n        /* \"contracts/MyStore.sol\":3859:3994  function showClientsHistory(uint _prodId) public view returns(address[] memory)... */\n    tag_5:\n      tag_17\n      0x04\n      dup1\n      calldatasize\n      sub\n      dup2\n      add\n      swap1\n      tag_18\n      swap2\n      swap1\n      tag_19\n      jump\t// in\n    tag_18:\n      tag_20\n      jump\t// in\n    tag_17:\n      mload(0x40)\n      tag_21\n      swap2\n      swap1\n      tag_22\n      jump\t// in\n    tag_21:\n      mload(0x40)\n      dup1\n      swap2\n      sub\n      swap1\n      return\n        /* \"contracts/MyStore.sol\":801:1301  function addProduct(string calldata _productName, uint _quantity) public onlyOwner {... */\n    tag_6:\n      tag_23\n      0x04\n      dup1\n      calldatasize\n      sub\n      dup2\n      add\n      swap1\n      tag_24\n      swap2\n      swap1\n      tag_25\n      jump\t// in\n    tag_24:\n      tag_26\n      jump\t// in\n    tag_23:\n      stop\n        /* \"contracts/MyStore.sol\":3268:3851  function returnProduct(uint _prodId, uint _productQuantity) public... */\n    tag_7:\n      tag_27\n      0x04\n      dup1\n      calldatasize\n      sub\n      dup2\n      add\n      swap1\n      tag_28\n      swap2\n      swap1\n      tag_29\n      jump\t// in\n    tag_28:\n      tag_30\n      jump\t// in\n    tag_27:\n      stop\n        /* \"contracts/MyStore.sol\":2335:3260  function buy(uint _prodId, uint _productQuantity) public... */\n    tag_8:\n      tag_31\n      0x04\n      dup1\n      calldatasize\n      sub\n      dup2\n      add\n      swap1\n      tag_32\n      swap2\n      swap1\n      tag_29\n      jump\t// in\n    tag_32:\n      tag_33\n      jump\t// in\n    tag_31:\n      stop\n        /* \"contracts/Ownable.sol\":91:111  address public owner */\n    tag_10:\n      0x00\n      dup1\n      sload\n      swap1\n      0x0100\n      exp\n      swap1\n      div\n      0xffffffffffffffffffffffffffffffffffffffff\n      and\n      dup2\n      jump\t// out\n        /* \"contracts/MyStore.sol\":1309:1853  function showProducts() public view returns(string[] memory)... */\n    tag_14:\n        /* \"contracts/MyStore.sol\":1353:1368  string[] memory */\n      0x60\n        /* \"contracts/MyStore.sol\":1386:1405  string[] memory ret */\n      0x00\n        /* \"contracts/MyStore.sol\":1421:1433  productCount */\n      sload(0x01)\n        /* \"contracts/MyStore.sol\":1408:1434  new string[](productCount) */\n      0xffffffffffffffff\n      dup2\n      gt\n      iszero\n      tag_35\n      jumpi\n      tag_36\n      tag_37\n      jump\t// in\n    tag_36:\n    tag_35:\n      mload(0x40)\n      swap1\n      dup1\n      dup3\n      mstore\n      dup1\n      0x20\n      mul\n      0x20\n      add\n      dup3\n      add\n      0x40\n      mstore\n      dup1\n      iszero\n      tag_38\n      jumpi\n      dup2\n      0x20\n      add\n    tag_39:\n      0x60\n      dup2\n      mstore\n      0x20\n      add\n      swap1\n      0x01\n      swap1\n      sub\n      swap1\n      dup2\n      tag_39\n      jumpi\n      swap1\n      pop\n    tag_38:\n      pop\n        /* \"contracts/MyStore.sol\":1386:1434  string[] memory ret = new string[](productCount) */\n      swap1\n      pop\n        /* \"contracts/MyStore.sol\":1445:1460  uint arrayIndex */\n      0x00\n        /* \"contracts/MyStore.sol\":1480:1486  uint i */\n      dup1\n        /* \"contracts/MyStore.sol\":1475:1825  for (uint i = 0; i < productCount; i++) ... */\n    tag_40:\n        /* \"contracts/MyStore.sol\":1496:1508  productCount */\n      sload(0x01)\n        /* \"contracts/MyStore.sol\":1492:1493  i */\n      dup2\n        /* \"contracts/MyStore.sol\":1492:1508  i < productCount */\n      lt\n        /* \"contracts/MyStore.sol\":1475:1825  for (uint i = 0; i < productCount; i++) ... */\n      iszero\n      tag_41\n      jumpi\n        /* \"contracts/MyStore.sol\":1577:1578  0 */\n      0x00\n        /* \"contracts/MyStore.sol\":1544:1558  productsLedger */\n      0x03\n        /* \"contracts/MyStore.sol\":1544:1565  productsLedger[i + 1] */\n      0x00\n        /* \"contracts/MyStore.sol\":1563:1564  1 */\n      0x01\n        /* \"contracts/MyStore.sol\":1559:1560  i */\n      dup5\n        /* \"contracts/MyStore.sol\":1559:1564  i + 1 */\n      tag_43\n      swap2\n      swap1\n      tag_44\n      jump\t// in\n    tag_43:\n        /* \"contracts/MyStore.sol\":1544:1565  productsLedger[i + 1] */\n      dup2\n      mstore\n      0x20\n      add\n      swap1\n      dup2\n      mstore\n      0x20\n      add\n      0x00\n      keccak256\n        /* \"contracts/MyStore.sol\":1544:1574  productsLedger[i + 1].quantity */\n      0x01\n      add\n      sload\n        /* \"contracts/MyStore.sol\":1544:1578  productsLedger[i + 1].quantity > 0 */\n      gt\n        /* \"contracts/MyStore.sol\":1540:1814  if (productsLedger[i + 1].quantity > 0)... */\n      iszero\n      tag_45\n      jumpi\n        /* \"contracts/MyStore.sol\":1654:1677  Strings.toString(i + 1) */\n      tag_46\n        /* \"contracts/MyStore.sol\":1675:1676  1 */\n      0x01\n        /* \"contracts/MyStore.sol\":1671:1672  i */\n      dup3\n        /* \"contracts/MyStore.sol\":1671:1676  i + 1 */\n      tag_47\n      swap2\n      swap1\n      tag_44\n      jump\t// in\n    tag_47:\n        /* \"contracts/MyStore.sol\":1654:1670  Strings.toString */\n      tag_48\n        /* \"contracts/MyStore.sol\":1654:1677  Strings.toString(i + 1) */\n      jump\t// in\n    tag_46:\n        /* \"contracts/MyStore.sol\":1685:1699  productsLedger */\n      0x03\n        /* \"contracts/MyStore.sol\":1685:1704  productsLedger[i+1] */\n      0x00\n        /* \"contracts/MyStore.sol\":1702:1703  1 */\n      0x01\n        /* \"contracts/MyStore.sol\":1700:1701  i */\n      dup5\n        /* \"contracts/MyStore.sol\":1700:1703  i+1 */\n      tag_49\n      swap2\n      swap1\n      tag_44\n      jump\t// in\n    tag_49:\n        /* \"contracts/MyStore.sol\":1685:1704  productsLedger[i+1] */\n      dup2\n      mstore\n      0x20\n      add\n      swap1\n      dup2\n      mstore\n      0x20\n      add\n      0x00\n      keccak256\n        /* \"contracts/MyStore.sol\":1685:1709  productsLedger[i+1].name */\n      0x00\n      add\n        /* \"contracts/MyStore.sol\":1717:1765  Strings.toString(productsLedger[i + 1].quantity) */\n      tag_50\n        /* \"contracts/MyStore.sol\":1734:1748  productsLedger */\n      0x03\n        /* \"contracts/MyStore.sol\":1734:1755  productsLedger[i + 1] */\n      0x00\n        /* \"contracts/MyStore.sol\":1753:1754  1 */\n      0x01\n        /* \"contracts/MyStore.sol\":1749:1750  i */\n      dup7\n        /* \"contracts/MyStore.sol\":1749:1754  i + 1 */\n      tag_51\n      swap2\n      swap1\n      tag_44\n      jump\t// in\n    tag_51:\n        /* \"contracts/MyStore.sol\":1734:1755  productsLedger[i + 1] */\n      dup2\n      mstore\n      0x20\n      add\n      swap1\n      dup2\n      mstore\n      0x20\n      add\n      0x00\n      keccak256\n        /* \"contracts/MyStore.sol\":1734:1764  productsLedger[i + 1].quantity */\n      0x01\n      add\n      sload\n        /* \"contracts/MyStore.sol\":1717:1733  Strings.toString */\n      tag_48\n        /* \"contracts/MyStore.sol\":1717:1765  Strings.toString(productsLedger[i + 1].quantity) */\n      jump\t// in\n    tag_50:\n        /* \"contracts/MyStore.sol\":1637:1766  abi.encodePacked(Strings.toString(i + 1), \". \", productsLedger[i+1].name, \": \", Strings.toString(productsLedger[i + 1].quantity)) */\n      add(0x20, mload(0x40))\n      tag_52\n      swap4\n      swap3\n      swap2\n      swap1\n      tag_53\n      jump\t// in\n    tag_52:\n      mload(0x40)\n      0x20\n      dup2\n      dup4\n      sub\n      sub\n      dup2\n      mstore\n      swap1\n      0x40\n      mstore\n        /* \"contracts/MyStore.sol\":1612:1615  ret */\n      dup4\n        /* \"contracts/MyStore.sol\":1616:1626  arrayIndex */\n      dup4\n        /* \"contracts/MyStore.sol\":1612:1627  ret[arrayIndex] */\n      dup2\n      mload\n      dup2\n      lt\n      tag_54\n      jumpi\n      tag_55\n      tag_56\n      jump\t// in\n    tag_55:\n    tag_54:\n      0x20\n      mul\n      0x20\n      add\n      add\n        /* \"contracts/MyStore.sol\":1612:1767  ret[arrayIndex] = string(abi.encodePacked(Strings.toString(i + 1), \". \", productsLedger[i+1].name, \": \", Strings.toString(productsLedger[i + 1].quantity))) */\n      dup2\n      swap1\n      mstore\n      pop\n        /* \"contracts/MyStore.sol\":1786:1798  arrayIndex++ */\n      dup2\n      dup1\n      tag_57\n      swap1\n      tag_58\n      jump\t// in\n    tag_57:\n      swap3\n      pop\n      pop\n        /* \"contracts/MyStore.sol\":1540:1814  if (productsLedger[i + 1].quantity > 0)... */\n    tag_45:\n        /* \"contracts/MyStore.sol\":1510:1513  i++ */\n      dup1\n      dup1\n      tag_59\n      swap1\n      tag_58\n      jump\t// in\n    tag_59:\n      swap2\n      pop\n      pop\n        /* \"contracts/MyStore.sol\":1475:1825  for (uint i = 0; i < productCount; i++) ... */\n      jump(tag_40)\n    tag_41:\n      pop\n        /* \"contracts/MyStore.sol\":1842:1845  ret */\n      dup2\n        /* \"contracts/MyStore.sol\":1835:1845  return ret */\n      swap3\n      pop\n      pop\n      pop\n        /* \"contracts/MyStore.sol\":1309:1853  function showProducts() public view returns(string[] memory)... */\n      swap1\n      jump\t// out\n        /* \"contracts/MyStore.sol\":3859:3994  function showClientsHistory(uint _prodId) public view returns(address[] memory)... */\n    tag_20:\n        /* \"contracts/MyStore.sol\":3921:3937  address[] memory */\n      0x60\n        /* \"contracts/MyStore.sol\":3962:3976  clientsHistory */\n      0x05\n        /* \"contracts/MyStore.sol\":3962:3985  clientsHistory[_prodId] */\n      0x00\n        /* \"contracts/MyStore.sol\":3977:3984  _prodId */\n      dup4\n        /* \"contracts/MyStore.sol\":3962:3985  clientsHistory[_prodId] */\n      dup2\n      mstore\n      0x20\n      add\n      swap1\n      dup2\n      mstore\n      0x20\n      add\n      0x00\n      keccak256\n        /* \"contracts/MyStore.sol\":3955:3985  return clientsHistory[_prodId] */\n      dup1\n      sload\n      dup1\n      0x20\n      mul\n      0x20\n      add\n      mload(0x40)\n      swap1\n      dup2\n      add\n      0x40\n      mstore\n      dup1\n      swap3\n      swap2\n      swap1\n      dup2\n      dup2\n      mstore\n      0x20\n      add\n      dup3\n      dup1\n      sload\n      dup1\n      iszero\n      tag_61\n      jumpi\n      0x20\n      mul\n      dup3\n      add\n      swap2\n      swap1\n      0x00\n      mstore\n      keccak256(0x00, 0x20)\n      swap1\n    tag_62:\n      dup2\n      0x00\n      swap1\n      sload\n      swap1\n      0x0100\n      exp\n      swap1\n      div\n      0xffffffffffffffffffffffffffffffffffffffff\n      and\n      0xffffffffffffffffffffffffffffffffffffffff\n      and\n      dup2\n      mstore\n      0x20\n      add\n      swap1\n      0x01\n      add\n      swap1\n      dup1\n      dup4\n      gt\n      tag_62\n      jumpi\n    tag_61:\n      pop\n      pop\n      pop\n      pop\n      pop\n      swap1\n      pop\n        /* \"contracts/MyStore.sol\":3859:3994  function showClientsHistory(uint _prodId) public view returns(address[] memory)... */\n      swap2\n      swap1\n      pop\n      jump\t// out\n        /* \"contracts/MyStore.sol\":801:1301  function addProduct(string calldata _productName, uint _quantity) public onlyOwner {... */\n    tag_26:\n        /* \"contracts/Ownable.sol\":173:183  msg.sender */\n      caller\n        /* \"contracts/Ownable.sol\":164:183  owner == msg.sender */\n      0xffffffffffffffffffffffffffffffffffffffff\n      and\n        /* \"contracts/Ownable.sol\":164:169  owner */\n      0x00\n      dup1\n      sload\n      swap1\n      0x0100\n      exp\n      swap1\n      div\n      0xffffffffffffffffffffffffffffffffffffffff\n      and\n        /* \"contracts/Ownable.sol\":164:183  owner == msg.sender */\n      0xffffffffffffffffffffffffffffffffffffffff\n      and\n      eq\n        /* \"contracts/Ownable.sol\":156:212  require(owner == msg.sender, \"Not invoked by the owner\") */\n      tag_64\n      jumpi\n      mload(0x40)\n      0x08c379a000000000000000000000000000000000000000000000000000000000\n      dup2\n      mstore\n      0x04\n      add\n      tag_65\n      swap1\n      tag_66\n      jump\t// in\n    tag_65:\n      mload(0x40)\n      dup1\n      swap2\n      sub\n      swap1\n      revert\n    tag_64:\n        /* \"contracts/MyStore.sol\":926:927  0 */\n      0x00\n        /* \"contracts/MyStore.sol\":898:908  productIds */\n      0x02\n        /* \"contracts/MyStore.sol\":909:921  _productName */\n      dup5\n      dup5\n        /* \"contracts/MyStore.sol\":898:922  productIds[_productName] */\n      mload(0x40)\n      tag_68\n      swap3\n      swap2\n      swap1\n      tag_69\n      jump\t// in\n    tag_68:\n      swap1\n      dup2\n      mstore\n      0x20\n      add\n      mload(0x40)\n      dup1\n      swap2\n      sub\n      swap1\n      keccak256\n      sload\n        /* \"contracts/MyStore.sol\":898:927  productIds[_productName] == 0 */\n      eq\n        /* \"contracts/MyStore.sol\":894:1291  if (productIds[_productName] == 0)... */\n      iszero\n      tag_70\n      jumpi\n        /* \"contracts/MyStore.sol\":951:963  productCount */\n      0x01\n      0x00\n        /* \"contracts/MyStore.sol\":951:965  productCount++ */\n      dup2\n      sload\n      dup1\n      swap3\n      swap2\n      swap1\n      tag_71\n      swap1\n      tag_58\n      jump\t// in\n    tag_71:\n      swap2\n      swap1\n      pop\n      sstore\n      pop\n        /* \"contracts/MyStore.sol\":1006:1018  productCount */\n      sload(0x01)\n        /* \"contracts/MyStore.sol\":979:989  productIds */\n      0x02\n        /* \"contracts/MyStore.sol\":990:1002  _productName */\n      dup5\n      dup5\n        /* \"contracts/MyStore.sol\":979:1003  productIds[_productName] */\n      mload(0x40)\n      tag_72\n      swap3\n      swap2\n      swap1\n      tag_69\n      jump\t// in\n    tag_72:\n      swap1\n      dup2\n      mstore\n      0x20\n      add\n      mload(0x40)\n      dup1\n      swap2\n      sub\n      swap1\n      keccak256\n        /* \"contracts/MyStore.sol\":979:1018  productIds[_productName] = productCount */\n      dup2\n      swap1\n      sstore\n      pop\n        /* \"contracts/MyStore.sol\":1080:1092  _productName */\n      dup3\n      dup3\n        /* \"contracts/MyStore.sol\":1032:1046  productsLedger */\n      0x03\n        /* \"contracts/MyStore.sol\":1032:1072  productsLedger[productIds[_productName]] */\n      0x00\n        /* \"contracts/MyStore.sol\":1047:1057  productIds */\n      0x02\n        /* \"contracts/MyStore.sol\":1058:1070  _productName */\n      dup8\n      dup8\n        /* \"contracts/MyStore.sol\":1047:1071  productIds[_productName] */\n      mload(0x40)\n      tag_73\n      swap3\n      swap2\n      swap1\n      tag_69\n      jump\t// in\n    tag_73:\n      swap1\n      dup2\n      mstore\n      0x20\n      add\n      mload(0x40)\n      dup1\n      swap2\n      sub\n      swap1\n      keccak256\n      sload\n        /* \"contracts/MyStore.sol\":1032:1072  productsLedger[productIds[_productName]] */\n      dup2\n      mstore\n      0x20\n      add\n      swap1\n      dup2\n      mstore\n      0x20\n      add\n      0x00\n      keccak256\n        /* \"contracts/MyStore.sol\":1032:1077  productsLedger[productIds[_productName]].name */\n      0x00\n      add\n        /* \"contracts/MyStore.sol\":1032:1092  productsLedger[productIds[_productName]].name = _productName */\n      swap2\n      swap1\n      tag_74\n      swap3\n      swap2\n      swap1\n      tag_75\n      jump\t// in\n    tag_74:\n      pop\n        /* \"contracts/MyStore.sol\":1158:1167  _quantity */\n      dup1\n        /* \"contracts/MyStore.sol\":1106:1120  productsLedger */\n      0x03\n        /* \"contracts/MyStore.sol\":1106:1146  productsLedger[productIds[_productName]] */\n      0x00\n        /* \"contracts/MyStore.sol\":1121:1131  productIds */\n      0x02\n        /* \"contracts/MyStore.sol\":1132:1144  _productName */\n      dup7\n      dup7\n        /* \"contracts/MyStore.sol\":1121:1145  productIds[_productName] */\n      mload(0x40)\n      tag_76\n      swap3\n      swap2\n      swap1\n      tag_69\n      jump\t// in\n    tag_76:\n      swap1\n      dup2\n      mstore\n      0x20\n      add\n      mload(0x40)\n      dup1\n      swap2\n      sub\n      swap1\n      keccak256\n      sload\n        /* \"contracts/MyStore.sol\":1106:1146  productsLedger[productIds[_productName]] */\n      dup2\n      mstore\n      0x20\n      add\n      swap1\n      dup2\n      mstore\n      0x20\n      add\n      0x00\n      keccak256\n        /* \"contracts/MyStore.sol\":1106:1155  productsLedger[productIds[_productName]].quantity */\n      0x01\n      add\n        /* \"contracts/MyStore.sol\":1106:1167  productsLedger[productIds[_productName]].quantity = _quantity */\n      dup2\n      swap1\n      sstore\n      pop\n        /* \"contracts/MyStore.sol\":894:1291  if (productIds[_productName] == 0)... */\n      jump(tag_77)\n    tag_70:\n        /* \"contracts/MyStore.sol\":1270:1279  _quantity */\n      dup1\n        /* \"contracts/MyStore.sol\":1217:1231  productsLedger */\n      0x03\n        /* \"contracts/MyStore.sol\":1217:1257  productsLedger[productIds[_productName]] */\n      0x00\n        /* \"contracts/MyStore.sol\":1232:1242  productIds */\n      0x02\n        /* \"contracts/MyStore.sol\":1243:1255  _productName */\n      dup7\n      dup7\n        /* \"contracts/MyStore.sol\":1232:1256  productIds[_productName] */\n      mload(0x40)\n      tag_78\n      swap3\n      swap2\n      swap1\n      tag_69\n      jump\t// in\n    tag_78:\n      swap1\n      dup2\n      mstore\n      0x20\n      add\n      mload(0x40)\n      dup1\n      swap2\n      sub\n      swap1\n      keccak256\n      sload\n        /* \"contracts/MyStore.sol\":1217:1257  productsLedger[productIds[_productName]] */\n      dup2\n      mstore\n      0x20\n      add\n      swap1\n      dup2\n      mstore\n      0x20\n      add\n      0x00\n      keccak256\n        /* \"contracts/MyStore.sol\":1217:1266  productsLedger[productIds[_productName]].quantity */\n      0x01\n      add\n      0x00\n        /* \"contracts/MyStore.sol\":1217:1279  productsLedger[productIds[_productName]].quantity += _quantity */\n      dup3\n      dup3\n      sload\n      tag_79\n      swap2\n      swap1\n      tag_44\n      jump\t// in\n    tag_79:\n      swap3\n      pop\n      pop\n      dup2\n      swap1\n      sstore\n      pop\n        /* \"contracts/MyStore.sol\":894:1291  if (productIds[_productName] == 0)... */\n    tag_77:\n        /* \"contracts/MyStore.sol\":801:1301  function addProduct(string calldata _productName, uint _quantity) public onlyOwner {... */\n      pop\n      pop\n      pop\n      jump\t// out\n        /* \"contracts/MyStore.sol\":3268:3851  function returnProduct(uint _prodId, uint _productQuantity) public... */\n    tag_30:\n        /* \"contracts/MyStore.sol\":3378:3379  0 */\n      0x00\n        /* \"contracts/MyStore.sol\":3359:3375  _productQuantity */\n      dup2\n        /* \"contracts/MyStore.sol\":3359:3379  _productQuantity > 0 */\n      gt\n        /* \"contracts/MyStore.sol\":3351:3409  require(_productQuantity > 0, \"Cannot return 0 products!\") */\n      tag_81\n      jumpi\n      mload(0x40)\n      0x08c379a000000000000000000000000000000000000000000000000000000000\n      dup2\n      mstore\n      0x04\n      add\n      tag_82\n      swap1\n      tag_83\n      jump\t// in\n    tag_82:\n      mload(0x40)\n      dup1\n      swap2\n      sub\n      swap1\n      revert\n    tag_81:\n        /* \"contracts/MyStore.sol\":3484:3500  _productQuantity */\n      dup1\n        /* \"contracts/MyStore.sol\":3428:3435  clients */\n      0x04\n        /* \"contracts/MyStore.sol\":3428:3447  clients[msg.sender] */\n      0x00\n        /* \"contracts/MyStore.sol\":3436:3446  msg.sender */\n      caller\n        /* \"contracts/MyStore.sol\":3428:3447  clients[msg.sender] */\n      0xffffffffffffffffffffffffffffffffffffffff\n      and\n      0xffffffffffffffffffffffffffffffffffffffff\n      and\n      dup2\n      mstore\n      0x20\n      add\n      swap1\n      dup2\n      mstore\n      0x20\n      add\n      0x00\n      keccak256\n        /* \"contracts/MyStore.sol\":3428:3462  clients[msg.sender].productsBought */\n      0x01\n      add\n        /* \"contracts/MyStore.sol\":3428:3471  clients[msg.sender].productsBought[_prodId] */\n      0x00\n        /* \"contracts/MyStore.sol\":3463:3470  _prodId */\n      dup5\n        /* \"contracts/MyStore.sol\":3428:3471  clients[msg.sender].productsBought[_prodId] */\n      dup2\n      mstore\n      0x20\n      add\n      swap1\n      dup2\n      mstore\n      0x20\n      add\n      0x00\n      keccak256\n        /* \"contracts/MyStore.sol\":3428:3480  clients[msg.sender].productsBought[_prodId].quantity */\n      0x02\n      add\n      sload\n        /* \"contracts/MyStore.sol\":3428:3500  clients[msg.sender].productsBought[_prodId].quantity >= _productQuantity */\n      lt\n      iszero\n        /* \"contracts/MyStore.sol\":3420:3545  require(clients[msg.sender].productsBought[_prodId].quantity >= _productQuantity, \"Cannot return more than you have bought!\") */\n      tag_84\n      jumpi\n      mload(0x40)\n      0x08c379a000000000000000000000000000000000000000000000000000000000\n      dup2\n      mstore\n      0x04\n      add\n      tag_85\n      swap1\n      tag_86\n      jump\t// in\n    tag_85:\n      mload(0x40)\n      dup1\n      swap2\n      sub\n      swap1\n      revert\n    tag_84:\n        /* \"contracts/MyStore.sol\":238:241  100 */\n      0x64\n        /* \"contracts/MyStore.sol\":3580:3587  clients */\n      0x04\n        /* \"contracts/MyStore.sol\":3580:3599  clients[msg.sender] */\n      0x00\n        /* \"contracts/MyStore.sol\":3588:3598  msg.sender */\n      caller\n        /* \"contracts/MyStore.sol\":3580:3599  clients[msg.sender] */\n      0xffffffffffffffffffffffffffffffffffffffff\n      and\n      0xffffffffffffffffffffffffffffffffffffffff\n      and\n      dup2\n      mstore\n      0x20\n      add\n      swap1\n      dup2\n      mstore\n      0x20\n      add\n      0x00\n      keccak256\n        /* \"contracts/MyStore.sol\":3580:3614  clients[msg.sender].productsBought */\n      0x01\n      add\n        /* \"contracts/MyStore.sol\":3580:3623  clients[msg.sender].productsBought[_prodId] */\n      0x00\n        /* \"contracts/MyStore.sol\":3615:3622  _prodId */\n      dup5\n        /* \"contracts/MyStore.sol\":3580:3623  clients[msg.sender].productsBought[_prodId] */\n      dup2\n      mstore\n      0x20\n      add\n      swap1\n      dup2\n      mstore\n      0x20\n      add\n      0x00\n      keccak256\n        /* \"contracts/MyStore.sol\":3580:3635  clients[msg.sender].productsBought[_prodId].blockNumber */\n      0x01\n      add\n      sload\n        /* \"contracts/MyStore.sol\":3565:3577  block.number */\n      number\n        /* \"contracts/MyStore.sol\":3565:3635  block.number - clients[msg.sender].productsBought[_prodId].blockNumber */\n      tag_87\n      swap2\n      swap1\n      tag_88\n      jump\t// in\n    tag_87:\n        /* \"contracts/MyStore.sol\":3564:3652  (block.number - clients[msg.sender].productsBought[_prodId].blockNumber) <= RETURNBLOCKS */\n      gt\n      iszero\n        /* \"contracts/MyStore.sol\":3556:3694  require((block.number - clients[msg.sender].productsBought[_prodId].blockNumber) <= RETURNBLOCKS, \"Transaction is older than 100 blocks!\") */\n      tag_89\n      jumpi\n      mload(0x40)\n      0x08c379a000000000000000000000000000000000000000000000000000000000\n      dup2\n      mstore\n      0x04\n      add\n      tag_90\n      swap1\n      tag_91\n      jump\t// in\n    tag_90:\n      mload(0x40)\n      dup1\n      swap2\n      sub\n      swap1\n      revert\n    tag_89:\n        /* \"contracts/MyStore.sol\":3763:3779  _productQuantity */\n      dup1\n        /* \"contracts/MyStore.sol\":3707:3714  clients */\n      0x04\n        /* \"contracts/MyStore.sol\":3707:3726  clients[msg.sender] */\n      0x00\n        /* \"contracts/MyStore.sol\":3715:3725  msg.sender */\n      caller\n        /* \"contracts/MyStore.sol\":3707:3726  clients[msg.sender] */\n      0xffffffffffffffffffffffffffffffffffffffff\n      and\n      0xffffffffffffffffffffffffffffffffffffffff\n      and\n      dup2\n      mstore\n      0x20\n      add\n      swap1\n      dup2\n      mstore\n      0x20\n      add\n      0x00\n      keccak256\n        /* \"contracts/MyStore.sol\":3707:3741  clients[msg.sender].productsBought */\n      0x01\n      add\n        /* \"contracts/MyStore.sol\":3707:3750  clients[msg.sender].productsBought[_prodId] */\n      0x00\n        /* \"contracts/MyStore.sol\":3742:3749  _prodId */\n      dup5\n        /* \"contracts/MyStore.sol\":3707:3750  clients[msg.sender].productsBought[_prodId] */\n      dup2\n      mstore\n      0x20\n      add\n      swap1\n      dup2\n      mstore\n      0x20\n      add\n      0x00\n      keccak256\n        /* \"contracts/MyStore.sol\":3707:3759  clients[msg.sender].productsBought[_prodId].quantity */\n      0x02\n      add\n      0x00\n        /* \"contracts/MyStore.sol\":3707:3779  clients[msg.sender].productsBought[_prodId].quantity -= _productQuantity */\n      dup3\n      dup3\n      sload\n      tag_92\n      swap2\n      swap1\n      tag_88\n      jump\t// in\n    tag_92:\n      swap3\n      pop\n      pop\n      dup2\n      swap1\n      sstore\n      pop\n        /* \"contracts/MyStore.sol\":3827:3843  _productQuantity */\n      dup1\n        /* \"contracts/MyStore.sol\":3791:3805  productsLedger */\n      0x03\n        /* \"contracts/MyStore.sol\":3791:3814  productsLedger[_prodId] */\n      0x00\n        /* \"contracts/MyStore.sol\":3806:3813  _prodId */\n      dup5\n        /* \"contracts/MyStore.sol\":3791:3814  productsLedger[_prodId] */\n      dup2\n      mstore\n      0x20\n      add\n      swap1\n      dup2\n      mstore\n      0x20\n      add\n      0x00\n      keccak256\n        /* \"contracts/MyStore.sol\":3791:3823  productsLedger[_prodId].quantity */\n      0x01\n      add\n      0x00\n        /* \"contracts/MyStore.sol\":3791:3843  productsLedger[_prodId].quantity += _productQuantity */\n      dup3\n      dup3\n      sload\n      tag_93\n      swap2\n      swap1\n      tag_44\n      jump\t// in\n    tag_93:\n      swap3\n      pop\n      pop\n      dup2\n      swap1\n      sstore\n      pop\n        /* \"contracts/MyStore.sol\":3268:3851  function returnProduct(uint _prodId, uint _productQuantity) public... */\n      pop\n      pop\n      jump\t// out\n        /* \"contracts/MyStore.sol\":2335:3260  function buy(uint _prodId, uint _productQuantity) public... */\n    tag_33:\n        /* \"contracts/MyStore.sol\":2435:2436  0 */\n      0x00\n        /* \"contracts/MyStore.sol\":2416:2432  _productQuantity */\n      dup2\n        /* \"contracts/MyStore.sol\":2416:2436  _productQuantity > 0 */\n      gt\n        /* \"contracts/MyStore.sol\":2408:2469  require(_productQuantity > 0, \"Cannot buy 0 productsLedger!\") */\n      tag_95\n      jumpi\n      mload(0x40)\n      0x08c379a000000000000000000000000000000000000000000000000000000000\n      dup2\n      mstore\n      0x04\n      add\n      tag_96\n      swap1\n      tag_97\n      jump\t// in\n    tag_96:\n      mload(0x40)\n      dup1\n      swap2\n      sub\n      swap1\n      revert\n    tag_95:\n        /* \"contracts/MyStore.sol\":2499:2511  productCount */\n      sload(0x01)\n        /* \"contracts/MyStore.sol\":2488:2495  _prodId */\n      dup3\n        /* \"contracts/MyStore.sol\":2488:2511  _prodId <= productCount */\n      gt\n      iszero\n        /* \"contracts/MyStore.sol\":2480:2532  require(_prodId <= productCount, \"No such product!\") */\n      tag_98\n      jumpi\n      mload(0x40)\n      0x08c379a000000000000000000000000000000000000000000000000000000000\n      dup2\n      mstore\n      0x04\n      add\n      tag_99\n      swap1\n      tag_100\n      jump\t// in\n    tag_99:\n      mload(0x40)\n      dup1\n      swap2\n      sub\n      swap1\n      revert\n    tag_98:\n        /* \"contracts/MyStore.sol\":2607:2608  0 */\n      0x00\n        /* \"contracts/MyStore.sol\":2551:2558  clients */\n      0x04\n        /* \"contracts/MyStore.sol\":2551:2570  clients[msg.sender] */\n      0x00\n        /* \"contracts/MyStore.sol\":2559:2569  msg.sender */\n      caller\n        /* \"contracts/MyStore.sol\":2551:2570  clients[msg.sender] */\n      0xffffffffffffffffffffffffffffffffffffffff\n      and\n      0xffffffffffffffffffffffffffffffffffffffff\n      and\n      dup2\n      mstore\n      0x20\n      add\n      swap1\n      dup2\n      mstore\n      0x20\n      add\n      0x00\n      keccak256\n        /* \"contracts/MyStore.sol\":2551:2585  clients[msg.sender].productsBought */\n      0x01\n      add\n        /* \"contracts/MyStore.sol\":2551:2594  clients[msg.sender].productsBought[_prodId] */\n      0x00\n        /* \"contracts/MyStore.sol\":2586:2593  _prodId */\n      dup5\n        /* \"contracts/MyStore.sol\":2551:2594  clients[msg.sender].productsBought[_prodId] */\n      dup2\n      mstore\n      0x20\n      add\n      swap1\n      dup2\n      mstore\n      0x20\n      add\n      0x00\n      keccak256\n        /* \"contracts/MyStore.sol\":2551:2603  clients[msg.sender].productsBought[_prodId].quantity */\n      0x02\n      add\n      sload\n        /* \"contracts/MyStore.sol\":2551:2608  clients[msg.sender].productsBought[_prodId].quantity == 0 */\n      eq\n        /* \"contracts/MyStore.sol\":2543:2628  require(clients[msg.sender].productsBought[_prodId].quantity == 0, \"Already bought!\") */\n      tag_101\n      jumpi\n      mload(0x40)\n      0x08c379a000000000000000000000000000000000000000000000000000000000\n      dup2\n      mstore\n      0x04\n      add\n      tag_102\n      swap1\n      tag_103\n      jump\t// in\n    tag_102:\n      mload(0x40)\n      dup1\n      swap2\n      sub\n      swap1\n      revert\n    tag_101:\n        /* \"contracts/MyStore.sol\":2683:2699  _productQuantity */\n      dup1\n        /* \"contracts/MyStore.sol\":2647:2661  productsLedger */\n      0x03\n        /* \"contracts/MyStore.sol\":2647:2670  productsLedger[_prodId] */\n      0x00\n        /* \"contracts/MyStore.sol\":2662:2669  _prodId */\n      dup5\n        /* \"contracts/MyStore.sol\":2647:2670  productsLedger[_prodId] */\n      dup2\n      mstore\n      0x20\n      add\n      swap1\n      dup2\n      mstore\n      0x20\n      add\n      0x00\n      keccak256\n        /* \"contracts/MyStore.sol\":2647:2679  productsLedger[_prodId].quantity */\n      0x01\n      add\n      sload\n        /* \"contracts/MyStore.sol\":2647:2699  productsLedger[_prodId].quantity >= _productQuantity */\n      lt\n      iszero\n        /* \"contracts/MyStore.sol\":2639:2746  require(productsLedger[_prodId].quantity >= _productQuantity, \"There is not enough quantity in the store!\") */\n      tag_104\n      jumpi\n      mload(0x40)\n      0x08c379a000000000000000000000000000000000000000000000000000000000\n      dup2\n      mstore\n      0x04\n      add\n      tag_105\n      swap1\n      tag_106\n      jump\t// in\n    tag_105:\n      mload(0x40)\n      dup1\n      swap2\n      sub\n      swap1\n      revert\n    tag_104:\n        /* \"contracts/MyStore.sol\":2813:2829  _productQuantity */\n      dup1\n        /* \"contracts/MyStore.sol\":2777:2791  productsLedger */\n      0x03\n        /* \"contracts/MyStore.sol\":2777:2800  productsLedger[_prodId] */\n      0x00\n        /* \"contracts/MyStore.sol\":2792:2799  _prodId */\n      dup5\n        /* \"contracts/MyStore.sol\":2777:2800  productsLedger[_prodId] */\n      dup2\n      mstore\n      0x20\n      add\n      swap1\n      dup2\n      mstore\n      0x20\n      add\n      0x00\n      keccak256\n        /* \"contracts/MyStore.sol\":2777:2809  productsLedger[_prodId].quantity */\n      0x01\n      add\n      0x00\n        /* \"contracts/MyStore.sol\":2777:2829  productsLedger[_prodId].quantity -= _productQuantity */\n      dup3\n      dup3\n      sload\n      tag_107\n      swap2\n      swap1\n      tag_88\n      jump\t// in\n    tag_107:\n      swap3\n      pop\n      pop\n      dup2\n      swap1\n      sstore\n      pop\n        /* \"contracts/MyStore.sol\":2881:2891  msg.sender */\n      caller\n        /* \"contracts/MyStore.sol\":2844:2891  clients[msg.sender].clientAddress != msg.sender */\n      0xffffffffffffffffffffffffffffffffffffffff\n      and\n        /* \"contracts/MyStore.sol\":2844:2851  clients */\n      0x04\n        /* \"contracts/MyStore.sol\":2844:2863  clients[msg.sender] */\n      0x00\n        /* \"contracts/MyStore.sol\":2852:2862  msg.sender */\n      caller\n        /* \"contracts/MyStore.sol\":2844:2863  clients[msg.sender] */\n      0xffffffffffffffffffffffffffffffffffffffff\n      and\n      0xffffffffffffffffffffffffffffffffffffffff\n      and\n      dup2\n      mstore\n      0x20\n      add\n      swap1\n      dup2\n      mstore\n      0x20\n      add\n      0x00\n      keccak256\n        /* \"contracts/MyStore.sol\":2844:2877  clients[msg.sender].clientAddress */\n      0x00\n      add\n      0x00\n      swap1\n      sload\n      swap1\n      0x0100\n      exp\n      swap1\n      div\n      0xffffffffffffffffffffffffffffffffffffffff\n      and\n        /* \"contracts/MyStore.sol\":2844:2891  clients[msg.sender].clientAddress != msg.sender */\n      0xffffffffffffffffffffffffffffffffffffffff\n      and\n      eq\n        /* \"contracts/MyStore.sol\":2840:2952  if (clients[msg.sender].clientAddress != msg.sender)... */\n      tag_108\n      jumpi\n        /* \"contracts/MyStore.sol\":2942:2952  msg.sender */\n      caller\n        /* \"contracts/MyStore.sol\":2906:2913  clients */\n      0x04\n        /* \"contracts/MyStore.sol\":2906:2925  clients[msg.sender] */\n      0x00\n        /* \"contracts/MyStore.sol\":2914:2924  msg.sender */\n      caller\n        /* \"contracts/MyStore.sol\":2906:2925  clients[msg.sender] */\n      0xffffffffffffffffffffffffffffffffffffffff\n      and\n      0xffffffffffffffffffffffffffffffffffffffff\n      and\n      dup2\n      mstore\n      0x20\n      add\n      swap1\n      dup2\n      mstore\n      0x20\n      add\n      0x00\n      keccak256\n        /* \"contracts/MyStore.sol\":2906:2939  clients[msg.sender].clientAddress */\n      0x00\n      add\n      0x00\n        /* \"contracts/MyStore.sol\":2906:2952  clients[msg.sender].clientAddress = msg.sender */\n      0x0100\n      exp\n      dup2\n      sload\n      dup2\n      0xffffffffffffffffffffffffffffffffffffffff\n      mul\n      not\n      and\n      swap1\n      dup4\n      0xffffffffffffffffffffffffffffffffffffffff\n      and\n      mul\n      or\n      swap1\n      sstore\n      pop\n        /* \"contracts/MyStore.sol\":2840:2952  if (clients[msg.sender].clientAddress != msg.sender)... */\n    tag_108:\n        /* \"contracts/MyStore.sol\":3030:3037  _prodId */\n      dup2\n        /* \"contracts/MyStore.sol\":2974:2981  clients */\n      0x04\n        /* \"contracts/MyStore.sol\":2974:2993  clients[msg.sender] */\n      0x00\n        /* \"contracts/MyStore.sol\":2982:2992  msg.sender */\n      caller\n        /* \"contracts/MyStore.sol\":2974:2993  clients[msg.sender] */\n      0xffffffffffffffffffffffffffffffffffffffff\n      and\n      0xffffffffffffffffffffffffffffffffffffffff\n      and\n      dup2\n      mstore\n      0x20\n      add\n      swap1\n      dup2\n      mstore\n      0x20\n      add\n      0x00\n      keccak256\n        /* \"contracts/MyStore.sol\":2974:3008  clients[msg.sender].productsBought */\n      0x01\n      add\n        /* \"contracts/MyStore.sol\":2974:3017  clients[msg.sender].productsBought[_prodId] */\n      0x00\n        /* \"contracts/MyStore.sol\":3009:3016  _prodId */\n      dup5\n        /* \"contracts/MyStore.sol\":2974:3017  clients[msg.sender].productsBought[_prodId] */\n      dup2\n      mstore\n      0x20\n      add\n      swap1\n      dup2\n      mstore\n      0x20\n      add\n      0x00\n      keccak256\n        /* \"contracts/MyStore.sol\":2974:3027  clients[msg.sender].productsBought[_prodId].productId */\n      0x00\n      add\n        /* \"contracts/MyStore.sol\":2974:3037  clients[msg.sender].productsBought[_prodId].productId = _prodId */\n      dup2\n      swap1\n      sstore\n      pop\n        /* \"contracts/MyStore.sol\":3103:3119  _productQuantity */\n      dup1\n        /* \"contracts/MyStore.sol\":3048:3055  clients */\n      0x04\n        /* \"contracts/MyStore.sol\":3048:3067  clients[msg.sender] */\n      0x00\n        /* \"contracts/MyStore.sol\":3056:3066  msg.sender */\n      caller\n        /* \"contracts/MyStore.sol\":3048:3067  clients[msg.sender] */\n      0xffffffffffffffffffffffffffffffffffffffff\n      and\n      0xffffffffffffffffffffffffffffffffffffffff\n      and\n      dup2\n      mstore\n      0x20\n      add\n      swap1\n      dup2\n      mstore\n      0x20\n      add\n      0x00\n      keccak256\n        /* \"contracts/MyStore.sol\":3048:3082  clients[msg.sender].productsBought */\n      0x01\n      add\n        /* \"contracts/MyStore.sol\":3048:3091  clients[msg.sender].productsBought[_prodId] */\n      0x00\n        /* \"contracts/MyStore.sol\":3083:3090  _prodId */\n      dup5\n        /* \"contracts/MyStore.sol\":3048:3091  clients[msg.sender].productsBought[_prodId] */\n      dup2\n      mstore\n      0x20\n      add\n      swap1\n      dup2\n      mstore\n      0x20\n      add\n      0x00\n      keccak256\n        /* \"contracts/MyStore.sol\":3048:3100  clients[msg.sender].productsBought[_prodId].quantity */\n      0x02\n      add\n        /* \"contracts/MyStore.sol\":3048:3119  clients[msg.sender].productsBought[_prodId].quantity = _productQuantity */\n      dup2\n      swap1\n      sstore\n      pop\n        /* \"contracts/MyStore.sol\":3188:3200  block.number */\n      number\n        /* \"contracts/MyStore.sol\":3130:3137  clients */\n      0x04\n        /* \"contracts/MyStore.sol\":3130:3149  clients[msg.sender] */\n      0x00\n        /* \"contracts/MyStore.sol\":3138:3148  msg.sender */\n      caller\n        /* \"contracts/MyStore.sol\":3130:3149  clients[msg.sender] */\n      0xffffffffffffffffffffffffffffffffffffffff\n      and\n      0xffffffffffffffffffffffffffffffffffffffff\n      and\n      dup2\n      mstore\n      0x20\n      add\n      swap1\n      dup2\n      mstore\n      0x20\n      add\n      0x00\n      keccak256\n        /* \"contracts/MyStore.sol\":3130:3164  clients[msg.sender].productsBought */\n      0x01\n      add\n        /* \"contracts/MyStore.sol\":3130:3173  clients[msg.sender].productsBought[_prodId] */\n      0x00\n        /* \"contracts/MyStore.sol\":3165:3172  _prodId */\n      dup5\n        /* \"contracts/MyStore.sol\":3130:3173  clients[msg.sender].productsBought[_prodId] */\n      dup2\n      mstore\n      0x20\n      add\n      swap1\n      dup2\n      mstore\n      0x20\n      add\n      0x00\n      keccak256\n        /* \"contracts/MyStore.sol\":3130:3185  clients[msg.sender].productsBought[_prodId].blockNumber */\n      0x01\n      add\n        /* \"contracts/MyStore.sol\":3130:3200  clients[msg.sender].productsBought[_prodId].blockNumber = block.number */\n      dup2\n      swap1\n      sstore\n      pop\n        /* \"contracts/MyStore.sol\":3213:3252  addClientToHistory(msg.sender, _prodId) */\n      tag_109\n        /* \"contracts/MyStore.sol\":3232:3242  msg.sender */\n      caller\n        /* \"contracts/MyStore.sol\":3244:3251  _prodId */\n      dup4\n        /* \"contracts/MyStore.sol\":3213:3231  addClientToHistory */\n      tag_110\n        /* \"contracts/MyStore.sol\":3213:3252  addClientToHistory(msg.sender, _prodId) */\n      jump\t// in\n    tag_109:\n        /* \"contracts/MyStore.sol\":2335:3260  function buy(uint _prodId, uint _productQuantity) public... */\n      pop\n      pop\n      jump\t// out\n        /* \"@openzeppelin/contracts/utils/Strings.sol\":392:1095  function toString(uint256 value) internal pure returns (string memory) {... */\n    tag_48:\n        /* \"@openzeppelin/contracts/utils/Strings.sol\":448:461  string memory */\n      0x60\n        /* \"@openzeppelin/contracts/utils/Strings.sol\":674:675  0 */\n      0x00\n        /* \"@openzeppelin/contracts/utils/Strings.sol\":665:670  value */\n      dup3\n        /* \"@openzeppelin/contracts/utils/Strings.sol\":665:675  value == 0 */\n      eq\n        /* \"@openzeppelin/contracts/utils/Strings.sol\":661:712  if (value == 0) {... */\n      iszero\n      tag_112\n      jumpi\n        /* \"@openzeppelin/contracts/utils/Strings.sol\":691:701  return \"0\" */\n      mload(0x40)\n      dup1\n      0x40\n      add\n      0x40\n      mstore\n      dup1\n      0x01\n      dup2\n      mstore\n      0x20\n      add\n      0x3000000000000000000000000000000000000000000000000000000000000000\n      dup2\n      mstore\n      pop\n      swap1\n      pop\n      jump(tag_111)\n        /* \"@openzeppelin/contracts/utils/Strings.sol\":661:712  if (value == 0) {... */\n    tag_112:\n        /* \"@openzeppelin/contracts/utils/Strings.sol\":721:733  uint256 temp */\n      0x00\n        /* \"@openzeppelin/contracts/utils/Strings.sol\":736:741  value */\n      dup3\n        /* \"@openzeppelin/contracts/utils/Strings.sol\":721:741  uint256 temp = value */\n      swap1\n      pop\n        /* \"@openzeppelin/contracts/utils/Strings.sol\":751:765  uint256 digits */\n      0x00\n        /* \"@openzeppelin/contracts/utils/Strings.sol\":775:850  while (temp != 0) {... */\n    tag_113:\n        /* \"@openzeppelin/contracts/utils/Strings.sol\":790:791  0 */\n      0x00\n        /* \"@openzeppelin/contracts/utils/Strings.sol\":782:786  temp */\n      dup3\n        /* \"@openzeppelin/contracts/utils/Strings.sol\":782:791  temp != 0 */\n      eq\n        /* \"@openzeppelin/contracts/utils/Strings.sol\":775:850  while (temp != 0) {... */\n      tag_114\n      jumpi\n        /* \"@openzeppelin/contracts/utils/Strings.sol\":807:815  digits++ */\n      dup1\n      dup1\n      tag_115\n      swap1\n      tag_58\n      jump\t// in\n    tag_115:\n      swap2\n      pop\n      pop\n        /* \"@openzeppelin/contracts/utils/Strings.sol\":837:839  10 */\n      0x0a\n        /* \"@openzeppelin/contracts/utils/Strings.sol\":829:839  temp /= 10 */\n      dup3\n      tag_116\n      swap2\n      swap1\n      tag_117\n      jump\t// in\n    tag_116:\n      swap2\n      pop\n        /* \"@openzeppelin/contracts/utils/Strings.sol\":775:850  while (temp != 0) {... */\n      jump(tag_113)\n    tag_114:\n        /* \"@openzeppelin/contracts/utils/Strings.sol\":859:878  bytes memory buffer */\n      0x00\n        /* \"@openzeppelin/contracts/utils/Strings.sol\":891:897  digits */\n      dup2\n        /* \"@openzeppelin/contracts/utils/Strings.sol\":881:898  new bytes(digits) */\n      0xffffffffffffffff\n      dup2\n      gt\n      iszero\n      tag_118\n      jumpi\n      tag_119\n      tag_37\n      jump\t// in\n    tag_119:\n    tag_118:\n      mload(0x40)\n      swap1\n      dup1\n      dup3\n      mstore\n      dup1\n      0x1f\n      add\n      not(0x1f)\n      and\n      0x20\n      add\n      dup3\n      add\n      0x40\n      mstore\n      dup1\n      iszero\n      tag_120\n      jumpi\n      dup2\n      0x20\n      add\n      0x01\n      dup3\n      mul\n      dup1\n      calldatasize\n      dup4\n      calldatacopy\n      dup1\n      dup3\n      add\n      swap2\n      pop\n      pop\n      swap1\n      pop\n    tag_120:\n      pop\n        /* \"@openzeppelin/contracts/utils/Strings.sol\":859:898  bytes memory buffer = new bytes(digits) */\n      swap1\n      pop\n        /* \"@openzeppelin/contracts/utils/Strings.sol\":908:1058  while (value != 0) {... */\n    tag_121:\n        /* \"@openzeppelin/contracts/utils/Strings.sol\":924:925  0 */\n      0x00\n        /* \"@openzeppelin/contracts/utils/Strings.sol\":915:920  value */\n      dup6\n        /* \"@openzeppelin/contracts/utils/Strings.sol\":915:925  value != 0 */\n      eq\n        /* \"@openzeppelin/contracts/utils/Strings.sol\":908:1058  while (value != 0) {... */\n      tag_122\n      jumpi\n        /* \"@openzeppelin/contracts/utils/Strings.sol\":951:952  1 */\n      0x01\n        /* \"@openzeppelin/contracts/utils/Strings.sol\":941:952  digits -= 1 */\n      dup3\n      tag_123\n      swap2\n      swap1\n      tag_88\n      jump\t// in\n    tag_123:\n      swap2\n      pop\n        /* \"@openzeppelin/contracts/utils/Strings.sol\":1017:1019  10 */\n      0x0a\n        /* \"@openzeppelin/contracts/utils/Strings.sol\":1009:1014  value */\n      dup6\n        /* \"@openzeppelin/contracts/utils/Strings.sol\":1009:1019  value % 10 */\n      tag_124\n      swap2\n      swap1\n      tag_125\n      jump\t// in\n    tag_124:\n        /* \"@openzeppelin/contracts/utils/Strings.sol\":996:998  48 */\n      0x30\n        /* \"@openzeppelin/contracts/utils/Strings.sol\":996:1020  48 + uint256(value % 10) */\n      tag_126\n      swap2\n      swap1\n      tag_44\n      jump\t// in\n    tag_126:\n        /* \"@openzeppelin/contracts/utils/Strings.sol\":983:1022  bytes1(uint8(48 + uint256(value % 10))) */\n      0xf8\n      shl\n        /* \"@openzeppelin/contracts/utils/Strings.sol\":966:972  buffer */\n      dup2\n        /* \"@openzeppelin/contracts/utils/Strings.sol\":973:979  digits */\n      dup4\n        /* \"@openzeppelin/contracts/utils/Strings.sol\":966:980  buffer[digits] */\n      dup2\n      mload\n      dup2\n      lt\n      tag_127\n      jumpi\n      tag_128\n      tag_56\n      jump\t// in\n    tag_128:\n    tag_127:\n      0x20\n      add\n      add\n        /* \"@openzeppelin/contracts/utils/Strings.sol\":966:1022  buffer[digits] = bytes1(uint8(48 + uint256(value % 10))) */\n      swap1\n      not(0xffffffffffffffffffffffffffffffffffffffffffffffffffffffffffffff)\n      and\n      swap1\n      dup2\n      0x00\n      byte\n      swap1\n      mstore8\n      pop\n        /* \"@openzeppelin/contracts/utils/Strings.sol\":1045:1047  10 */\n      0x0a\n        /* \"@openzeppelin/contracts/utils/Strings.sol\":1036:1047  value /= 10 */\n      dup6\n      tag_129\n      swap2\n      swap1\n      tag_117\n      jump\t// in\n    tag_129:\n      swap5\n      pop\n        /* \"@openzeppelin/contracts/utils/Strings.sol\":908:1058  while (value != 0) {... */\n      jump(tag_121)\n    tag_122:\n        /* \"@openzeppelin/contracts/utils/Strings.sol\":1081:1087  buffer */\n      dup1\n        /* \"@openzeppelin/contracts/utils/Strings.sol\":1067:1088  return string(buffer) */\n      swap4\n      pop\n      pop\n      pop\n      pop\n        /* \"@openzeppelin/contracts/utils/Strings.sol\":392:1095  function toString(uint256 value) internal pure returns (string memory) {... */\n    tag_111:\n      swap2\n      swap1\n      pop\n      jump\t// out\n        /* \"contracts/MyStore.sol\":1861:2327  function addClientToHistory(address _clientAddress, uint _prodId) private {... */\n    tag_110:\n        /* \"contracts/MyStore.sol\":1946:1963  bool alreadyExist */\n      0x00\n        /* \"contracts/MyStore.sol\":1979:1985  uint i */\n      dup1\n        /* \"contracts/MyStore.sol\":1988:1989  0 */\n      0x00\n        /* \"contracts/MyStore.sol\":1979:1989  uint i = 0 */\n      swap1\n      pop\n        /* \"contracts/MyStore.sol\":1974:2209  for (uint i = 0 ; i < clientsHistory[_prodId].length; i++)... */\n    tag_131:\n        /* \"contracts/MyStore.sol\":1996:2010  clientsHistory */\n      0x05\n        /* \"contracts/MyStore.sol\":1996:2019  clientsHistory[_prodId] */\n      0x00\n        /* \"contracts/MyStore.sol\":2011:2018  _prodId */\n      dup5\n        /* \"contracts/MyStore.sol\":1996:2019  clientsHistory[_prodId] */\n      dup2\n      mstore\n      0x20\n      add\n      swap1\n      dup2\n      mstore\n      0x20\n      add\n      0x00\n      keccak256\n        /* \"contracts/MyStore.sol\":1996:2026  clientsHistory[_prodId].length */\n      dup1\n      sload\n      swap1\n      pop\n        /* \"contracts/MyStore.sol\":1992:1993  i */\n      dup2\n        /* \"contracts/MyStore.sol\":1992:2026  i < clientsHistory[_prodId].length */\n      lt\n        /* \"contracts/MyStore.sol\":1974:2209  for (uint i = 0 ; i < clientsHistory[_prodId].length; i++)... */\n      iszero\n      tag_132\n      jumpi\n        /* \"contracts/MyStore.sol\":2091:2105  _clientAddress */\n      dup4\n        /* \"contracts/MyStore.sol\":2061:2105  clientsHistory[_prodId][i] == _clientAddress */\n      0xffffffffffffffffffffffffffffffffffffffff\n      and\n        /* \"contracts/MyStore.sol\":2061:2075  clientsHistory */\n      0x05\n        /* \"contracts/MyStore.sol\":2061:2084  clientsHistory[_prodId] */\n      0x00\n        /* \"contracts/MyStore.sol\":2076:2083  _prodId */\n      dup6\n        /* \"contracts/MyStore.sol\":2061:2084  clientsHistory[_prodId] */\n      dup2\n      mstore\n      0x20\n      add\n      swap1\n      dup2\n      mstore\n      0x20\n      add\n      0x00\n      keccak256\n        /* \"contracts/MyStore.sol\":2085:2086  i */\n      dup3\n        /* \"contracts/MyStore.sol\":2061:2087  clientsHistory[_prodId][i] */\n      dup2\n      sload\n      dup2\n      lt\n      tag_134\n      jumpi\n      tag_135\n      tag_56\n      jump\t// in\n    tag_135:\n    tag_134:\n      swap1\n      0x00\n      mstore\n      keccak256(0x00, 0x20)\n      add\n      0x00\n      swap1\n      sload\n      swap1\n      0x0100\n      exp\n      swap1\n      div\n      0xffffffffffffffffffffffffffffffffffffffff\n      and\n        /* \"contracts/MyStore.sol\":2061:2105  clientsHistory[_prodId][i] == _clientAddress */\n      0xffffffffffffffffffffffffffffffffffffffff\n      and\n      eq\n        /* \"contracts/MyStore.sol\":2057:2198  if (clientsHistory[_prodId][i] == _clientAddress)... */\n      iszero\n      tag_137\n      jumpi\n        /* \"contracts/MyStore.sol\":2154:2158  true */\n      0x01\n        /* \"contracts/MyStore.sol\":2139:2158  alreadyExist = true */\n      swap2\n      pop\n        /* \"contracts/MyStore.sol\":2177:2182  break */\n      jump(tag_132)\n        /* \"contracts/MyStore.sol\":2057:2198  if (clientsHistory[_prodId][i] == _clientAddress)... */\n    tag_137:\n        /* \"contracts/MyStore.sol\":2028:2031  i++ */\n      dup1\n      dup1\n      tag_138\n      swap1\n      tag_58\n      jump\t// in\n    tag_138:\n      swap2\n      pop\n      pop\n        /* \"contracts/MyStore.sol\":1974:2209  for (uint i = 0 ; i < clientsHistory[_prodId].length; i++)... */\n      jump(tag_131)\n    tag_132:\n      pop\n        /* \"contracts/MyStore.sol\":2226:2238  alreadyExist */\n      dup1\n        /* \"contracts/MyStore.sol\":2221:2320  if (!alreadyExist)... */\n      tag_139\n      jumpi\n        /* \"contracts/MyStore.sol\":2264:2278  clientsHistory */\n      0x05\n        /* \"contracts/MyStore.sol\":2264:2287  clientsHistory[_prodId] */\n      0x00\n        /* \"contracts/MyStore.sol\":2279:2286  _prodId */\n      dup4\n        /* \"contracts/MyStore.sol\":2264:2287  clientsHistory[_prodId] */\n      dup2\n      mstore\n      0x20\n      add\n      swap1\n      dup2\n      mstore\n      0x20\n      add\n      0x00\n      keccak256\n        /* \"contracts/MyStore.sol\":2293:2307  _clientAddress */\n      dup4\n        /* \"contracts/MyStore.sol\":2264:2308  clientsHistory[_prodId].push(_clientAddress) */\n      swap1\n      dup1\n      0x01\n      dup2\n      sload\n      add\n      dup1\n      dup3\n      sstore\n      dup1\n      swap2\n      pop\n      pop\n      0x01\n      swap1\n      sub\n      swap1\n      0x00\n      mstore\n      keccak256(0x00, 0x20)\n      add\n      0x00\n      swap1\n      swap2\n      swap1\n      swap2\n      swap1\n      swap2\n      0x0100\n      exp\n      dup2\n      sload\n      dup2\n      0xffffffffffffffffffffffffffffffffffffffff\n      mul\n      not\n      and\n      swap1\n      dup4\n      0xffffffffffffffffffffffffffffffffffffffff\n      and\n      mul\n      or\n      swap1\n      sstore\n      pop\n        /* \"contracts/MyStore.sol\":2221:2320  if (!alreadyExist)... */\n    tag_139:\n        /* \"contracts/MyStore.sol\":1935:2327  {... */\n      pop\n        /* \"contracts/MyStore.sol\":1861:2327  function addClientToHistory(address _clientAddress, uint _prodId) private {... */\n      pop\n      pop\n      jump\t// out\n    tag_75:\n      dup3\n      dup1\n      sload\n      tag_141\n      swap1\n      tag_142\n      jump\t// in\n    tag_141:\n      swap1\n      0x00\n      mstore\n      keccak256(0x00, 0x20)\n      swap1\n      0x1f\n      add\n      0x20\n      swap1\n      div\n      dup2\n      add\n      swap3\n      dup3\n      tag_144\n      jumpi\n      0x00\n      dup6\n      sstore\n      jump(tag_143)\n    tag_144:\n      dup3\n      0x1f\n      lt\n      tag_145\n      jumpi\n      dup1\n      calldataload\n      not(0xff)\n      and\n      dup4\n      dup1\n      add\n      or\n      dup6\n      sstore\n      jump(tag_143)\n    tag_145:\n      dup3\n      dup1\n      add\n      0x01\n      add\n      dup6\n      sstore\n      dup3\n      iszero\n      tag_143\n      jumpi\n      swap2\n      dup3\n      add\n    tag_146:\n      dup3\n      dup2\n      gt\n      iszero\n      tag_147\n      jumpi\n      dup3\n      calldataload\n      dup3\n      sstore\n      swap2\n      0x20\n      add\n      swap2\n      swap1\n      0x01\n      add\n      swap1\n      jump(tag_146)\n    tag_147:\n    tag_143:\n      pop\n      swap1\n      pop\n      tag_148\n      swap2\n      swap1\n      tag_149\n      jump\t// in\n    tag_148:\n      pop\n      swap1\n      jump\t// out\n    tag_149:\n    tag_150:\n      dup1\n      dup3\n      gt\n      iszero\n      tag_151\n      jumpi\n      0x00\n      dup2\n      0x00\n      swap1\n      sstore\n      pop\n      0x01\n      add\n      jump(tag_150)\n    tag_151:\n      pop\n      swap1\n      jump\t// out\n        /* \"#utility.yul\":7:133   */\n    tag_152:\n        /* \"#utility.yul\":44:51   */\n      0x00\n        /* \"#utility.yul\":84:126   */\n      0xffffffffffffffffffffffffffffffffffffffff\n        /* \"#utility.yul\":77:82   */\n      dup3\n        /* \"#utility.yul\":73:127   */\n      and\n        /* \"#utility.yul\":62:127   */\n      swap1\n      pop\n        /* \"#utility.yul\":7:133   */\n      swap2\n      swap1\n      pop\n      jump\t// out\n        /* \"#utility.yul\":139:235   */\n    tag_153:\n        /* \"#utility.yul\":176:183   */\n      0x00\n        /* \"#utility.yul\":205:229   */\n      tag_216\n        /* \"#utility.yul\":223:228   */\n      dup3\n        /* \"#utility.yul\":205:229   */\n      tag_152\n      jump\t// in\n    tag_216:\n        /* \"#utility.yul\":194:229   */\n      swap1\n      pop\n        /* \"#utility.yul\":139:235   */\n      swap2\n      swap1\n      pop\n      jump\t// out\n        /* \"#utility.yul\":241:359   */\n    tag_154:\n        /* \"#utility.yul\":328:352   */\n      tag_218\n        /* \"#utility.yul\":346:351   */\n      dup2\n        /* \"#utility.yul\":328:352   */\n      tag_153\n      jump\t// in\n    tag_218:\n        /* \"#utility.yul\":323:326   */\n      dup3\n        /* \"#utility.yul\":316:353   */\n      mstore\n        /* \"#utility.yul\":241:359   */\n      pop\n      pop\n      jump\t// out\n        /* \"#utility.yul\":365:587   */\n    tag_12:\n        /* \"#utility.yul\":458:462   */\n      0x00\n        /* \"#utility.yul\":496:498   */\n      0x20\n        /* \"#utility.yul\":485:494   */\n      dup3\n        /* \"#utility.yul\":481:499   */\n      add\n        /* \"#utility.yul\":473:499   */\n      swap1\n      pop\n        /* \"#utility.yul\":509:580   */\n      tag_220\n        /* \"#utility.yul\":577:578   */\n      0x00\n        /* \"#utility.yul\":566:575   */\n      dup4\n        /* \"#utility.yul\":562:579   */\n      add\n        /* \"#utility.yul\":553:559   */\n      dup5\n        /* \"#utility.yul\":509:580   */\n      tag_154\n      jump\t// in\n    tag_220:\n        /* \"#utility.yul\":365:587   */\n      swap3\n      swap2\n      pop\n      pop\n      jump\t// out\n        /* \"#utility.yul\":593:717   */\n    tag_155:\n        /* \"#utility.yul\":670:676   */\n      0x00\n        /* \"#utility.yul\":704:709   */\n      dup2\n        /* \"#utility.yul\":698:710   */\n      mload\n        /* \"#utility.yul\":688:710   */\n      swap1\n      pop\n        /* \"#utility.yul\":593:717   */\n      swap2\n      swap1\n      pop\n      jump\t// out\n        /* \"#utility.yul\":723:917   */\n    tag_156:\n        /* \"#utility.yul\":832:843   */\n      0x00\n        /* \"#utility.yul\":866:872   */\n      dup3\n        /* \"#utility.yul\":861:864   */\n      dup3\n        /* \"#utility.yul\":854:873   */\n      mstore\n        /* \"#utility.yul\":906:910   */\n      0x20\n        /* \"#utility.yul\":901:904   */\n      dup3\n        /* \"#utility.yul\":897:911   */\n      add\n        /* \"#utility.yul\":882:911   */\n      swap1\n      pop\n        /* \"#utility.yul\":723:917   */\n      swap3\n      swap2\n      pop\n      pop\n      jump\t// out\n        /* \"#utility.yul\":923:1065   */\n    tag_157:\n        /* \"#utility.yul\":1000:1004   */\n      0x00\n        /* \"#utility.yul\":1023:1026   */\n      dup2\n        /* \"#utility.yul\":1015:1026   */\n      swap1\n      pop\n        /* \"#utility.yul\":1053:1057   */\n      0x20\n        /* \"#utility.yul\":1048:1051   */\n      dup3\n        /* \"#utility.yul\":1044:1058   */\n      add\n        /* \"#utility.yul\":1036:1058   */\n      swap1\n      pop\n        /* \"#utility.yul\":923:1065   */\n      swap2\n      swap1\n      pop\n      jump\t// out\n        /* \"#utility.yul\":1071:1170   */\n    tag_158:\n        /* \"#utility.yul\":1123:1129   */\n      0x00\n        /* \"#utility.yul\":1157:1162   */\n      dup2\n        /* \"#utility.yul\":1151:1163   */\n      mload\n        /* \"#utility.yul\":1141:1163   */\n      swap1\n      pop\n        /* \"#utility.yul\":1071:1170   */\n      swap2\n      swap1\n      pop\n      jump\t// out\n        /* \"#utility.yul\":1176:1335   */\n    tag_159:\n        /* \"#utility.yul\":1250:1261   */\n      0x00\n        /* \"#utility.yul\":1284:1290   */\n      dup3\n        /* \"#utility.yul\":1279:1282   */\n      dup3\n        /* \"#utility.yul\":1272:1291   */\n      mstore\n        /* \"#utility.yul\":1324:1328   */\n      0x20\n        /* \"#utility.yul\":1319:1322   */\n      dup3\n        /* \"#utility.yul\":1315:1329   */\n      add\n        /* \"#utility.yul\":1300:1329   */\n      swap1\n      pop\n        /* \"#utility.yul\":1176:1335   */\n      swap3\n      swap2\n      pop\n      pop\n      jump\t// out\n        /* \"#utility.yul\":1341:1648   */\n    tag_160:\n        /* \"#utility.yul\":1409:1410   */\n      0x00\n        /* \"#utility.yul\":1419:1532   */\n    tag_227:\n        /* \"#utility.yul\":1433:1439   */\n      dup4\n        /* \"#utility.yul\":1430:1431   */\n      dup2\n        /* \"#utility.yul\":1427:1440   */\n      lt\n        /* \"#utility.yul\":1419:1532   */\n      iszero\n      tag_229\n      jumpi\n        /* \"#utility.yul\":1518:1519   */\n      dup1\n        /* \"#utility.yul\":1513:1516   */\n      dup3\n        /* \"#utility.yul\":1509:1520   */\n      add\n        /* \"#utility.yul\":1503:1521   */\n      mload\n        /* \"#utility.yul\":1499:1500   */\n      dup2\n        /* \"#utility.yul\":1494:1497   */\n      dup5\n        /* \"#utility.yul\":1490:1501   */\n      add\n        /* \"#utility.yul\":1483:1522   */\n      mstore\n        /* \"#utility.yul\":1455:1457   */\n      0x20\n        /* \"#utility.yul\":1452:1453   */\n      dup2\n        /* \"#utility.yul\":1448:1458   */\n      add\n        /* \"#utility.yul\":1443:1458   */\n      swap1\n      pop\n        /* \"#utility.yul\":1419:1532   */\n      jump(tag_227)\n    tag_229:\n        /* \"#utility.yul\":1550:1556   */\n      dup4\n        /* \"#utility.yul\":1547:1548   */\n      dup2\n        /* \"#utility.yul\":1544:1557   */\n      gt\n        /* \"#utility.yul\":1541:1642   */\n      iszero\n      tag_230\n      jumpi\n        /* \"#utility.yul\":1630:1631   */\n      0x00\n        /* \"#utility.yul\":1621:1627   */\n      dup5\n        /* \"#utility.yul\":1616:1619   */\n      dup5\n        /* \"#utility.yul\":1612:1628   */\n      add\n        /* \"#utility.yul\":1605:1632   */\n      mstore\n        /* \"#utility.yul\":1541:1642   */\n    tag_230:\n        /* \"#utility.yul\":1390:1648   */\n      pop\n        /* \"#utility.yul\":1341:1648   */\n      pop\n      pop\n      pop\n      jump\t// out\n        /* \"#utility.yul\":1654:1756   */\n    tag_161:\n        /* \"#utility.yul\":1695:1701   */\n      0x00\n        /* \"#utility.yul\":1746:1748   */\n      0x1f\n        /* \"#utility.yul\":1742:1749   */\n      not\n        /* \"#utility.yul\":1737:1739   */\n      0x1f\n        /* \"#utility.yul\":1730:1735   */\n      dup4\n        /* \"#utility.yul\":1726:1740   */\n      add\n        /* \"#utility.yul\":1722:1750   */\n      and\n        /* \"#utility.yul\":1712:1750   */\n      swap1\n      pop\n        /* \"#utility.yul\":1654:1756   */\n      swap2\n      swap1\n      pop\n      jump\t// out\n        /* \"#utility.yul\":1762:2106   */\n    tag_162:\n        /* \"#utility.yul\":1840:1843   */\n      0x00\n        /* \"#utility.yul\":1868:1907   */\n      tag_233\n        /* \"#utility.yul\":1901:1906   */\n      dup3\n        /* \"#utility.yul\":1868:1907   */\n      tag_158\n      jump\t// in\n    tag_233:\n        /* \"#utility.yul\":1923:1984   */\n      tag_234\n        /* \"#utility.yul\":1977:1983   */\n      dup2\n        /* \"#utility.yul\":1972:1975   */\n      dup6\n        /* \"#utility.yul\":1923:1984   */\n      tag_159\n      jump\t// in\n    tag_234:\n        /* \"#utility.yul\":1916:1984   */\n      swap4\n      pop\n        /* \"#utility.yul\":1993:2045   */\n      tag_235\n        /* \"#utility.yul\":2038:2044   */\n      dup2\n        /* \"#utility.yul\":2033:2036   */\n      dup6\n        /* \"#utility.yul\":2026:2030   */\n      0x20\n        /* \"#utility.yul\":2019:2024   */\n      dup7\n        /* \"#utility.yul\":2015:2031   */\n      add\n        /* \"#utility.yul\":1993:2045   */\n      tag_160\n      jump\t// in\n    tag_235:\n        /* \"#utility.yul\":2070:2099   */\n      tag_236\n        /* \"#utility.yul\":2092:2098   */\n      dup2\n        /* \"#utility.yul\":2070:2099   */\n      tag_161\n      jump\t// in\n    tag_236:\n        /* \"#utility.yul\":2065:2068   */\n      dup5\n        /* \"#utility.yul\":2061:2100   */\n      add\n        /* \"#utility.yul\":2054:2100   */\n      swap2\n      pop\n        /* \"#utility.yul\":1844:2106   */\n      pop\n        /* \"#utility.yul\":1762:2106   */\n      swap3\n      swap2\n      pop\n      pop\n      jump\t// out\n        /* \"#utility.yul\":2112:2308   */\n    tag_163:\n        /* \"#utility.yul\":2201:2211   */\n      0x00\n        /* \"#utility.yul\":2236:2302   */\n      tag_238\n        /* \"#utility.yul\":2298:2301   */\n      dup4\n        /* \"#utility.yul\":2290:2296   */\n      dup4\n        /* \"#utility.yul\":2236:2302   */\n      tag_162\n      jump\t// in\n    tag_238:\n        /* \"#utility.yul\":2222:2302   */\n      swap1\n      pop\n        /* \"#utility.yul\":2112:2308   */\n      swap3\n      swap2\n      pop\n      pop\n      jump\t// out\n        /* \"#utility.yul\":2314:2437   */\n    tag_164:\n        /* \"#utility.yul\":2394:2398   */\n      0x00\n        /* \"#utility.yul\":2426:2430   */\n      0x20\n        /* \"#utility.yul\":2421:2424   */\n      dup3\n        /* \"#utility.yul\":2417:2431   */\n      add\n        /* \"#utility.yul\":2409:2431   */\n      swap1\n      pop\n        /* \"#utility.yul\":2314:2437   */\n      swap2\n      swap1\n      pop\n      jump\t// out\n        /* \"#utility.yul\":2471:3462   */\n    tag_165:\n        /* \"#utility.yul\":2610:2613   */\n      0x00\n        /* \"#utility.yul\":2639:2703   */\n      tag_241\n        /* \"#utility.yul\":2697:2702   */\n      dup3\n        /* \"#utility.yul\":2639:2703   */\n      tag_155\n      jump\t// in\n    tag_241:\n        /* \"#utility.yul\":2719:2815   */\n      tag_242\n        /* \"#utility.yul\":2808:2814   */\n      dup2\n        /* \"#utility.yul\":2803:2806   */\n      dup6\n        /* \"#utility.yul\":2719:2815   */\n      tag_156\n      jump\t// in\n    tag_242:\n        /* \"#utility.yul\":2712:2815   */\n      swap4\n      pop\n        /* \"#utility.yul\":2841:2844   */\n      dup4\n        /* \"#utility.yul\":2886:2890   */\n      0x20\n        /* \"#utility.yul\":2878:2884   */\n      dup3\n        /* \"#utility.yul\":2874:2891   */\n      mul\n        /* \"#utility.yul\":2869:2872   */\n      dup6\n        /* \"#utility.yul\":2865:2892   */\n      add\n        /* \"#utility.yul\":2916:2982   */\n      tag_243\n        /* \"#utility.yul\":2976:2981   */\n      dup6\n        /* \"#utility.yul\":2916:2982   */\n      tag_157\n      jump\t// in\n    tag_243:\n        /* \"#utility.yul\":3005:3012   */\n      dup1\n        /* \"#utility.yul\":3036:3037   */\n      0x00\n        /* \"#utility.yul\":3021:3417   */\n    tag_244:\n        /* \"#utility.yul\":3046:3052   */\n      dup6\n        /* \"#utility.yul\":3043:3044   */\n      dup2\n        /* \"#utility.yul\":3040:3053   */\n      lt\n        /* \"#utility.yul\":3021:3417   */\n      iszero\n      tag_246\n      jumpi\n        /* \"#utility.yul\":3117:3126   */\n      dup5\n        /* \"#utility.yul\":3111:3115   */\n      dup5\n        /* \"#utility.yul\":3107:3127   */\n      sub\n        /* \"#utility.yul\":3102:3105   */\n      dup10\n        /* \"#utility.yul\":3095:3128   */\n      mstore\n        /* \"#utility.yul\":3168:3174   */\n      dup2\n        /* \"#utility.yul\":3162:3175   */\n      mload\n        /* \"#utility.yul\":3196:3280   */\n      tag_247\n        /* \"#utility.yul\":3275:3279   */\n      dup6\n        /* \"#utility.yul\":3260:3273   */\n      dup3\n        /* \"#utility.yul\":3196:3280   */\n      tag_163\n      jump\t// in\n    tag_247:\n        /* \"#utility.yul\":3188:3280   */\n      swap5\n      pop\n        /* \"#utility.yul\":3303:3373   */\n      tag_248\n        /* \"#utility.yul\":3366:3372   */\n      dup4\n        /* \"#utility.yul\":3303:3373   */\n      tag_164\n      jump\t// in\n    tag_248:\n        /* \"#utility.yul\":3293:3373   */\n      swap3\n      pop\n        /* \"#utility.yul\":3402:3406   */\n      0x20\n        /* \"#utility.yul\":3397:3400   */\n      dup11\n        /* \"#utility.yul\":3393:3407   */\n      add\n        /* \"#utility.yul\":3386:3407   */\n      swap10\n      pop\n        /* \"#utility.yul\":3081:3417   */\n      pop\n        /* \"#utility.yul\":3068:3069   */\n      0x01\n        /* \"#utility.yul\":3065:3066   */\n      dup2\n        /* \"#utility.yul\":3061:3070   */\n      add\n        /* \"#utility.yul\":3056:3070   */\n      swap1\n      pop\n        /* \"#utility.yul\":3021:3417   */\n      jump(tag_244)\n    tag_246:\n        /* \"#utility.yul\":3025:3039   */\n      pop\n        /* \"#utility.yul\":3433:3437   */\n      dup3\n        /* \"#utility.yul\":3426:3437   */\n      swap8\n      pop\n        /* \"#utility.yul\":3453:3456   */\n      dup8\n        /* \"#utility.yul\":3446:3456   */\n      swap6\n      pop\n        /* \"#utility.yul\":2615:3462   */\n      pop\n      pop\n      pop\n      pop\n      pop\n        /* \"#utility.yul\":2471:3462   */\n      swap3\n      swap2\n      pop\n      pop\n      jump\t// out\n        /* \"#utility.yul\":3468:3881   */\n    tag_16:\n        /* \"#utility.yul\":3631:3635   */\n      0x00\n        /* \"#utility.yul\":3669:3671   */\n      0x20\n        /* \"#utility.yul\":3658:3667   */\n      dup3\n        /* \"#utility.yul\":3654:3672   */\n      add\n        /* \"#utility.yul\":3646:3672   */\n      swap1\n      pop\n        /* \"#utility.yul\":3718:3727   */\n      dup2\n        /* \"#utility.yul\":3712:3716   */\n      dup2\n        /* \"#utility.yul\":3708:3728   */\n      sub\n        /* \"#utility.yul\":3704:3705   */\n      0x00\n        /* \"#utility.yul\":3693:3702   */\n      dup4\n        /* \"#utility.yul\":3689:3706   */\n      add\n        /* \"#utility.yul\":3682:3729   */\n      mstore\n        /* \"#utility.yul\":3746:3874   */\n      tag_250\n        /* \"#utility.yul\":3869:3873   */\n      dup2\n        /* \"#utility.yul\":3860:3866   */\n      dup5\n        /* \"#utility.yul\":3746:3874   */\n      tag_165\n      jump\t// in\n    tag_250:\n        /* \"#utility.yul\":3738:3874   */\n      swap1\n      pop\n        /* \"#utility.yul\":3468:3881   */\n      swap3\n      swap2\n      pop\n      pop\n      jump\t// out\n        /* \"#utility.yul\":3968:4085   */\n    tag_167:\n        /* \"#utility.yul\":4077:4078   */\n      0x00\n        /* \"#utility.yul\":4074:4075   */\n      dup1\n        /* \"#utility.yul\":4067:4079   */\n      revert\n        /* \"#utility.yul\":4091:4208   */\n    tag_168:\n        /* \"#utility.yul\":4200:4201   */\n      0x00\n        /* \"#utility.yul\":4197:4198   */\n      dup1\n        /* \"#utility.yul\":4190:4202   */\n      revert\n        /* \"#utility.yul\":4214:4291   */\n    tag_169:\n        /* \"#utility.yul\":4251:4258   */\n      0x00\n        /* \"#utility.yul\":4280:4285   */\n      dup2\n        /* \"#utility.yul\":4269:4285   */\n      swap1\n      pop\n        /* \"#utility.yul\":4214:4291   */\n      swap2\n      swap1\n      pop\n      jump\t// out\n        /* \"#utility.yul\":4297:4419   */\n    tag_170:\n        /* \"#utility.yul\":4370:4394   */\n      tag_256\n        /* \"#utility.yul\":4388:4393   */\n      dup2\n        /* \"#utility.yul\":4370:4394   */\n      tag_169\n      jump\t// in\n    tag_256:\n        /* \"#utility.yul\":4363:4368   */\n      dup2\n        /* \"#utility.yul\":4360:4395   */\n      eq\n        /* \"#utility.yul\":4350:4413   */\n      tag_257\n      jumpi\n        /* \"#utility.yul\":4409:4410   */\n      0x00\n        /* \"#utility.yul\":4406:4407   */\n      dup1\n        /* \"#utility.yul\":4399:4411   */\n      revert\n        /* \"#utility.yul\":4350:4413   */\n    tag_257:\n        /* \"#utility.yul\":4297:4419   */\n      pop\n      jump\t// out\n        /* \"#utility.yul\":4425:4564   */\n    tag_171:\n        /* \"#utility.yul\":4471:4476   */\n      0x00\n        /* \"#utility.yul\":4509:4515   */\n      dup2\n        /* \"#utility.yul\":4496:4516   */\n      calldataload\n        /* \"#utility.yul\":4487:4516   */\n      swap1\n      pop\n        /* \"#utility.yul\":4525:4558   */\n      tag_259\n        /* \"#utility.yul\":4552:4557   */\n      dup2\n        /* \"#utility.yul\":4525:4558   */\n      tag_170\n      jump\t// in\n    tag_259:\n        /* \"#utility.yul\":4425:4564   */\n      swap3\n      swap2\n      pop\n      pop\n      jump\t// out\n        /* \"#utility.yul\":4570:4899   */\n    tag_19:\n        /* \"#utility.yul\":4629:4635   */\n      0x00\n        /* \"#utility.yul\":4678:4680   */\n      0x20\n        /* \"#utility.yul\":4666:4675   */\n      dup3\n        /* \"#utility.yul\":4657:4664   */\n      dup5\n        /* \"#utility.yul\":4653:4676   */\n      sub\n        /* \"#utility.yul\":4649:4681   */\n      slt\n        /* \"#utility.yul\":4646:4765   */\n      iszero\n      tag_261\n      jumpi\n        /* \"#utility.yul\":4684:4763   */\n      tag_262\n      tag_167\n      jump\t// in\n    tag_262:\n        /* \"#utility.yul\":4646:4765   */\n    tag_261:\n        /* \"#utility.yul\":4804:4805   */\n      0x00\n        /* \"#utility.yul\":4829:4882   */\n      tag_263\n        /* \"#utility.yul\":4874:4881   */\n      dup5\n        /* \"#utility.yul\":4865:4871   */\n      dup3\n        /* \"#utility.yul\":4854:4863   */\n      dup6\n        /* \"#utility.yul\":4850:4872   */\n      add\n        /* \"#utility.yul\":4829:4882   */\n      tag_171\n      jump\t// in\n    tag_263:\n        /* \"#utility.yul\":4819:4882   */\n      swap2\n      pop\n        /* \"#utility.yul\":4775:4892   */\n      pop\n        /* \"#utility.yul\":4570:4899   */\n      swap3\n      swap2\n      pop\n      pop\n      jump\t// out\n        /* \"#utility.yul\":4905:5019   */\n    tag_172:\n        /* \"#utility.yul\":4972:4978   */\n      0x00\n        /* \"#utility.yul\":5006:5011   */\n      dup2\n        /* \"#utility.yul\":5000:5012   */\n      mload\n        /* \"#utility.yul\":4990:5012   */\n      swap1\n      pop\n        /* \"#utility.yul\":4905:5019   */\n      swap2\n      swap1\n      pop\n      jump\t// out\n        /* \"#utility.yul\":5025:5209   */\n    tag_173:\n        /* \"#utility.yul\":5124:5135   */\n      0x00\n        /* \"#utility.yul\":5158:5164   */\n      dup3\n        /* \"#utility.yul\":5153:5156   */\n      dup3\n        /* \"#utility.yul\":5146:5165   */\n      mstore\n        /* \"#utility.yul\":5198:5202   */\n      0x20\n        /* \"#utility.yul\":5193:5196   */\n      dup3\n        /* \"#utility.yul\":5189:5203   */\n      add\n        /* \"#utility.yul\":5174:5203   */\n      swap1\n      pop\n        /* \"#utility.yul\":5025:5209   */\n      swap3\n      swap2\n      pop\n      pop\n      jump\t// out\n        /* \"#utility.yul\":5215:5347   */\n    tag_174:\n        /* \"#utility.yul\":5282:5286   */\n      0x00\n        /* \"#utility.yul\":5305:5308   */\n      dup2\n        /* \"#utility.yul\":5297:5308   */\n      swap1\n      pop\n        /* \"#utility.yul\":5335:5339   */\n      0x20\n        /* \"#utility.yul\":5330:5333   */\n      dup3\n        /* \"#utility.yul\":5326:5340   */\n      add\n        /* \"#utility.yul\":5318:5340   */\n      swap1\n      pop\n        /* \"#utility.yul\":5215:5347   */\n      swap2\n      swap1\n      pop\n      jump\t// out\n        /* \"#utility.yul\":5353:5461   */\n    tag_175:\n        /* \"#utility.yul\":5430:5454   */\n      tag_268\n        /* \"#utility.yul\":5448:5453   */\n      dup2\n        /* \"#utility.yul\":5430:5454   */\n      tag_153\n      jump\t// in\n    tag_268:\n        /* \"#utility.yul\":5425:5428   */\n      dup3\n        /* \"#utility.yul\":5418:5455   */\n      mstore\n        /* \"#utility.yul\":5353:5461   */\n      pop\n      pop\n      jump\t// out\n        /* \"#utility.yul\":5467:5646   */\n    tag_176:\n        /* \"#utility.yul\":5536:5546   */\n      0x00\n        /* \"#utility.yul\":5557:5603   */\n      tag_270\n        /* \"#utility.yul\":5599:5602   */\n      dup4\n        /* \"#utility.yul\":5591:5597   */\n      dup4\n        /* \"#utility.yul\":5557:5603   */\n      tag_175\n      jump\t// in\n    tag_270:\n        /* \"#utility.yul\":5635:5639   */\n      0x20\n        /* \"#utility.yul\":5630:5633   */\n      dup4\n        /* \"#utility.yul\":5626:5640   */\n      add\n        /* \"#utility.yul\":5612:5640   */\n      swap1\n      pop\n        /* \"#utility.yul\":5467:5646   */\n      swap3\n      swap2\n      pop\n      pop\n      jump\t// out\n        /* \"#utility.yul\":5652:5765   */\n    tag_177:\n        /* \"#utility.yul\":5722:5726   */\n      0x00\n        /* \"#utility.yul\":5754:5758   */\n      0x20\n        /* \"#utility.yul\":5749:5752   */\n      dup3\n        /* \"#utility.yul\":5745:5759   */\n      add\n        /* \"#utility.yul\":5737:5759   */\n      swap1\n      pop\n        /* \"#utility.yul\":5652:5765   */\n      swap2\n      swap1\n      pop\n      jump\t// out\n        /* \"#utility.yul\":5801:6533   */\n    tag_178:\n        /* \"#utility.yul\":5920:5923   */\n      0x00\n        /* \"#utility.yul\":5949:6003   */\n      tag_273\n        /* \"#utility.yul\":5997:6002   */\n      dup3\n        /* \"#utility.yul\":5949:6003   */\n      tag_172\n      jump\t// in\n    tag_273:\n        /* \"#utility.yul\":6019:6105   */\n      tag_274\n        /* \"#utility.yul\":6098:6104   */\n      dup2\n        /* \"#utility.yul\":6093:6096   */\n      dup6\n        /* \"#utility.yul\":6019:6105   */\n      tag_173\n      jump\t// in\n    tag_274:\n        /* \"#utility.yul\":6012:6105   */\n      swap4\n      pop\n        /* \"#utility.yul\":6129:6185   */\n      tag_275\n        /* \"#utility.yul\":6179:6184   */\n      dup4\n        /* \"#utility.yul\":6129:6185   */\n      tag_174\n      jump\t// in\n    tag_275:\n        /* \"#utility.yul\":6208:6215   */\n      dup1\n        /* \"#utility.yul\":6239:6240   */\n      0x00\n        /* \"#utility.yul\":6224:6508   */\n    tag_276:\n        /* \"#utility.yul\":6249:6255   */\n      dup4\n        /* \"#utility.yul\":6246:6247   */\n      dup2\n        /* \"#utility.yul\":6243:6256   */\n      lt\n        /* \"#utility.yul\":6224:6508   */\n      iszero\n      tag_278\n      jumpi\n        /* \"#utility.yul\":6325:6331   */\n      dup2\n        /* \"#utility.yul\":6319:6332   */\n      mload\n        /* \"#utility.yul\":6352:6415   */\n      tag_279\n        /* \"#utility.yul\":6411:6414   */\n      dup9\n        /* \"#utility.yul\":6396:6409   */\n      dup3\n        /* \"#utility.yul\":6352:6415   */\n      tag_176\n      jump\t// in\n    tag_279:\n        /* \"#utility.yul\":6345:6415   */\n      swap8\n      pop\n        /* \"#utility.yul\":6438:6498   */\n      tag_280\n        /* \"#utility.yul\":6491:6497   */\n      dup4\n        /* \"#utility.yul\":6438:6498   */\n      tag_177\n      jump\t// in\n    tag_280:\n        /* \"#utility.yul\":6428:6498   */\n      swap3\n      pop\n        /* \"#utility.yul\":6284:6508   */\n      pop\n        /* \"#utility.yul\":6271:6272   */\n      0x01\n        /* \"#utility.yul\":6268:6269   */\n      dup2\n        /* \"#utility.yul\":6264:6273   */\n      add\n        /* \"#utility.yul\":6259:6273   */\n      swap1\n      pop\n        /* \"#utility.yul\":6224:6508   */\n      jump(tag_276)\n    tag_278:\n        /* \"#utility.yul\":6228:6242   */\n      pop\n        /* \"#utility.yul\":6524:6527   */\n      dup6\n        /* \"#utility.yul\":6517:6527   */\n      swap4\n      pop\n        /* \"#utility.yul\":5925:6533   */\n      pop\n      pop\n      pop\n        /* \"#utility.yul\":5801:6533   */\n      swap3\n      swap2\n      pop\n      pop\n      jump\t// out\n        /* \"#utility.yul\":6539:6912   */\n    tag_22:\n        /* \"#utility.yul\":6682:6686   */\n      0x00\n        /* \"#utility.yul\":6720:6722   */\n      0x20\n        /* \"#utility.yul\":6709:6718   */\n      dup3\n        /* \"#utility.yul\":6705:6723   */\n      add\n        /* \"#utility.yul\":6697:6723   */\n      swap1\n      pop\n        /* \"#utility.yul\":6769:6778   */\n      dup2\n        /* \"#utility.yul\":6763:6767   */\n      dup2\n        /* \"#utility.yul\":6759:6779   */\n      sub\n        /* \"#utility.yul\":6755:6756   */\n      0x00\n        /* \"#utility.yul\":6744:6753   */\n      dup4\n        /* \"#utility.yul\":6740:6757   */\n      add\n        /* \"#utility.yul\":6733:6780   */\n      mstore\n        /* \"#utility.yul\":6797:6905   */\n      tag_282\n        /* \"#utility.yul\":6900:6904   */\n      dup2\n        /* \"#utility.yul\":6891:6897   */\n      dup5\n        /* \"#utility.yul\":6797:6905   */\n      tag_178\n      jump\t// in\n    tag_282:\n        /* \"#utility.yul\":6789:6905   */\n      swap1\n      pop\n        /* \"#utility.yul\":6539:6912   */\n      swap3\n      swap2\n      pop\n      pop\n      jump\t// out\n        /* \"#utility.yul\":6918:7035   */\n    tag_179:\n        /* \"#utility.yul\":7027:7028   */\n      0x00\n        /* \"#utility.yul\":7024:7025   */\n      dup1\n        /* \"#utility.yul\":7017:7029   */\n      revert\n        /* \"#utility.yul\":7041:7158   */\n    tag_180:\n        /* \"#utility.yul\":7150:7151   */\n      0x00\n        /* \"#utility.yul\":7147:7148   */\n      dup1\n        /* \"#utility.yul\":7140:7152   */\n      revert\n        /* \"#utility.yul\":7164:7281   */\n    tag_181:\n        /* \"#utility.yul\":7273:7274   */\n      0x00\n        /* \"#utility.yul\":7270:7271   */\n      dup1\n        /* \"#utility.yul\":7263:7275   */\n      revert\n        /* \"#utility.yul\":7301:7854   */\n    tag_182:\n        /* \"#utility.yul\":7359:7367   */\n      0x00\n        /* \"#utility.yul\":7369:7375   */\n      dup1\n        /* \"#utility.yul\":7419:7422   */\n      dup4\n        /* \"#utility.yul\":7412:7416   */\n      0x1f\n        /* \"#utility.yul\":7404:7410   */\n      dup5\n        /* \"#utility.yul\":7400:7417   */\n      add\n        /* \"#utility.yul\":7396:7423   */\n      slt\n        /* \"#utility.yul\":7386:7508   */\n      tag_287\n      jumpi\n        /* \"#utility.yul\":7427:7506   */\n      tag_288\n      tag_179\n      jump\t// in\n    tag_288:\n        /* \"#utility.yul\":7386:7508   */\n    tag_287:\n        /* \"#utility.yul\":7540:7546   */\n      dup3\n        /* \"#utility.yul\":7527:7547   */\n      calldataload\n        /* \"#utility.yul\":7517:7547   */\n      swap1\n      pop\n        /* \"#utility.yul\":7570:7588   */\n      0xffffffffffffffff\n        /* \"#utility.yul\":7562:7568   */\n      dup2\n        /* \"#utility.yul\":7559:7589   */\n      gt\n        /* \"#utility.yul\":7556:7673   */\n      iszero\n      tag_289\n      jumpi\n        /* \"#utility.yul\":7592:7671   */\n      tag_290\n      tag_180\n      jump\t// in\n    tag_290:\n        /* \"#utility.yul\":7556:7673   */\n    tag_289:\n        /* \"#utility.yul\":7706:7710   */\n      0x20\n        /* \"#utility.yul\":7698:7704   */\n      dup4\n        /* \"#utility.yul\":7694:7711   */\n      add\n        /* \"#utility.yul\":7682:7711   */\n      swap2\n      pop\n        /* \"#utility.yul\":7760:7763   */\n      dup4\n        /* \"#utility.yul\":7752:7756   */\n      0x01\n        /* \"#utility.yul\":7744:7750   */\n      dup3\n        /* \"#utility.yul\":7740:7757   */\n      mul\n        /* \"#utility.yul\":7730:7738   */\n      dup4\n        /* \"#utility.yul\":7726:7758   */\n      add\n        /* \"#utility.yul\":7723:7764   */\n      gt\n        /* \"#utility.yul\":7720:7848   */\n      iszero\n      tag_291\n      jumpi\n        /* \"#utility.yul\":7767:7846   */\n      tag_292\n      tag_181\n      jump\t// in\n    tag_292:\n        /* \"#utility.yul\":7720:7848   */\n    tag_291:\n        /* \"#utility.yul\":7301:7854   */\n      swap3\n      pop\n      swap3\n      swap1\n      pop\n      jump\t// out\n        /* \"#utility.yul\":7860:8534   */\n    tag_25:\n        /* \"#utility.yul\":7940:7946   */\n      0x00\n        /* \"#utility.yul\":7948:7954   */\n      dup1\n        /* \"#utility.yul\":7956:7962   */\n      0x00\n        /* \"#utility.yul\":8005:8007   */\n      0x40\n        /* \"#utility.yul\":7993:8002   */\n      dup5\n        /* \"#utility.yul\":7984:7991   */\n      dup7\n        /* \"#utility.yul\":7980:8003   */\n      sub\n        /* \"#utility.yul\":7976:8008   */\n      slt\n        /* \"#utility.yul\":7973:8092   */\n      iszero\n      tag_294\n      jumpi\n        /* \"#utility.yul\":8011:8090   */\n      tag_295\n      tag_167\n      jump\t// in\n    tag_295:\n        /* \"#utility.yul\":7973:8092   */\n    tag_294:\n        /* \"#utility.yul\":8159:8160   */\n      0x00\n        /* \"#utility.yul\":8148:8157   */\n      dup5\n        /* \"#utility.yul\":8144:8161   */\n      add\n        /* \"#utility.yul\":8131:8162   */\n      calldataload\n        /* \"#utility.yul\":8189:8207   */\n      0xffffffffffffffff\n        /* \"#utility.yul\":8181:8187   */\n      dup2\n        /* \"#utility.yul\":8178:8208   */\n      gt\n        /* \"#utility.yul\":8175:8292   */\n      iszero\n      tag_296\n      jumpi\n        /* \"#utility.yul\":8211:8290   */\n      tag_297\n      tag_168\n      jump\t// in\n    tag_297:\n        /* \"#utility.yul\":8175:8292   */\n    tag_296:\n        /* \"#utility.yul\":8324:8389   */\n      tag_298\n        /* \"#utility.yul\":8381:8388   */\n      dup7\n        /* \"#utility.yul\":8372:8378   */\n      dup3\n        /* \"#utility.yul\":8361:8370   */\n      dup8\n        /* \"#utility.yul\":8357:8379   */\n      add\n        /* \"#utility.yul\":8324:8389   */\n      tag_182\n      jump\t// in\n    tag_298:\n        /* \"#utility.yul\":8306:8389   */\n      swap4\n      pop\n      swap4\n      pop\n        /* \"#utility.yul\":8102:8399   */\n      pop\n        /* \"#utility.yul\":8438:8440   */\n      0x20\n        /* \"#utility.yul\":8464:8517   */\n      tag_299\n        /* \"#utility.yul\":8509:8516   */\n      dup7\n        /* \"#utility.yul\":8500:8506   */\n      dup3\n        /* \"#utility.yul\":8489:8498   */\n      dup8\n        /* \"#utility.yul\":8485:8507   */\n      add\n        /* \"#utility.yul\":8464:8517   */\n      tag_171\n      jump\t// in\n    tag_299:\n        /* \"#utility.yul\":8454:8517   */\n      swap2\n      pop\n        /* \"#utility.yul\":8409:8527   */\n      pop\n        /* \"#utility.yul\":7860:8534   */\n      swap3\n      pop\n      swap3\n      pop\n      swap3\n      jump\t// out\n        /* \"#utility.yul\":8540:9014   */\n    tag_29:\n        /* \"#utility.yul\":8608:8614   */\n      0x00\n        /* \"#utility.yul\":8616:8622   */\n      dup1\n        /* \"#utility.yul\":8665:8667   */\n      0x40\n        /* \"#utility.yul\":8653:8662   */\n      dup4\n        /* \"#utility.yul\":8644:8651   */\n      dup6\n        /* \"#utility.yul\":8640:8663   */\n      sub\n        /* \"#utility.yul\":8636:8668   */\n      slt\n        /* \"#utility.yul\":8633:8752   */\n      iszero\n      tag_301\n      jumpi\n        /* \"#utility.yul\":8671:8750   */\n      tag_302\n      tag_167\n      jump\t// in\n    tag_302:\n        /* \"#utility.yul\":8633:8752   */\n    tag_301:\n        /* \"#utility.yul\":8791:8792   */\n      0x00\n        /* \"#utility.yul\":8816:8869   */\n      tag_303\n        /* \"#utility.yul\":8861:8868   */\n      dup6\n        /* \"#utility.yul\":8852:8858   */\n      dup3\n        /* \"#utility.yul\":8841:8850   */\n      dup7\n        /* \"#utility.yul\":8837:8859   */\n      add\n        /* \"#utility.yul\":8816:8869   */\n      tag_171\n      jump\t// in\n    tag_303:\n        /* \"#utility.yul\":8806:8869   */\n      swap3\n      pop\n        /* \"#utility.yul\":8762:8879   */\n      pop\n        /* \"#utility.yul\":8918:8920   */\n      0x20\n        /* \"#utility.yul\":8944:8997   */\n      tag_304\n        /* \"#utility.yul\":8989:8996   */\n      dup6\n        /* \"#utility.yul\":8980:8986   */\n      dup3\n        /* \"#utility.yul\":8969:8978   */\n      dup7\n        /* \"#utility.yul\":8965:8987   */\n      add\n        /* \"#utility.yul\":8944:8997   */\n      tag_171\n      jump\t// in\n    tag_304:\n        /* \"#utility.yul\":8934:8997   */\n      swap2\n      pop\n        /* \"#utility.yul\":8889:9007   */\n      pop\n        /* \"#utility.yul\":8540:9014   */\n      swap3\n      pop\n      swap3\n      swap1\n      pop\n      jump\t// out\n        /* \"#utility.yul\":9020:9200   */\n    tag_37:\n        /* \"#utility.yul\":9068:9145   */\n      0x4e487b7100000000000000000000000000000000000000000000000000000000\n        /* \"#utility.yul\":9065:9066   */\n      0x00\n        /* \"#utility.yul\":9058:9146   */\n      mstore\n        /* \"#utility.yul\":9165:9169   */\n      0x41\n        /* \"#utility.yul\":9162:9163   */\n      0x04\n        /* \"#utility.yul\":9155:9170   */\n      mstore\n        /* \"#utility.yul\":9189:9193   */\n      0x24\n        /* \"#utility.yul\":9186:9187   */\n      0x00\n        /* \"#utility.yul\":9179:9194   */\n      revert\n        /* \"#utility.yul\":9206:9386   */\n    tag_183:\n        /* \"#utility.yul\":9254:9331   */\n      0x4e487b7100000000000000000000000000000000000000000000000000000000\n        /* \"#utility.yul\":9251:9252   */\n      0x00\n        /* \"#utility.yul\":9244:9332   */\n      mstore\n        /* \"#utility.yul\":9351:9355   */\n      0x11\n        /* \"#utility.yul\":9348:9349   */\n      0x04\n        /* \"#utility.yul\":9341:9356   */\n      mstore\n        /* \"#utility.yul\":9375:9379   */\n      0x24\n        /* \"#utility.yul\":9372:9373   */\n      0x00\n        /* \"#utility.yul\":9365:9380   */\n      revert\n        /* \"#utility.yul\":9392:9697   */\n    tag_44:\n        /* \"#utility.yul\":9432:9435   */\n      0x00\n        /* \"#utility.yul\":9451:9471   */\n      tag_308\n        /* \"#utility.yul\":9469:9470   */\n      dup3\n        /* \"#utility.yul\":9451:9471   */\n      tag_169\n      jump\t// in\n    tag_308:\n        /* \"#utility.yul\":9446:9471   */\n      swap2\n      pop\n        /* \"#utility.yul\":9485:9505   */\n      tag_309\n        /* \"#utility.yul\":9503:9504   */\n      dup4\n        /* \"#utility.yul\":9485:9505   */\n      tag_169\n      jump\t// in\n    tag_309:\n        /* \"#utility.yul\":9480:9505   */\n      swap3\n      pop\n        /* \"#utility.yul\":9639:9640   */\n      dup3\n        /* \"#utility.yul\":9571:9637   */\n      0xffffffffffffffffffffffffffffffffffffffffffffffffffffffffffffffff\n        /* \"#utility.yul\":9567:9641   */\n      sub\n        /* \"#utility.yul\":9564:9565   */\n      dup3\n        /* \"#utility.yul\":9561:9642   */\n      gt\n        /* \"#utility.yul\":9558:9665   */\n      iszero\n      tag_310\n      jumpi\n        /* \"#utility.yul\":9645:9663   */\n      tag_311\n      tag_183\n      jump\t// in\n    tag_311:\n        /* \"#utility.yul\":9558:9665   */\n    tag_310:\n        /* \"#utility.yul\":9689:9690   */\n      dup3\n        /* \"#utility.yul\":9686:9687   */\n      dup3\n        /* \"#utility.yul\":9682:9691   */\n      add\n        /* \"#utility.yul\":9675:9691   */\n      swap1\n      pop\n        /* \"#utility.yul\":9392:9697   */\n      swap3\n      swap2\n      pop\n      pop\n      jump\t// out\n        /* \"#utility.yul\":9703:9851   */\n    tag_184:\n        /* \"#utility.yul\":9805:9816   */\n      0x00\n        /* \"#utility.yul\":9842:9845   */\n      dup2\n        /* \"#utility.yul\":9827:9845   */\n      swap1\n      pop\n        /* \"#utility.yul\":9703:9851   */\n      swap3\n      swap2\n      pop\n      pop\n      jump\t// out\n        /* \"#utility.yul\":9857:10234   */\n    tag_185:\n        /* \"#utility.yul\":9963:9966   */\n      0x00\n        /* \"#utility.yul\":9991:10030   */\n      tag_314\n        /* \"#utility.yul\":10024:10029   */\n      dup3\n        /* \"#utility.yul\":9991:10030   */\n      tag_158\n      jump\t// in\n    tag_314:\n        /* \"#utility.yul\":10046:10135   */\n      tag_315\n        /* \"#utility.yul\":10128:10134   */\n      dup2\n        /* \"#utility.yul\":10123:10126   */\n      dup6\n        /* \"#utility.yul\":10046:10135   */\n      tag_184\n      jump\t// in\n    tag_315:\n        /* \"#utility.yul\":10039:10135   */\n      swap4\n      pop\n        /* \"#utility.yul\":10144:10196   */\n      tag_316\n        /* \"#utility.yul\":10189:10195   */\n      dup2\n        /* \"#utility.yul\":10184:10187   */\n      dup6\n        /* \"#utility.yul\":10177:10181   */\n      0x20\n        /* \"#utility.yul\":10170:10175   */\n      dup7\n        /* \"#utility.yul\":10166:10182   */\n      add\n        /* \"#utility.yul\":10144:10196   */\n      tag_160\n      jump\t// in\n    tag_316:\n        /* \"#utility.yul\":10221:10227   */\n      dup1\n        /* \"#utility.yul\":10216:10219   */\n      dup5\n        /* \"#utility.yul\":10212:10228   */\n      add\n        /* \"#utility.yul\":10205:10228   */\n      swap2\n      pop\n        /* \"#utility.yul\":9967:10234   */\n      pop\n        /* \"#utility.yul\":9857:10234   */\n      swap3\n      swap2\n      pop\n      pop\n      jump\t// out\n        /* \"#utility.yul\":10240:10392   */\n    tag_186:\n        /* \"#utility.yul\":10380:10384   */\n      0x2e20000000000000000000000000000000000000000000000000000000000000\n        /* \"#utility.yul\":10376:10377   */\n      0x00\n        /* \"#utility.yul\":10368:10374   */\n      dup3\n        /* \"#utility.yul\":10364:10378   */\n      add\n        /* \"#utility.yul\":10357:10385   */\n      mstore\n        /* \"#utility.yul\":10240:10392   */\n      pop\n      jump\t// out\n        /* \"#utility.yul\":10398:10798   */\n    tag_187:\n        /* \"#utility.yul\":10558:10561   */\n      0x00\n        /* \"#utility.yul\":10579:10663   */\n      tag_319\n        /* \"#utility.yul\":10661:10662   */\n      0x02\n        /* \"#utility.yul\":10656:10659   */\n      dup4\n        /* \"#utility.yul\":10579:10663   */\n      tag_184\n      jump\t// in\n    tag_319:\n        /* \"#utility.yul\":10572:10663   */\n      swap2\n      pop\n        /* \"#utility.yul\":10672:10765   */\n      tag_320\n        /* \"#utility.yul\":10761:10764   */\n      dup3\n        /* \"#utility.yul\":10672:10765   */\n      tag_186\n      jump\t// in\n    tag_320:\n        /* \"#utility.yul\":10790:10791   */\n      0x02\n        /* \"#utility.yul\":10785:10788   */\n      dup3\n        /* \"#utility.yul\":10781:10792   */\n      add\n        /* \"#utility.yul\":10774:10792   */\n      swap1\n      pop\n        /* \"#utility.yul\":10398:10798   */\n      swap2\n      swap1\n      pop\n      jump\t// out\n        /* \"#utility.yul\":10804:10984   */\n    tag_188:\n        /* \"#utility.yul\":10852:10929   */\n      0x4e487b7100000000000000000000000000000000000000000000000000000000\n        /* \"#utility.yul\":10849:10850   */\n      0x00\n        /* \"#utility.yul\":10842:10930   */\n      mstore\n        /* \"#utility.yul\":10949:10953   */\n      0x22\n        /* \"#utility.yul\":10946:10947   */\n      0x04\n        /* \"#utility.yul\":10939:10954   */\n      mstore\n        /* \"#utility.yul\":10973:10977   */\n      0x24\n        /* \"#utility.yul\":10970:10971   */\n      0x00\n        /* \"#utility.yul\":10963:10978   */\n      revert\n        /* \"#utility.yul\":10990:11310   */\n    tag_142:\n        /* \"#utility.yul\":11034:11040   */\n      0x00\n        /* \"#utility.yul\":11071:11072   */\n      0x02\n        /* \"#utility.yul\":11065:11069   */\n      dup3\n        /* \"#utility.yul\":11061:11073   */\n      div\n        /* \"#utility.yul\":11051:11073   */\n      swap1\n      pop\n        /* \"#utility.yul\":11118:11119   */\n      0x01\n        /* \"#utility.yul\":11112:11116   */\n      dup3\n        /* \"#utility.yul\":11108:11120   */\n      and\n        /* \"#utility.yul\":11139:11157   */\n      dup1\n        /* \"#utility.yul\":11129:11210   */\n      tag_323\n      jumpi\n        /* \"#utility.yul\":11195:11199   */\n      0x7f\n        /* \"#utility.yul\":11187:11193   */\n      dup3\n        /* \"#utility.yul\":11183:11200   */\n      and\n        /* \"#utility.yul\":11173:11200   */\n      swap2\n      pop\n        /* \"#utility.yul\":11129:11210   */\n    tag_323:\n        /* \"#utility.yul\":11257:11259   */\n      0x20\n        /* \"#utility.yul\":11249:11255   */\n      dup3\n        /* \"#utility.yul\":11246:11260   */\n      lt\n        /* \"#utility.yul\":11226:11244   */\n      dup2\n        /* \"#utility.yul\":11223:11261   */\n      eq\n        /* \"#utility.yul\":11220:11304   */\n      iszero\n      tag_324\n      jumpi\n        /* \"#utility.yul\":11276:11294   */\n      tag_325\n      tag_188\n      jump\t// in\n    tag_325:\n        /* \"#utility.yul\":11220:11304   */\n    tag_324:\n        /* \"#utility.yul\":11041:11310   */\n      pop\n        /* \"#utility.yul\":10990:11310   */\n      swap2\n      swap1\n      pop\n      jump\t// out\n        /* \"#utility.yul\":11316:11457   */\n    tag_189:\n        /* \"#utility.yul\":11365:11369   */\n      0x00\n        /* \"#utility.yul\":11388:11391   */\n      dup2\n        /* \"#utility.yul\":11380:11391   */\n      swap1\n      pop\n        /* \"#utility.yul\":11411:11414   */\n      dup2\n        /* \"#utility.yul\":11408:11409   */\n      0x00\n        /* \"#utility.yul\":11401:11415   */\n      mstore\n        /* \"#utility.yul\":11445:11449   */\n      0x20\n        /* \"#utility.yul\":11442:11443   */\n      0x00\n        /* \"#utility.yul\":11432:11450   */\n      keccak256\n        /* \"#utility.yul\":11424:11450   */\n      swap1\n      pop\n        /* \"#utility.yul\":11316:11457   */\n      swap2\n      swap1\n      pop\n      jump\t// out\n        /* \"#utility.yul\":11487:12332   */\n    tag_190:\n        /* \"#utility.yul\":11590:11593   */\n      0x00\n        /* \"#utility.yul\":11627:11632   */\n      dup2\n        /* \"#utility.yul\":11621:11633   */\n      sload\n        /* \"#utility.yul\":11656:11692   */\n      tag_328\n        /* \"#utility.yul\":11682:11691   */\n      dup2\n        /* \"#utility.yul\":11656:11692   */\n      tag_142\n      jump\t// in\n    tag_328:\n        /* \"#utility.yul\":11708:11797   */\n      tag_329\n        /* \"#utility.yul\":11790:11796   */\n      dup2\n        /* \"#utility.yul\":11785:11788   */\n      dup7\n        /* \"#utility.yul\":11708:11797   */\n      tag_184\n      jump\t// in\n    tag_329:\n        /* \"#utility.yul\":11701:11797   */\n      swap5\n      pop\n        /* \"#utility.yul\":11828:11829   */\n      0x01\n        /* \"#utility.yul\":11817:11826   */\n      dup3\n        /* \"#utility.yul\":11813:11830   */\n      and\n        /* \"#utility.yul\":11844:11845   */\n      0x00\n        /* \"#utility.yul\":11839:11976   */\n      dup2\n      eq\n      tag_331\n      jumpi\n        /* \"#utility.yul\":11990:11991   */\n      0x01\n        /* \"#utility.yul\":11985:12326   */\n      dup2\n      eq\n      tag_332\n      jumpi\n        /* \"#utility.yul\":11806:12326   */\n      jump(tag_330)\n        /* \"#utility.yul\":11839:11976   */\n    tag_331:\n        /* \"#utility.yul\":11923:11927   */\n      0xff\n        /* \"#utility.yul\":11919:11928   */\n      not\n        /* \"#utility.yul\":11908:11917   */\n      dup4\n        /* \"#utility.yul\":11904:11929   */\n      and\n        /* \"#utility.yul\":11899:11902   */\n      dup7\n        /* \"#utility.yul\":11892:11930   */\n      mstore\n        /* \"#utility.yul\":11959:11965   */\n      dup2\n        /* \"#utility.yul\":11954:11957   */\n      dup7\n        /* \"#utility.yul\":11950:11966   */\n      add\n        /* \"#utility.yul\":11943:11966   */\n      swap4\n      pop\n        /* \"#utility.yul\":11839:11976   */\n      jump(tag_330)\n        /* \"#utility.yul\":11985:12326   */\n    tag_332:\n        /* \"#utility.yul\":12052:12090   */\n      tag_333\n        /* \"#utility.yul\":12084:12089   */\n      dup6\n        /* \"#utility.yul\":12052:12090   */\n      tag_189\n      jump\t// in\n    tag_333:\n        /* \"#utility.yul\":12112:12113   */\n      0x00\n        /* \"#utility.yul\":12126:12280   */\n    tag_334:\n        /* \"#utility.yul\":12140:12146   */\n      dup4\n        /* \"#utility.yul\":12137:12138   */\n      dup2\n        /* \"#utility.yul\":12134:12147   */\n      lt\n        /* \"#utility.yul\":12126:12280   */\n      iszero\n      tag_336\n      jumpi\n        /* \"#utility.yul\":12214:12221   */\n      dup2\n        /* \"#utility.yul\":12208:12222   */\n      sload\n        /* \"#utility.yul\":12204:12205   */\n      dup2\n        /* \"#utility.yul\":12199:12202   */\n      dup10\n        /* \"#utility.yul\":12195:12206   */\n      add\n        /* \"#utility.yul\":12188:12223   */\n      mstore\n        /* \"#utility.yul\":12264:12265   */\n      0x01\n        /* \"#utility.yul\":12255:12262   */\n      dup3\n        /* \"#utility.yul\":12251:12266   */\n      add\n        /* \"#utility.yul\":12240:12266   */\n      swap2\n      pop\n        /* \"#utility.yul\":12162:12166   */\n      0x20\n        /* \"#utility.yul\":12159:12160   */\n      dup2\n        /* \"#utility.yul\":12155:12167   */\n      add\n        /* \"#utility.yul\":12150:12167   */\n      swap1\n      pop\n        /* \"#utility.yul\":12126:12280   */\n      jump(tag_334)\n    tag_336:\n        /* \"#utility.yul\":12309:12315   */\n      dup4\n        /* \"#utility.yul\":12304:12307   */\n      dup9\n        /* \"#utility.yul\":12300:12316   */\n      add\n        /* \"#utility.yul\":12293:12316   */\n      swap6\n      pop\n        /* \"#utility.yul\":11992:12326   */\n      pop\n      pop\n        /* \"#utility.yul\":11806:12326   */\n    tag_330:\n      pop\n        /* \"#utility.yul\":11594:12332   */\n      pop\n      pop\n        /* \"#utility.yul\":11487:12332   */\n      swap3\n      swap2\n      pop\n      pop\n      jump\t// out\n        /* \"#utility.yul\":12338:12490   */\n    tag_191:\n        /* \"#utility.yul\":12478:12482   */\n      0x3a20000000000000000000000000000000000000000000000000000000000000\n        /* \"#utility.yul\":12474:12475   */\n      0x00\n        /* \"#utility.yul\":12466:12472   */\n      dup3\n        /* \"#utility.yul\":12462:12476   */\n      add\n        /* \"#utility.yul\":12455:12483   */\n      mstore\n        /* \"#utility.yul\":12338:12490   */\n      pop\n      jump\t// out\n        /* \"#utility.yul\":12496:12896   */\n    tag_192:\n        /* \"#utility.yul\":12656:12659   */\n      0x00\n        /* \"#utility.yul\":12677:12761   */\n      tag_339\n        /* \"#utility.yul\":12759:12760   */\n      0x02\n        /* \"#utility.yul\":12754:12757   */\n      dup4\n        /* \"#utility.yul\":12677:12761   */\n      tag_184\n      jump\t// in\n    tag_339:\n        /* \"#utility.yul\":12670:12761   */\n      swap2\n      pop\n        /* \"#utility.yul\":12770:12863   */\n      tag_340\n        /* \"#utility.yul\":12859:12862   */\n      dup3\n        /* \"#utility.yul\":12770:12863   */\n      tag_191\n      jump\t// in\n    tag_340:\n        /* \"#utility.yul\":12888:12889   */\n      0x02\n        /* \"#utility.yul\":12883:12886   */\n      dup3\n        /* \"#utility.yul\":12879:12890   */\n      add\n        /* \"#utility.yul\":12872:12890   */\n      swap1\n      pop\n        /* \"#utility.yul\":12496:12896   */\n      swap2\n      swap1\n      pop\n      jump\t// out\n        /* \"#utility.yul\":12902:14023   */\n    tag_53:\n        /* \"#utility.yul\":13329:13332   */\n      0x00\n        /* \"#utility.yul\":13351:13446   */\n      tag_342\n        /* \"#utility.yul\":13442:13445   */\n      dup3\n        /* \"#utility.yul\":13433:13439   */\n      dup7\n        /* \"#utility.yul\":13351:13446   */\n      tag_185\n      jump\t// in\n    tag_342:\n        /* \"#utility.yul\":13344:13446   */\n      swap2\n      pop\n        /* \"#utility.yul\":13463:13611   */\n      tag_343\n        /* \"#utility.yul\":13607:13610   */\n      dup3\n        /* \"#utility.yul\":13463:13611   */\n      tag_187\n      jump\t// in\n    tag_343:\n        /* \"#utility.yul\":13456:13611   */\n      swap2\n      pop\n        /* \"#utility.yul\":13628:13720   */\n      tag_344\n        /* \"#utility.yul\":13716:13719   */\n      dup3\n        /* \"#utility.yul\":13707:13713   */\n      dup6\n        /* \"#utility.yul\":13628:13720   */\n      tag_190\n      jump\t// in\n    tag_344:\n        /* \"#utility.yul\":13621:13720   */\n      swap2\n      pop\n        /* \"#utility.yul\":13737:13885   */\n      tag_345\n        /* \"#utility.yul\":13881:13884   */\n      dup3\n        /* \"#utility.yul\":13737:13885   */\n      tag_192\n      jump\t// in\n    tag_345:\n        /* \"#utility.yul\":13730:13885   */\n      swap2\n      pop\n        /* \"#utility.yul\":13902:13997   */\n      tag_346\n        /* \"#utility.yul\":13993:13996   */\n      dup3\n        /* \"#utility.yul\":13984:13990   */\n      dup5\n        /* \"#utility.yul\":13902:13997   */\n      tag_185\n      jump\t// in\n    tag_346:\n        /* \"#utility.yul\":13895:13997   */\n      swap2\n      pop\n        /* \"#utility.yul\":14014:14017   */\n      dup2\n        /* \"#utility.yul\":14007:14017   */\n      swap1\n      pop\n        /* \"#utility.yul\":12902:14023   */\n      swap5\n      swap4\n      pop\n      pop\n      pop\n      pop\n      jump\t// out\n        /* \"#utility.yul\":14029:14209   */\n    tag_56:\n        /* \"#utility.yul\":14077:14154   */\n      0x4e487b7100000000000000000000000000000000000000000000000000000000\n        /* \"#utility.yul\":14074:14075   */\n      0x00\n        /* \"#utility.yul\":14067:14155   */\n      mstore\n        /* \"#utility.yul\":14174:14178   */\n      0x32\n        /* \"#utility.yul\":14171:14172   */\n      0x04\n        /* \"#utility.yul\":14164:14179   */\n      mstore\n        /* \"#utility.yul\":14198:14202   */\n      0x24\n        /* \"#utility.yul\":14195:14196   */\n      0x00\n        /* \"#utility.yul\":14188:14203   */\n      revert\n        /* \"#utility.yul\":14215:14448   */\n    tag_58:\n        /* \"#utility.yul\":14254:14257   */\n      0x00\n        /* \"#utility.yul\":14277:14301   */\n      tag_349\n        /* \"#utility.yul\":14295:14300   */\n      dup3\n        /* \"#utility.yul\":14277:14301   */\n      tag_169\n      jump\t// in\n    tag_349:\n        /* \"#utility.yul\":14268:14301   */\n      swap2\n      pop\n        /* \"#utility.yul\":14323:14389   */\n      0xffffffffffffffffffffffffffffffffffffffffffffffffffffffffffffffff\n        /* \"#utility.yul\":14316:14321   */\n      dup3\n        /* \"#utility.yul\":14313:14390   */\n      eq\n        /* \"#utility.yul\":14310:14413   */\n      iszero\n      tag_350\n      jumpi\n        /* \"#utility.yul\":14393:14411   */\n      tag_351\n      tag_183\n      jump\t// in\n    tag_351:\n        /* \"#utility.yul\":14310:14413   */\n    tag_350:\n        /* \"#utility.yul\":14440:14441   */\n      0x01\n        /* \"#utility.yul\":14433:14438   */\n      dup3\n        /* \"#utility.yul\":14429:14442   */\n      add\n        /* \"#utility.yul\":14422:14442   */\n      swap1\n      pop\n        /* \"#utility.yul\":14215:14448   */\n      swap2\n      swap1\n      pop\n      jump\t// out\n        /* \"#utility.yul\":14454:14623   */\n    tag_193:\n        /* \"#utility.yul\":14538:14549   */\n      0x00\n        /* \"#utility.yul\":14572:14578   */\n      dup3\n        /* \"#utility.yul\":14567:14570   */\n      dup3\n        /* \"#utility.yul\":14560:14579   */\n      mstore\n        /* \"#utility.yul\":14612:14616   */\n      0x20\n        /* \"#utility.yul\":14607:14610   */\n      dup3\n        /* \"#utility.yul\":14603:14617   */\n      add\n        /* \"#utility.yul\":14588:14617   */\n      swap1\n      pop\n        /* \"#utility.yul\":14454:14623   */\n      swap3\n      swap2\n      pop\n      pop\n      jump\t// out\n        /* \"#utility.yul\":14629:14803   */\n    tag_194:\n        /* \"#utility.yul\":14769:14795   */\n      0x4e6f7420696e766f6b656420627920746865206f776e65720000000000000000\n        /* \"#utility.yul\":14765:14766   */\n      0x00\n        /* \"#utility.yul\":14757:14763   */\n      dup3\n        /* \"#utility.yul\":14753:14767   */\n      add\n        /* \"#utility.yul\":14746:14796   */\n      mstore\n        /* \"#utility.yul\":14629:14803   */\n      pop\n      jump\t// out\n        /* \"#utility.yul\":14809:15175   */\n    tag_195:\n        /* \"#utility.yul\":14951:14954   */\n      0x00\n        /* \"#utility.yul\":14972:15039   */\n      tag_355\n        /* \"#utility.yul\":15036:15038   */\n      0x18\n        /* \"#utility.yul\":15031:15034   */\n      dup4\n        /* \"#utility.yul\":14972:15039   */\n      tag_193\n      jump\t// in\n    tag_355:\n        /* \"#utility.yul\":14965:15039   */\n      swap2\n      pop\n        /* \"#utility.yul\":15048:15141   */\n      tag_356\n        /* \"#utility.yul\":15137:15140   */\n      dup3\n        /* \"#utility.yul\":15048:15141   */\n      tag_194\n      jump\t// in\n    tag_356:\n        /* \"#utility.yul\":15166:15168   */\n      0x20\n        /* \"#utility.yul\":15161:15164   */\n      dup3\n        /* \"#utility.yul\":15157:15169   */\n      add\n        /* \"#utility.yul\":15150:15169   */\n      swap1\n      pop\n        /* \"#utility.yul\":14809:15175   */\n      swap2\n      swap1\n      pop\n      jump\t// out\n        /* \"#utility.yul\":15181:15600   */\n    tag_66:\n        /* \"#utility.yul\":15347:15351   */\n      0x00\n        /* \"#utility.yul\":15385:15387   */\n      0x20\n        /* \"#utility.yul\":15374:15383   */\n      dup3\n        /* \"#utility.yul\":15370:15388   */\n      add\n        /* \"#utility.yul\":15362:15388   */\n      swap1\n      pop\n        /* \"#utility.yul\":15434:15443   */\n      dup2\n        /* \"#utility.yul\":15428:15432   */\n      dup2\n        /* \"#utility.yul\":15424:15444   */\n      sub\n        /* \"#utility.yul\":15420:15421   */\n      0x00\n        /* \"#utility.yul\":15409:15418   */\n      dup4\n        /* \"#utility.yul\":15405:15422   */\n      add\n        /* \"#utility.yul\":15398:15445   */\n      mstore\n        /* \"#utility.yul\":15462:15593   */\n      tag_358\n        /* \"#utility.yul\":15588:15592   */\n      dup2\n        /* \"#utility.yul\":15462:15593   */\n      tag_195\n      jump\t// in\n    tag_358:\n        /* \"#utility.yul\":15454:15593   */\n      swap1\n      pop\n        /* \"#utility.yul\":15181:15600   */\n      swap2\n      swap1\n      pop\n      jump\t// out\n        /* \"#utility.yul\":15606:15760   */\n    tag_196:\n        /* \"#utility.yul\":15690:15696   */\n      dup3\n        /* \"#utility.yul\":15685:15688   */\n      dup2\n        /* \"#utility.yul\":15680:15683   */\n      dup4\n        /* \"#utility.yul\":15667:15697   */\n      calldatacopy\n        /* \"#utility.yul\":15752:15753   */\n      0x00\n        /* \"#utility.yul\":15743:15749   */\n      dup4\n        /* \"#utility.yul\":15738:15741   */\n      dup4\n        /* \"#utility.yul\":15734:15750   */\n      add\n        /* \"#utility.yul\":15727:15754   */\n      mstore\n        /* \"#utility.yul\":15606:15760   */\n      pop\n      pop\n      pop\n      jump\t// out\n        /* \"#utility.yul\":15790:16107   */\n    tag_197:\n        /* \"#utility.yul\":15906:15909   */\n      0x00\n        /* \"#utility.yul\":15927:16016   */\n      tag_361\n        /* \"#utility.yul\":16009:16015   */\n      dup4\n        /* \"#utility.yul\":16004:16007   */\n      dup6\n        /* \"#utility.yul\":15927:16016   */\n      tag_184\n      jump\t// in\n    tag_361:\n        /* \"#utility.yul\":15920:16016   */\n      swap4\n      pop\n        /* \"#utility.yul\":16026:16069   */\n      tag_362\n        /* \"#utility.yul\":16062:16068   */\n      dup4\n        /* \"#utility.yul\":16057:16060   */\n      dup6\n        /* \"#utility.yul\":16050:16055   */\n      dup5\n        /* \"#utility.yul\":16026:16069   */\n      tag_196\n      jump\t// in\n    tag_362:\n        /* \"#utility.yul\":16094:16100   */\n      dup3\n        /* \"#utility.yul\":16089:16092   */\n      dup5\n        /* \"#utility.yul\":16085:16101   */\n      add\n        /* \"#utility.yul\":16078:16101   */\n      swap1\n      pop\n        /* \"#utility.yul\":15790:16107   */\n      swap4\n      swap3\n      pop\n      pop\n      pop\n      jump\t// out\n        /* \"#utility.yul\":16113:16408   */\n    tag_69:\n        /* \"#utility.yul\":16255:16258   */\n      0x00\n        /* \"#utility.yul\":16277:16382   */\n      tag_364\n        /* \"#utility.yul\":16378:16381   */\n      dup3\n        /* \"#utility.yul\":16369:16375   */\n      dup5\n        /* \"#utility.yul\":16361:16367   */\n      dup7\n        /* \"#utility.yul\":16277:16382   */\n      tag_197\n      jump\t// in\n    tag_364:\n        /* \"#utility.yul\":16270:16382   */\n      swap2\n      pop\n        /* \"#utility.yul\":16399:16402   */\n      dup2\n        /* \"#utility.yul\":16392:16402   */\n      swap1\n      pop\n        /* \"#utility.yul\":16113:16408   */\n      swap4\n      swap3\n      pop\n      pop\n      pop\n      jump\t// out\n        /* \"#utility.yul\":16414:16589   */\n    tag_198:\n        /* \"#utility.yul\":16554:16581   */\n      0x43616e6e6f742072657475726e20302070726f64756374732100000000000000\n        /* \"#utility.yul\":16550:16551   */\n      0x00\n        /* \"#utility.yul\":16542:16548   */\n      dup3\n        /* \"#utility.yul\":16538:16552   */\n      add\n        /* \"#utility.yul\":16531:16582   */\n      mstore\n        /* \"#utility.yul\":16414:16589   */\n      pop\n      jump\t// out\n        /* \"#utility.yul\":16595:16961   */\n    tag_199:\n        /* \"#utility.yul\":16737:16740   */\n      0x00\n        /* \"#utility.yul\":16758:16825   */\n      tag_367\n        /* \"#utility.yul\":16822:16824   */\n      0x19\n        /* \"#utility.yul\":16817:16820   */\n      dup4\n        /* \"#utility.yul\":16758:16825   */\n      tag_193\n      jump\t// in\n    tag_367:\n        /* \"#utility.yul\":16751:16825   */\n      swap2\n      pop\n        /* \"#utility.yul\":16834:16927   */\n      tag_368\n        /* \"#utility.yul\":16923:16926   */\n      dup3\n        /* \"#utility.yul\":16834:16927   */\n      tag_198\n      jump\t// in\n    tag_368:\n        /* \"#utility.yul\":16952:16954   */\n      0x20\n        /* \"#utility.yul\":16947:16950   */\n      dup3\n        /* \"#utility.yul\":16943:16955   */\n      add\n        /* \"#utility.yul\":16936:16955   */\n      swap1\n      pop\n        /* \"#utility.yul\":16595:16961   */\n      swap2\n      swap1\n      pop\n      jump\t// out\n        /* \"#utility.yul\":16967:17386   */\n    tag_83:\n        /* \"#utility.yul\":17133:17137   */\n      0x00\n        /* \"#utility.yul\":17171:17173   */\n      0x20\n        /* \"#utility.yul\":17160:17169   */\n      dup3\n        /* \"#utility.yul\":17156:17174   */\n      add\n        /* \"#utility.yul\":17148:17174   */\n      swap1\n      pop\n        /* \"#utility.yul\":17220:17229   */\n      dup2\n        /* \"#utility.yul\":17214:17218   */\n      dup2\n        /* \"#utility.yul\":17210:17230   */\n      sub\n        /* \"#utility.yul\":17206:17207   */\n      0x00\n        /* \"#utility.yul\":17195:17204   */\n      dup4\n        /* \"#utility.yul\":17191:17208   */\n      add\n        /* \"#utility.yul\":17184:17231   */\n      mstore\n        /* \"#utility.yul\":17248:17379   */\n      tag_370\n        /* \"#utility.yul\":17374:17378   */\n      dup2\n        /* \"#utility.yul\":17248:17379   */\n      tag_199\n      jump\t// in\n    tag_370:\n        /* \"#utility.yul\":17240:17379   */\n      swap1\n      pop\n        /* \"#utility.yul\":16967:17386   */\n      swap2\n      swap1\n      pop\n      jump\t// out\n        /* \"#utility.yul\":17392:17619   */\n    tag_200:\n        /* \"#utility.yul\":17532:17566   */\n      0x43616e6e6f742072657475726e206d6f7265207468616e20796f752068617665\n        /* \"#utility.yul\":17528:17529   */\n      0x00\n        /* \"#utility.yul\":17520:17526   */\n      dup3\n        /* \"#utility.yul\":17516:17530   */\n      add\n        /* \"#utility.yul\":17509:17567   */\n      mstore\n        /* \"#utility.yul\":17601:17611   */\n      0x20626f7567687421000000000000000000000000000000000000000000000000\n        /* \"#utility.yul\":17596:17598   */\n      0x20\n        /* \"#utility.yul\":17588:17594   */\n      dup3\n        /* \"#utility.yul\":17584:17599   */\n      add\n        /* \"#utility.yul\":17577:17612   */\n      mstore\n        /* \"#utility.yul\":17392:17619   */\n      pop\n      jump\t// out\n        /* \"#utility.yul\":17625:17991   */\n    tag_201:\n        /* \"#utility.yul\":17767:17770   */\n      0x00\n        /* \"#utility.yul\":17788:17855   */\n      tag_373\n        /* \"#utility.yul\":17852:17854   */\n      0x28\n        /* \"#utility.yul\":17847:17850   */\n      dup4\n        /* \"#utility.yul\":17788:17855   */\n      tag_193\n      jump\t// in\n    tag_373:\n        /* \"#utility.yul\":17781:17855   */\n      swap2\n      pop\n        /* \"#utility.yul\":17864:17957   */\n      tag_374\n        /* \"#utility.yul\":17953:17956   */\n      dup3\n        /* \"#utility.yul\":17864:17957   */\n      tag_200\n      jump\t// in\n    tag_374:\n        /* \"#utility.yul\":17982:17984   */\n      0x40\n        /* \"#utility.yul\":17977:17980   */\n      dup3\n        /* \"#utility.yul\":17973:17985   */\n      add\n        /* \"#utility.yul\":17966:17985   */\n      swap1\n      pop\n        /* \"#utility.yul\":17625:17991   */\n      swap2\n      swap1\n      pop\n      jump\t// out\n        /* \"#utility.yul\":17997:18416   */\n    tag_86:\n        /* \"#utility.yul\":18163:18167   */\n      0x00\n        /* \"#utility.yul\":18201:18203   */\n      0x20\n        /* \"#utility.yul\":18190:18199   */\n      dup3\n        /* \"#utility.yul\":18186:18204   */\n      add\n        /* \"#utility.yul\":18178:18204   */\n      swap1\n      pop\n        /* \"#utility.yul\":18250:18259   */\n      dup2\n        /* \"#utility.yul\":18244:18248   */\n      dup2\n        /* \"#utility.yul\":18240:18260   */\n      sub\n        /* \"#utility.yul\":18236:18237   */\n      0x00\n        /* \"#utility.yul\":18225:18234   */\n      dup4\n        /* \"#utility.yul\":18221:18238   */\n      add\n        /* \"#utility.yul\":18214:18261   */\n      mstore\n        /* \"#utility.yul\":18278:18409   */\n      tag_376\n        /* \"#utility.yul\":18404:18408   */\n      dup2\n        /* \"#utility.yul\":18278:18409   */\n      tag_201\n      jump\t// in\n    tag_376:\n        /* \"#utility.yul\":18270:18409   */\n      swap1\n      pop\n        /* \"#utility.yul\":17997:18416   */\n      swap2\n      swap1\n      pop\n      jump\t// out\n        /* \"#utility.yul\":18422:18613   */\n    tag_88:\n        /* \"#utility.yul\":18462:18466   */\n      0x00\n        /* \"#utility.yul\":18482:18502   */\n      tag_378\n        /* \"#utility.yul\":18500:18501   */\n      dup3\n        /* \"#utility.yul\":18482:18502   */\n      tag_169\n      jump\t// in\n    tag_378:\n        /* \"#utility.yul\":18477:18502   */\n      swap2\n      pop\n        /* \"#utility.yul\":18516:18536   */\n      tag_379\n        /* \"#utility.yul\":18534:18535   */\n      dup4\n        /* \"#utility.yul\":18516:18536   */\n      tag_169\n      jump\t// in\n    tag_379:\n        /* \"#utility.yul\":18511:18536   */\n      swap3\n      pop\n        /* \"#utility.yul\":18555:18556   */\n      dup3\n        /* \"#utility.yul\":18552:18553   */\n      dup3\n        /* \"#utility.yul\":18549:18557   */\n      lt\n        /* \"#utility.yul\":18546:18580   */\n      iszero\n      tag_380\n      jumpi\n        /* \"#utility.yul\":18560:18578   */\n      tag_381\n      tag_183\n      jump\t// in\n    tag_381:\n        /* \"#utility.yul\":18546:18580   */\n    tag_380:\n        /* \"#utility.yul\":18605:18606   */\n      dup3\n        /* \"#utility.yul\":18602:18603   */\n      dup3\n        /* \"#utility.yul\":18598:18607   */\n      sub\n        /* \"#utility.yul\":18590:18607   */\n      swap1\n      pop\n        /* \"#utility.yul\":18422:18613   */\n      swap3\n      swap2\n      pop\n      pop\n      jump\t// out\n        /* \"#utility.yul\":18619:18843   */\n    tag_202:\n        /* \"#utility.yul\":18759:18793   */\n      0x5472616e73616374696f6e206973206f6c646572207468616e2031303020626c\n        /* \"#utility.yul\":18755:18756   */\n      0x00\n        /* \"#utility.yul\":18747:18753   */\n      dup3\n        /* \"#utility.yul\":18743:18757   */\n      add\n        /* \"#utility.yul\":18736:18794   */\n      mstore\n        /* \"#utility.yul\":18828:18835   */\n      0x6f636b7321000000000000000000000000000000000000000000000000000000\n        /* \"#utility.yul\":18823:18825   */\n      0x20\n        /* \"#utility.yul\":18815:18821   */\n      dup3\n        /* \"#utility.yul\":18811:18826   */\n      add\n        /* \"#utility.yul\":18804:18836   */\n      mstore\n        /* \"#utility.yul\":18619:18843   */\n      pop\n      jump\t// out\n        /* \"#utility.yul\":18849:19215   */\n    tag_203:\n        /* \"#utility.yul\":18991:18994   */\n      0x00\n        /* \"#utility.yul\":19012:19079   */\n      tag_384\n        /* \"#utility.yul\":19076:19078   */\n      0x25\n        /* \"#utility.yul\":19071:19074   */\n      dup4\n        /* \"#utility.yul\":19012:19079   */\n      tag_193\n      jump\t// in\n    tag_384:\n        /* \"#utility.yul\":19005:19079   */\n      swap2\n      pop\n        /* \"#utility.yul\":19088:19181   */\n      tag_385\n        /* \"#utility.yul\":19177:19180   */\n      dup3\n        /* \"#utility.yul\":19088:19181   */\n      tag_202\n      jump\t// in\n    tag_385:\n        /* \"#utility.yul\":19206:19208   */\n      0x40\n        /* \"#utility.yul\":19201:19204   */\n      dup3\n        /* \"#utility.yul\":19197:19209   */\n      add\n        /* \"#utility.yul\":19190:19209   */\n      swap1\n      pop\n        /* \"#utility.yul\":18849:19215   */\n      swap2\n      swap1\n      pop\n      jump\t// out\n        /* \"#utility.yul\":19221:19640   */\n    tag_91:\n        /* \"#utility.yul\":19387:19391   */\n      0x00\n        /* \"#utility.yul\":19425:19427   */\n      0x20\n        /* \"#utility.yul\":19414:19423   */\n      dup3\n        /* \"#utility.yul\":19410:19428   */\n      add\n        /* \"#utility.yul\":19402:19428   */\n      swap1\n      pop\n        /* \"#utility.yul\":19474:19483   */\n      dup2\n        /* \"#utility.yul\":19468:19472   */\n      dup2\n        /* \"#utility.yul\":19464:19484   */\n      sub\n        /* \"#utility.yul\":19460:19461   */\n      0x00\n        /* \"#utility.yul\":19449:19458   */\n      dup4\n        /* \"#utility.yul\":19445:19462   */\n      add\n        /* \"#utility.yul\":19438:19485   */\n      mstore\n        /* \"#utility.yul\":19502:19633   */\n      tag_387\n        /* \"#utility.yul\":19628:19632   */\n      dup2\n        /* \"#utility.yul\":19502:19633   */\n      tag_203\n      jump\t// in\n    tag_387:\n        /* \"#utility.yul\":19494:19633   */\n      swap1\n      pop\n        /* \"#utility.yul\":19221:19640   */\n      swap2\n      swap1\n      pop\n      jump\t// out\n        /* \"#utility.yul\":19646:19824   */\n    tag_204:\n        /* \"#utility.yul\":19786:19816   */\n      0x43616e6e6f742062757920302070726f64756374734c65646765722100000000\n        /* \"#utility.yul\":19782:19783   */\n      0x00\n        /* \"#utility.yul\":19774:19780   */\n      dup3\n        /* \"#utility.yul\":19770:19784   */\n      add\n        /* \"#utility.yul\":19763:19817   */\n      mstore\n        /* \"#utility.yul\":19646:19824   */\n      pop\n      jump\t// out\n        /* \"#utility.yul\":19830:20196   */\n    tag_205:\n        /* \"#utility.yul\":19972:19975   */\n      0x00\n        /* \"#utility.yul\":19993:20060   */\n      tag_390\n        /* \"#utility.yul\":20057:20059   */\n      0x1c\n        /* \"#utility.yul\":20052:20055   */\n      dup4\n        /* \"#utility.yul\":19993:20060   */\n      tag_193\n      jump\t// in\n    tag_390:\n        /* \"#utility.yul\":19986:20060   */\n      swap2\n      pop\n        /* \"#utility.yul\":20069:20162   */\n      tag_391\n        /* \"#utility.yul\":20158:20161   */\n      dup3\n        /* \"#utility.yul\":20069:20162   */\n      tag_204\n      jump\t// in\n    tag_391:\n        /* \"#utility.yul\":20187:20189   */\n      0x20\n        /* \"#utility.yul\":20182:20185   */\n      dup3\n        /* \"#utility.yul\":20178:20190   */\n      add\n        /* \"#utility.yul\":20171:20190   */\n      swap1\n      pop\n        /* \"#utility.yul\":19830:20196   */\n      swap2\n      swap1\n      pop\n      jump\t// out\n        /* \"#utility.yul\":20202:20621   */\n    tag_97:\n        /* \"#utility.yul\":20368:20372   */\n      0x00\n        /* \"#utility.yul\":20406:20408   */\n      0x20\n        /* \"#utility.yul\":20395:20404   */\n      dup3\n        /* \"#utility.yul\":20391:20409   */\n      add\n        /* \"#utility.yul\":20383:20409   */\n      swap1\n      pop\n        /* \"#utility.yul\":20455:20464   */\n      dup2\n        /* \"#utility.yul\":20449:20453   */\n      dup2\n        /* \"#utility.yul\":20445:20465   */\n      sub\n        /* \"#utility.yul\":20441:20442   */\n      0x00\n        /* \"#utility.yul\":20430:20439   */\n      dup4\n        /* \"#utility.yul\":20426:20443   */\n      add\n        /* \"#utility.yul\":20419:20466   */\n      mstore\n        /* \"#utility.yul\":20483:20614   */\n      tag_393\n        /* \"#utility.yul\":20609:20613   */\n      dup2\n        /* \"#utility.yul\":20483:20614   */\n      tag_205\n      jump\t// in\n    tag_393:\n        /* \"#utility.yul\":20475:20614   */\n      swap1\n      pop\n        /* \"#utility.yul\":20202:20621   */\n      swap2\n      swap1\n      pop\n      jump\t// out\n        /* \"#utility.yul\":20627:20793   */\n    tag_206:\n        /* \"#utility.yul\":20767:20785   */\n      0x4e6f20737563682070726f647563742100000000000000000000000000000000\n        /* \"#utility.yul\":20763:20764   */\n      0x00\n        /* \"#utility.yul\":20755:20761   */\n      dup3\n        /* \"#utility.yul\":20751:20765   */\n      add\n        /* \"#utility.yul\":20744:20786   */\n      mstore\n        /* \"#utility.yul\":20627:20793   */\n      pop\n      jump\t// out\n        /* \"#utility.yul\":20799:21165   */\n    tag_207:\n        /* \"#utility.yul\":20941:20944   */\n      0x00\n        /* \"#utility.yul\":20962:21029   */\n      tag_396\n        /* \"#utility.yul\":21026:21028   */\n      0x10\n        /* \"#utility.yul\":21021:21024   */\n      dup4\n        /* \"#utility.yul\":20962:21029   */\n      tag_193\n      jump\t// in\n    tag_396:\n        /* \"#utility.yul\":20955:21029   */\n      swap2\n      pop\n        /* \"#utility.yul\":21038:21131   */\n      tag_397\n        /* \"#utility.yul\":21127:21130   */\n      dup3\n        /* \"#utility.yul\":21038:21131   */\n      tag_206\n      jump\t// in\n    tag_397:\n        /* \"#utility.yul\":21156:21158   */\n      0x20\n        /* \"#utility.yul\":21151:21154   */\n      dup3\n        /* \"#utility.yul\":21147:21159   */\n      add\n        /* \"#utility.yul\":21140:21159   */\n      swap1\n      pop\n        /* \"#utility.yul\":20799:21165   */\n      swap2\n      swap1\n      pop\n      jump\t// out\n        /* \"#utility.yul\":21171:21590   */\n    tag_100:\n        /* \"#utility.yul\":21337:21341   */\n      0x00\n        /* \"#utility.yul\":21375:21377   */\n      0x20\n        /* \"#utility.yul\":21364:21373   */\n      dup3\n        /* \"#utility.yul\":21360:21378   */\n      add\n        /* \"#utility.yul\":21352:21378   */\n      swap1\n      pop\n        /* \"#utility.yul\":21424:21433   */\n      dup2\n        /* \"#utility.yul\":21418:21422   */\n      dup2\n        /* \"#utility.yul\":21414:21434   */\n      sub\n        /* \"#utility.yul\":21410:21411   */\n      0x00\n        /* \"#utility.yul\":21399:21408   */\n      dup4\n        /* \"#utility.yul\":21395:21412   */\n      add\n        /* \"#utility.yul\":21388:21435   */\n      mstore\n        /* \"#utility.yul\":21452:21583   */\n      tag_399\n        /* \"#utility.yul\":21578:21582   */\n      dup2\n        /* \"#utility.yul\":21452:21583   */\n      tag_207\n      jump\t// in\n    tag_399:\n        /* \"#utility.yul\":21444:21583   */\n      swap1\n      pop\n        /* \"#utility.yul\":21171:21590   */\n      swap2\n      swap1\n      pop\n      jump\t// out\n        /* \"#utility.yul\":21596:21761   */\n    tag_208:\n        /* \"#utility.yul\":21736:21753   */\n      0x416c726561647920626f75676874210000000000000000000000000000000000\n        /* \"#utility.yul\":21732:21733   */\n      0x00\n        /* \"#utility.yul\":21724:21730   */\n      dup3\n        /* \"#utility.yul\":21720:21734   */\n      add\n        /* \"#utility.yul\":21713:21754   */\n      mstore\n        /* \"#utility.yul\":21596:21761   */\n      pop\n      jump\t// out\n        /* \"#utility.yul\":21767:22133   */\n    tag_209:\n        /* \"#utility.yul\":21909:21912   */\n      0x00\n        /* \"#utility.yul\":21930:21997   */\n      tag_402\n        /* \"#utility.yul\":21994:21996   */\n      0x0f\n        /* \"#utility.yul\":21989:21992   */\n      dup4\n        /* \"#utility.yul\":21930:21997   */\n      tag_193\n      jump\t// in\n    tag_402:\n        /* \"#utility.yul\":21923:21997   */\n      swap2\n      pop\n        /* \"#utility.yul\":22006:22099   */\n      tag_403\n        /* \"#utility.yul\":22095:22098   */\n      dup3\n        /* \"#utility.yul\":22006:22099   */\n      tag_208\n      jump\t// in\n    tag_403:\n        /* \"#utility.yul\":22124:22126   */\n      0x20\n        /* \"#utility.yul\":22119:22122   */\n      dup3\n        /* \"#utility.yul\":22115:22127   */\n      add\n        /* \"#utility.yul\":22108:22127   */\n      swap1\n      pop\n        /* \"#utility.yul\":21767:22133   */\n      swap2\n      swap1\n      pop\n      jump\t// out\n        /* \"#utility.yul\":22139:22558   */\n    tag_103:\n        /* \"#utility.yul\":22305:22309   */\n      0x00\n        /* \"#utility.yul\":22343:22345   */\n      0x20\n        /* \"#utility.yul\":22332:22341   */\n      dup3\n        /* \"#utility.yul\":22328:22346   */\n      add\n        /* \"#utility.yul\":22320:22346   */\n      swap1\n      pop\n        /* \"#utility.yul\":22392:22401   */\n      dup2\n        /* \"#utility.yul\":22386:22390   */\n      dup2\n        /* \"#utility.yul\":22382:22402   */\n      sub\n        /* \"#utility.yul\":22378:22379   */\n      0x00\n        /* \"#utility.yul\":22367:22376   */\n      dup4\n        /* \"#utility.yul\":22363:22380   */\n      add\n        /* \"#utility.yul\":22356:22403   */\n      mstore\n        /* \"#utility.yul\":22420:22551   */\n      tag_405\n        /* \"#utility.yul\":22546:22550   */\n      dup2\n        /* \"#utility.yul\":22420:22551   */\n      tag_209\n      jump\t// in\n    tag_405:\n        /* \"#utility.yul\":22412:22551   */\n      swap1\n      pop\n        /* \"#utility.yul\":22139:22558   */\n      swap2\n      swap1\n      pop\n      jump\t// out\n        /* \"#utility.yul\":22564:22793   */\n    tag_210:\n        /* \"#utility.yul\":22704:22738   */\n      0x5468657265206973206e6f7420656e6f756768207175616e7469747920696e20\n        /* \"#utility.yul\":22700:22701   */\n      0x00\n        /* \"#utility.yul\":22692:22698   */\n      dup3\n        /* \"#utility.yul\":22688:22702   */\n      add\n        /* \"#utility.yul\":22681:22739   */\n      mstore\n        /* \"#utility.yul\":22773:22785   */\n      0x7468652073746f72652100000000000000000000000000000000000000000000\n        /* \"#utility.yul\":22768:22770   */\n      0x20\n        /* \"#utility.yul\":22760:22766   */\n      dup3\n        /* \"#utility.yul\":22756:22771   */\n      add\n        /* \"#utility.yul\":22749:22786   */\n      mstore\n        /* \"#utility.yul\":22564:22793   */\n      pop\n      jump\t// out\n        /* \"#utility.yul\":22799:23165   */\n    tag_211:\n        /* \"#utility.yul\":22941:22944   */\n      0x00\n        /* \"#utility.yul\":22962:23029   */\n      tag_408\n        /* \"#utility.yul\":23026:23028   */\n      0x2a\n        /* \"#utility.yul\":23021:23024   */\n      dup4\n        /* \"#utility.yul\":22962:23029   */\n      tag_193\n      jump\t// in\n    tag_408:\n        /* \"#utility.yul\":22955:23029   */\n      swap2\n      pop\n        /* \"#utility.yul\":23038:23131   */\n      tag_409\n        /* \"#utility.yul\":23127:23130   */\n      dup3\n        /* \"#utility.yul\":23038:23131   */\n      tag_210\n      jump\t// in\n    tag_409:\n        /* \"#utility.yul\":23156:23158   */\n      0x40\n        /* \"#utility.yul\":23151:23154   */\n      dup3\n        /* \"#utility.yul\":23147:23159   */\n      add\n        /* \"#utility.yul\":23140:23159   */\n      swap1\n      pop\n        /* \"#utility.yul\":22799:23165   */\n      swap2\n      swap1\n      pop\n      jump\t// out\n        /* \"#utility.yul\":23171:23590   */\n    tag_106:\n        /* \"#utility.yul\":23337:23341   */\n      0x00\n        /* \"#utility.yul\":23375:23377   */\n      0x20\n        /* \"#utility.yul\":23364:23373   */\n      dup3\n        /* \"#utility.yul\":23360:23378   */\n      add\n        /* \"#utility.yul\":23352:23378   */\n      swap1\n      pop\n        /* \"#utility.yul\":23424:23433   */\n      dup2\n        /* \"#utility.yul\":23418:23422   */\n      dup2\n        /* \"#utility.yul\":23414:23434   */\n      sub\n        /* \"#utility.yul\":23410:23411   */\n      0x00\n        /* \"#utility.yul\":23399:23408   */\n      dup4\n        /* \"#utility.yul\":23395:23412   */\n      add\n        /* \"#utility.yul\":23388:23435   */\n      mstore\n        /* \"#utility.yul\":23452:23583   */\n      tag_411\n        /* \"#utility.yul\":23578:23582   */\n      dup2\n        /* \"#utility.yul\":23452:23583   */\n      tag_211\n      jump\t// in\n    tag_411:\n        /* \"#utility.yul\":23444:23583   */\n      swap1\n      pop\n        /* \"#utility.yul\":23171:23590   */\n      swap2\n      swap1\n      pop\n      jump\t// out\n        /* \"#utility.yul\":23596:23776   */\n    tag_212:\n        /* \"#utility.yul\":23644:23721   */\n      0x4e487b7100000000000000000000000000000000000000000000000000000000\n        /* \"#utility.yul\":23641:23642   */\n      0x00\n        /* \"#utility.yul\":23634:23722   */\n      mstore\n        /* \"#utility.yul\":23741:23745   */\n      0x12\n        /* \"#utility.yul\":23738:23739   */\n      0x04\n        /* \"#utility.yul\":23731:23746   */\n      mstore\n        /* \"#utility.yul\":23765:23769   */\n      0x24\n        /* \"#utility.yul\":23762:23763   */\n      0x00\n        /* \"#utility.yul\":23755:23770   */\n      revert\n        /* \"#utility.yul\":23782:23967   */\n    tag_117:\n        /* \"#utility.yul\":23822:23823   */\n      0x00\n        /* \"#utility.yul\":23839:23859   */\n      tag_414\n        /* \"#utility.yul\":23857:23858   */\n      dup3\n        /* \"#utility.yul\":23839:23859   */\n      tag_169\n      jump\t// in\n    tag_414:\n        /* \"#utility.yul\":23834:23859   */\n      swap2\n      pop\n        /* \"#utility.yul\":23873:23893   */\n      tag_415\n        /* \"#utility.yul\":23891:23892   */\n      dup4\n        /* \"#utility.yul\":23873:23893   */\n      tag_169\n      jump\t// in\n    tag_415:\n        /* \"#utility.yul\":23868:23893   */\n      swap3\n      pop\n        /* \"#utility.yul\":23912:23913   */\n      dup3\n        /* \"#utility.yul\":23902:23937   */\n      tag_416\n      jumpi\n        /* \"#utility.yul\":23917:23935   */\n      tag_417\n      tag_212\n      jump\t// in\n    tag_417:\n        /* \"#utility.yul\":23902:23937   */\n    tag_416:\n        /* \"#utility.yul\":23959:23960   */\n      dup3\n        /* \"#utility.yul\":23956:23957   */\n      dup3\n        /* \"#utility.yul\":23952:23961   */\n      div\n        /* \"#utility.yul\":23947:23961   */\n      swap1\n      pop\n        /* \"#utility.yul\":23782:23967   */\n      swap3\n      swap2\n      pop\n      pop\n      jump\t// out\n        /* \"#utility.yul\":23973:24149   */\n    tag_125:\n        /* \"#utility.yul\":24005:24006   */\n      0x00\n        /* \"#utility.yul\":24022:24042   */\n      tag_419\n        /* \"#utility.yul\":24040:24041   */\n      dup3\n        /* \"#utility.yul\":24022:24042   */\n      tag_169\n      jump\t// in\n    tag_419:\n        /* \"#utility.yul\":24017:24042   */\n      swap2\n      pop\n        /* \"#utility.yul\":24056:24076   */\n      tag_420\n        /* \"#utility.yul\":24074:24075   */\n      dup4\n        /* \"#utility.yul\":24056:24076   */\n      tag_169\n      jump\t// in\n    tag_420:\n        /* \"#utility.yul\":24051:24076   */\n      swap3\n      pop\n        /* \"#utility.yul\":24095:24096   */\n      dup3\n        /* \"#utility.yul\":24085:24120   */\n      tag_421\n      jumpi\n        /* \"#utility.yul\":24100:24118   */\n      tag_422\n      tag_212\n      jump\t// in\n    tag_422:\n        /* \"#utility.yul\":24085:24120   */\n    tag_421:\n        /* \"#utility.yul\":24141:24142   */\n      dup3\n        /* \"#utility.yul\":24138:24139   */\n      dup3\n        /* \"#utility.yul\":24134:24143   */\n      mod\n        /* \"#utility.yul\":24129:24143   */\n      swap1\n      pop\n        /* \"#utility.yul\":23973:24149   */\n      swap3\n      swap2\n      pop\n      pop\n      jump\t// out\n\n    auxdata: 0xa26469706673582212207f55cded67441c026cf6b483effc999c49be29958ab92df118159e9da46b515964736f6c63430008080033\n}\n",
				"bytecode": {
					"linkReferences": {},
					"object": "6080604052600060015534801561001557600080fd5b50336000806101000a81548173ffffffffffffffffffffffffffffffffffffffff021916908373ffffffffffffffffffffffffffffffffffffffff160217905550611aed806100656000396000f3fe608060405234801561001057600080fd5b50600436106100625760003560e01c80638da5cb5b14610067578063a34e564914610085578063a69f9d1b146100a3578063b15247d9146100d3578063ca47b8c2146100ef578063d6febde81461010b575b600080fd5b61006f610127565b60405161007c9190610e9c565b60405180910390f35b61008d61014b565b60405161009a9190611012565b60405180910390f35b6100bd60048036038101906100b89190611074565b6102a6565b6040516100ca919061115f565b60405180910390f35b6100ed60048036038101906100e891906111e6565b610347565b005b61010960048036038101906101049190611246565b610516565b005b61012560048036038101906101209190611246565b610735565b005b60008054906101000a900473ffffffffffffffffffffffffffffffffffffffff1681565b6060600060015467ffffffffffffffff81111561016b5761016a611286565b5b60405190808252806020026020018201604052801561019e57816020015b60608152602001906001900390816101895790505b5090506000805b60015481101561029d576000600360006001846101c291906112e4565b815260200190815260200160002060010154111561028a576101ef6001826101ea91906112e4565b610b12565b6003600060018461020091906112e4565b815260200190815260200160002060000161023c6003600060018661022591906112e4565b815260200190815260200160002060010154610b12565b60405160200161024e93929190611503565b6040516020818303038152906040528383815181106102705761026f61154a565b5b6020026020010181905250818061028690611579565b9250505b808061029590611579565b9150506101a5565b50819250505090565b60606005600083815260200190815260200160002080548060200260200160405190810160405280929190818152602001828054801561033b57602002820191906000526020600020905b8160009054906101000a900473ffffffffffffffffffffffffffffffffffffffff1673ffffffffffffffffffffffffffffffffffffffff16815260200190600101908083116102f1575b50505050509050919050565b3373ffffffffffffffffffffffffffffffffffffffff1660008054906101000a900473ffffffffffffffffffffffffffffffffffffffff1673ffffffffffffffffffffffffffffffffffffffff16146103d5576040517f08c379a00000000000000000000000000000000000000000000000000000000081526004016103cc9061161f565b60405180910390fd5b6000600284846040516103e9929190611673565b90815260200160405180910390205414156104c3576001600081548092919061041190611579565b91905055506001546002848460405161042b929190611673565b90815260200160405180910390208190555082826003600060028787604051610455929190611673565b90815260200160405180910390205481526020019081526020016000206000019190610482929190610db8565b5080600360006002868660405161049a929190611673565b908152602001604051809103902054815260200190815260200160002060010181905550610511565b8060036000600286866040516104da929190611673565b9081526020016040518091039020548152602001908152602001600020600101600082825461050991906112e4565b925050819055505b505050565b60008111610559576040517f08c379a0000000000000000000000000000000000000000000000000000000008152600401610550906116d8565b60405180910390fd5b80600460003373ffffffffffffffffffffffffffffffffffffffff1673ffffffffffffffffffffffffffffffffffffffff16815260200190815260200160002060010160008481526020019081526020016000206002015410156105f2576040517f08c379a00000000000000000000000000000000000000000000000000000000081526004016105e99061176a565b60405180910390fd5b6064600460003373ffffffffffffffffffffffffffffffffffffffff1673ffffffffffffffffffffffffffffffffffffffff16815260200190815260200160002060010160008481526020019081526020016000206001015443610656919061178a565b1115610697576040517f08c379a000000000000000000000000000000000000000000000000000000000815260040161068e90611830565b60405180910390fd5b80600460003373ffffffffffffffffffffffffffffffffffffffff1673ffffffffffffffffffffffffffffffffffffffff168152602001908152602001600020600101600084815260200190815260200160002060020160008282546106fd919061178a565b925050819055508060036000848152602001908152602001600020600101600082825461072a91906112e4565b925050819055505050565b60008111610778576040517f08c379a000000000000000000000000000000000000000000000000000000000815260040161076f9061189c565b60405180910390fd5b6001548211156107bd576040517f08c379a00000000000000000000000000000000000000000000000000000000081526004016107b490611908565b60405180910390fd5b6000600460003373ffffffffffffffffffffffffffffffffffffffff1673ffffffffffffffffffffffffffffffffffffffff16815260200190815260200160002060010160008481526020019081526020016000206002015414610856576040517f08c379a000000000000000000000000000000000000000000000000000000000815260040161084d90611974565b60405180910390fd5b80600360008481526020019081526020016000206001015410156108af576040517f08c379a00000000000000000000000000000000000000000000000000000000081526004016108a690611a06565b60405180910390fd5b806003600084815260200190815260200160002060010160008282546108d5919061178a565b925050819055503373ffffffffffffffffffffffffffffffffffffffff16600460003373ffffffffffffffffffffffffffffffffffffffff1673ffffffffffffffffffffffffffffffffffffffff16815260200190815260200160002060000160009054906101000a900473ffffffffffffffffffffffffffffffffffffffff1673ffffffffffffffffffffffffffffffffffffffff16146109f35733600460003373ffffffffffffffffffffffffffffffffffffffff1673ffffffffffffffffffffffffffffffffffffffff16815260200190815260200160002060000160006101000a81548173ffffffffffffffffffffffffffffffffffffffff021916908373ffffffffffffffffffffffffffffffffffffffff1602179055505b81600460003373ffffffffffffffffffffffffffffffffffffffff1673ffffffffffffffffffffffffffffffffffffffff16815260200190815260200160002060010160008481526020019081526020016000206000018190555080600460003373ffffffffffffffffffffffffffffffffffffffff1673ffffffffffffffffffffffffffffffffffffffff16815260200190815260200160002060010160008481526020019081526020016000206002018190555043600460003373ffffffffffffffffffffffffffffffffffffffff1673ffffffffffffffffffffffffffffffffffffffff168152602001908152602001600020600101600084815260200190815260200160002060010181905550610b0e3383610c73565b5050565b60606000821415610b5a576040518060400160405280600181526020017f30000000000000000000000000000000000000000000000000000000000000008152509050610c6e565b600082905060005b60008214610b8c578080610b7590611579565b915050600a82610b859190611a55565b9150610b62565b60008167ffffffffffffffff811115610ba857610ba7611286565b5b6040519080825280601f01601f191660200182016040528015610bda5781602001600182028036833780820191505090505b5090505b60008514610c6757600182610bf3919061178a565b9150600a85610c029190611a86565b6030610c0e91906112e4565b60f81b818381518110610c2457610c2361154a565b5b60200101907effffffffffffffffffffffffffffffffffffffffffffffffffffffffffffff1916908160001a905350600a85610c609190611a55565b9450610bde565b8093505050505b919050565b600080600090505b6005600084815260200190815260200160002080549050811015610d38578373ffffffffffffffffffffffffffffffffffffffff16600560008581526020019081526020016000208281548110610cd557610cd461154a565b5b9060005260206000200160009054906101000a900473ffffffffffffffffffffffffffffffffffffffff1673ffffffffffffffffffffffffffffffffffffffff161415610d255760019150610d38565b8080610d3090611579565b915050610c7b565b5080610db35760056000838152602001908152602001600020839080600181540180825580915050600190039060005260206000200160009091909190916101000a81548173ffffffffffffffffffffffffffffffffffffffff021916908373ffffffffffffffffffffffffffffffffffffffff1602179055505b505050565b828054610dc4906113f1565b90600052602060002090601f016020900481019282610de65760008555610e2d565b82601f10610dff57803560ff1916838001178555610e2d565b82800160010185558215610e2d579182015b82811115610e2c578235825591602001919060010190610e11565b5b509050610e3a9190610e3e565b5090565b5b80821115610e57576000816000905550600101610e3f565b5090565b600073ffffffffffffffffffffffffffffffffffffffff82169050919050565b6000610e8682610e5b565b9050919050565b610e9681610e7b565b82525050565b6000602082019050610eb16000830184610e8d565b92915050565b600081519050919050565b600082825260208201905092915050565b6000819050602082019050919050565b600081519050919050565b600082825260208201905092915050565b60005b83811015610f1d578082015181840152602081019050610f02565b83811115610f2c576000848401525b50505050565b6000601f19601f8301169050919050565b6000610f4e82610ee3565b610f588185610eee565b9350610f68818560208601610eff565b610f7181610f32565b840191505092915050565b6000610f888383610f43565b905092915050565b6000602082019050919050565b6000610fa882610eb7565b610fb28185610ec2565b935083602082028501610fc485610ed3565b8060005b858110156110005784840389528151610fe18582610f7c565b9450610fec83610f90565b925060208a01995050600181019050610fc8565b50829750879550505050505092915050565b6000602082019050818103600083015261102c8184610f9d565b905092915050565b600080fd5b600080fd5b6000819050919050565b6110518161103e565b811461105c57600080fd5b50565b60008135905061106e81611048565b92915050565b60006020828403121561108a57611089611034565b5b60006110988482850161105f565b91505092915050565b600081519050919050565b600082825260208201905092915050565b6000819050602082019050919050565b6110d681610e7b565b82525050565b60006110e883836110cd565b60208301905092915050565b6000602082019050919050565b600061110c826110a1565b61111681856110ac565b9350611121836110bd565b8060005b8381101561115257815161113988826110dc565b9750611144836110f4565b925050600181019050611125565b5085935050505092915050565b600060208201905081810360008301526111798184611101565b905092915050565b600080fd5b600080fd5b600080fd5b60008083601f8401126111a6576111a5611181565b5b8235905067ffffffffffffffff8111156111c3576111c2611186565b5b6020830191508360018202830111156111df576111de61118b565b5b9250929050565b6000806000604084860312156111ff576111fe611034565b5b600084013567ffffffffffffffff81111561121d5761121c611039565b5b61122986828701611190565b9350935050602061123c8682870161105f565b9150509250925092565b6000806040838503121561125d5761125c611034565b5b600061126b8582860161105f565b925050602061127c8582860161105f565b9150509250929050565b7f4e487b7100000000000000000000000000000000000000000000000000000000600052604160045260246000fd5b7f4e487b7100000000000000000000000000000000000000000000000000000000600052601160045260246000fd5b60006112ef8261103e565b91506112fa8361103e565b9250827fffffffffffffffffffffffffffffffffffffffffffffffffffffffffffffffff0382111561132f5761132e6112b5565b5b828201905092915050565b600081905092915050565b600061135082610ee3565b61135a818561133a565b935061136a818560208601610eff565b80840191505092915050565b7f2e20000000000000000000000000000000000000000000000000000000000000600082015250565b60006113ac60028361133a565b91506113b782611376565b600282019050919050565b7f4e487b7100000000000000000000000000000000000000000000000000000000600052602260045260246000fd5b6000600282049050600182168061140957607f821691505b6020821081141561141d5761141c6113c2565b5b50919050565b60008190508160005260206000209050919050565b60008154611445816113f1565b61144f818661133a565b9450600182166000811461146a576001811461147b576114ae565b60ff198316865281860193506114ae565b61148485611423565b60005b838110156114a657815481890152600182019150602081019050611487565b838801955050505b50505092915050565b7f3a20000000000000000000000000000000000000000000000000000000000000600082015250565b60006114ed60028361133a565b91506114f8826114b7565b600282019050919050565b600061150f8286611345565b915061151a8261139f565b91506115268285611438565b9150611531826114e0565b915061153d8284611345565b9150819050949350505050565b7f4e487b7100000000000000000000000000000000000000000000000000000000600052603260045260246000fd5b60006115848261103e565b91507fffffffffffffffffffffffffffffffffffffffffffffffffffffffffffffffff8214156115b7576115b66112b5565b5b600182019050919050565b600082825260208201905092915050565b7f4e6f7420696e766f6b656420627920746865206f776e65720000000000000000600082015250565b60006116096018836115c2565b9150611614826115d3565b602082019050919050565b60006020820190508181036000830152611638816115fc565b9050919050565b82818337600083830152505050565b600061165a838561133a565b935061166783858461163f565b82840190509392505050565b600061168082848661164e565b91508190509392505050565b7f43616e6e6f742072657475726e20302070726f64756374732100000000000000600082015250565b60006116c26019836115c2565b91506116cd8261168c565b602082019050919050565b600060208201905081810360008301526116f1816116b5565b9050919050565b7f43616e6e6f742072657475726e206d6f7265207468616e20796f75206861766560008201527f20626f7567687421000000000000000000000000000000000000000000000000602082015250565b60006117546028836115c2565b915061175f826116f8565b604082019050919050565b6000602082019050818103600083015261178381611747565b9050919050565b60006117958261103e565b91506117a08361103e565b9250828210156117b3576117b26112b5565b5b828203905092915050565b7f5472616e73616374696f6e206973206f6c646572207468616e2031303020626c60008201527f6f636b7321000000000000000000000000000000000000000000000000000000602082015250565b600061181a6025836115c2565b9150611825826117be565b604082019050919050565b600060208201905081810360008301526118498161180d565b9050919050565b7f43616e6e6f742062757920302070726f64756374734c65646765722100000000600082015250565b6000611886601c836115c2565b915061189182611850565b602082019050919050565b600060208201905081810360008301526118b581611879565b9050919050565b7f4e6f20737563682070726f647563742100000000000000000000000000000000600082015250565b60006118f26010836115c2565b91506118fd826118bc565b602082019050919050565b60006020820190508181036000830152611921816118e5565b9050919050565b7f416c726561647920626f75676874210000000000000000000000000000000000600082015250565b600061195e600f836115c2565b915061196982611928565b602082019050919050565b6000602082019050818103600083015261198d81611951565b9050919050565b7f5468657265206973206e6f7420656e6f756768207175616e7469747920696e2060008201527f7468652073746f72652100000000000000000000000000000000000000000000602082015250565b60006119f0602a836115c2565b91506119fb82611994565b604082019050919050565b60006020820190508181036000830152611a1f816119e3565b9050919050565b7f4e487b7100000000000000000000000000000000000000000000000000000000600052601260045260246000fd5b6000611a608261103e565b9150611a6b8361103e565b925082611a7b57611a7a611a26565b5b828204905092915050565b6000611a918261103e565b9150611a9c8361103e565b925082611aac57611aab611a26565b5b82820690509291505056fea26469706673582212207f55cded67441c026cf6b483effc999c49be29958ab92df118159e9da46b515964736f6c63430008080033",
					"opcodes": "PUSH1 0x80 PUSH1 0x40 MSTORE PUSH1 0x0 PUSH1 0x1 SSTORE CALLVALUE DUP1 ISZERO PUSH2 0x15 JUMPI PUSH1 0x0 DUP1 REVERT JUMPDEST POP CALLER PUSH1 0x0 DUP1 PUSH2 0x100 EXP DUP2 SLOAD DUP2 PUSH20 0xFFFFFFFFFFFFFFFFFFFFFFFFFFFFFFFFFFFFFFFF MUL NOT AND SWAP1 DUP4 PUSH20 0xFFFFFFFFFFFFFFFFFFFFFFFFFFFFFFFFFFFFFFFF AND MUL OR SWAP1 SSTORE POP PUSH2 0x1AED DUP1 PUSH2 0x65 PUSH1 0x0 CODECOPY PUSH1 0x0 RETURN INVALID PUSH1 0x80 PUSH1 0x40 MSTORE CALLVALUE DUP1 ISZERO PUSH2 0x10 JUMPI PUSH1 0x0 DUP1 REVERT JUMPDEST POP PUSH1 0x4 CALLDATASIZE LT PUSH2 0x62 JUMPI PUSH1 0x0 CALLDATALOAD PUSH1 0xE0 SHR DUP1 PUSH4 0x8DA5CB5B EQ PUSH2 0x67 JUMPI DUP1 PUSH4 0xA34E5649 EQ PUSH2 0x85 JUMPI DUP1 PUSH4 0xA69F9D1B EQ PUSH2 0xA3 JUMPI DUP1 PUSH4 0xB15247D9 EQ PUSH2 0xD3 JUMPI DUP1 PUSH4 0xCA47B8C2 EQ PUSH2 0xEF JUMPI DUP1 PUSH4 0xD6FEBDE8 EQ PUSH2 0x10B JUMPI JUMPDEST PUSH1 0x0 DUP1 REVERT JUMPDEST PUSH2 0x6F PUSH2 0x127 JUMP JUMPDEST PUSH1 0x40 MLOAD PUSH2 0x7C SWAP2 SWAP1 PUSH2 0xE9C JUMP JUMPDEST PUSH1 0x40 MLOAD DUP1 SWAP2 SUB SWAP1 RETURN JUMPDEST PUSH2 0x8D PUSH2 0x14B JUMP JUMPDEST PUSH1 0x40 MLOAD PUSH2 0x9A SWAP2 SWAP1 PUSH2 0x1012 JUMP JUMPDEST PUSH1 0x40 MLOAD DUP1 SWAP2 SUB SWAP1 RETURN JUMPDEST PUSH2 0xBD PUSH1 0x4 DUP1 CALLDATASIZE SUB DUP2 ADD SWAP1 PUSH2 0xB8 SWAP2 SWAP1 PUSH2 0x1074 JUMP JUMPDEST PUSH2 0x2A6 JUMP JUMPDEST PUSH1 0x40 MLOAD PUSH2 0xCA SWAP2 SWAP1 PUSH2 0x115F JUMP JUMPDEST PUSH1 0x40 MLOAD DUP1 SWAP2 SUB SWAP1 RETURN JUMPDEST PUSH2 0xED PUSH1 0x4 DUP1 CALLDATASIZE SUB DUP2 ADD SWAP1 PUSH2 0xE8 SWAP2 SWAP1 PUSH2 0x11E6 JUMP JUMPDEST PUSH2 0x347 JUMP JUMPDEST STOP JUMPDEST PUSH2 0x109 PUSH1 0x4 DUP1 CALLDATASIZE SUB DUP2 ADD SWAP1 PUSH2 0x104 SWAP2 SWAP1 PUSH2 0x1246 JUMP JUMPDEST PUSH2 0x516 JUMP JUMPDEST STOP JUMPDEST PUSH2 0x125 PUSH1 0x4 DUP1 CALLDATASIZE SUB DUP2 ADD SWAP1 PUSH2 0x120 SWAP2 SWAP1 PUSH2 0x1246 JUMP JUMPDEST PUSH2 0x735 JUMP JUMPDEST STOP JUMPDEST PUSH1 0x0 DUP1 SLOAD SWAP1 PUSH2 0x100 EXP SWAP1 DIV PUSH20 0xFFFFFFFFFFFFFFFFFFFFFFFFFFFFFFFFFFFFFFFF AND DUP2 JUMP JUMPDEST PUSH1 0x60 PUSH1 0x0 PUSH1 0x1 SLOAD PUSH8 0xFFFFFFFFFFFFFFFF DUP2 GT ISZERO PUSH2 0x16B JUMPI PUSH2 0x16A PUSH2 0x1286 JUMP JUMPDEST JUMPDEST PUSH1 0x40 MLOAD SWAP1 DUP1 DUP3 MSTORE DUP1 PUSH1 0x20 MUL PUSH1 0x20 ADD DUP3 ADD PUSH1 0x40 MSTORE DUP1 ISZERO PUSH2 0x19E JUMPI DUP2 PUSH1 0x20 ADD JUMPDEST PUSH1 0x60 DUP2 MSTORE PUSH1 0x20 ADD SWAP1 PUSH1 0x1 SWAP1 SUB SWAP1 DUP2 PUSH2 0x189 JUMPI SWAP1 POP JUMPDEST POP SWAP1 POP PUSH1 0x0 DUP1 JUMPDEST PUSH1 0x1 SLOAD DUP2 LT ISZERO PUSH2 0x29D JUMPI PUSH1 0x0 PUSH1 0x3 PUSH1 0x0 PUSH1 0x1 DUP5 PUSH2 0x1C2 SWAP2 SWAP1 PUSH2 0x12E4 JUMP JUMPDEST DUP2 MSTORE PUSH1 0x20 ADD SWAP1 DUP2 MSTORE PUSH1 0x20 ADD PUSH1 0x0 KECCAK256 PUSH1 0x1 ADD SLOAD GT ISZERO PUSH2 0x28A JUMPI PUSH2 0x1EF PUSH1 0x1 DUP3 PUSH2 0x1EA SWAP2 SWAP1 PUSH2 0x12E4 JUMP JUMPDEST PUSH2 0xB12 JUMP JUMPDEST PUSH1 0x3 PUSH1 0x0 PUSH1 0x1 DUP5 PUSH2 0x200 SWAP2 SWAP1 PUSH2 0x12E4 JUMP JUMPDEST DUP2 MSTORE PUSH1 0x20 ADD SWAP1 DUP2 MSTORE PUSH1 0x20 ADD PUSH1 0x0 KECCAK256 PUSH1 0x0 ADD PUSH2 0x23C PUSH1 0x3 PUSH1 0x0 PUSH1 0x1 DUP7 PUSH2 0x225 SWAP2 SWAP1 PUSH2 0x12E4 JUMP JUMPDEST DUP2 MSTORE PUSH1 0x20 ADD SWAP1 DUP2 MSTORE PUSH1 0x20 ADD PUSH1 0x0 KECCAK256 PUSH1 0x1 ADD SLOAD PUSH2 0xB12 JUMP JUMPDEST PUSH1 0x40 MLOAD PUSH1 0x20 ADD PUSH2 0x24E SWAP4 SWAP3 SWAP2 SWAP1 PUSH2 0x1503 JUMP JUMPDEST PUSH1 0x40 MLOAD PUSH1 0x20 DUP2 DUP4 SUB SUB DUP2 MSTORE SWAP1 PUSH1 0x40 MSTORE DUP4 DUP4 DUP2 MLOAD DUP2 LT PUSH2 0x270 JUMPI PUSH2 0x26F PUSH2 0x154A JUMP JUMPDEST JUMPDEST PUSH1 0x20 MUL PUSH1 0x20 ADD ADD DUP2 SWAP1 MSTORE POP DUP2 DUP1 PUSH2 0x286 SWAP1 PUSH2 0x1579 JUMP JUMPDEST SWAP3 POP POP JUMPDEST DUP1 DUP1 PUSH2 0x295 SWAP1 PUSH2 0x1579 JUMP JUMPDEST SWAP2 POP POP PUSH2 0x1A5 JUMP JUMPDEST POP DUP2 SWAP3 POP POP POP SWAP1 JUMP JUMPDEST PUSH1 0x60 PUSH1 0x5 PUSH1 0x0 DUP4 DUP2 MSTORE PUSH1 0x20 ADD SWAP1 DUP2 MSTORE PUSH1 0x20 ADD PUSH1 0x0 KECCAK256 DUP1 SLOAD DUP1 PUSH1 0x20 MUL PUSH1 0x20 ADD PUSH1 0x40 MLOAD SWAP1 DUP2 ADD PUSH1 0x40 MSTORE DUP1 SWAP3 SWAP2 SWAP1 DUP2 DUP2 MSTORE PUSH1 0x20 ADD DUP3 DUP1 SLOAD DUP1 ISZERO PUSH2 0x33B JUMPI PUSH1 0x20 MUL DUP3 ADD SWAP2 SWAP1 PUSH1 0x0 MSTORE PUSH1 0x20 PUSH1 0x0 KECCAK256 SWAP1 JUMPDEST DUP2 PUSH1 0x0 SWAP1 SLOAD SWAP1 PUSH2 0x100 EXP SWAP1 DIV PUSH20 0xFFFFFFFFFFFFFFFFFFFFFFFFFFFFFFFFFFFFFFFF AND PUSH20 0xFFFFFFFFFFFFFFFFFFFFFFFFFFFFFFFFFFFFFFFF AND DUP2 MSTORE PUSH1 0x20 ADD SWAP1 PUSH1 0x1 ADD SWAP1 DUP1 DUP4 GT PUSH2 0x2F1 JUMPI JUMPDEST POP POP POP POP POP SWAP1 POP SWAP2 SWAP1 POP JUMP JUMPDEST CALLER PUSH20 0xFFFFFFFFFFFFFFFFFFFFFFFFFFFFFFFFFFFFFFFF AND PUSH1 0x0 DUP1 SLOAD SWAP1 PUSH2 0x100 EXP SWAP1 DIV PUSH20 0xFFFFFFFFFFFFFFFFFFFFFFFFFFFFFFFFFFFFFFFF AND PUSH20 0xFFFFFFFFFFFFFFFFFFFFFFFFFFFFFFFFFFFFFFFF AND EQ PUSH2 0x3D5 JUMPI PUSH1 0x40 MLOAD PUSH32 0x8C379A000000000000000000000000000000000000000000000000000000000 DUP2 MSTORE PUSH1 0x4 ADD PUSH2 0x3CC SWAP1 PUSH2 0x161F JUMP JUMPDEST PUSH1 0x40 MLOAD DUP1 SWAP2 SUB SWAP1 REVERT JUMPDEST PUSH1 0x0 PUSH1 0x2 DUP5 DUP5 PUSH1 0x40 MLOAD PUSH2 0x3E9 SWAP3 SWAP2 SWAP1 PUSH2 0x1673 JUMP JUMPDEST SWAP1 DUP2 MSTORE PUSH1 0x20 ADD PUSH1 0x40 MLOAD DUP1 SWAP2 SUB SWAP1 KECCAK256 SLOAD EQ ISZERO PUSH2 0x4C3 JUMPI PUSH1 0x1 PUSH1 0x0 DUP2 SLOAD DUP1 SWAP3 SWAP2 SWAP1 PUSH2 0x411 SWAP1 PUSH2 0x1579 JUMP JUMPDEST SWAP2 SWAP1 POP SSTORE POP PUSH1 0x1 SLOAD PUSH1 0x2 DUP5 DUP5 PUSH1 0x40 MLOAD PUSH2 0x42B SWAP3 SWAP2 SWAP1 PUSH2 0x1673 JUMP JUMPDEST SWAP1 DUP2 MSTORE PUSH1 0x20 ADD PUSH1 0x40 MLOAD DUP1 SWAP2 SUB SWAP1 KECCAK256 DUP2 SWAP1 SSTORE POP DUP3 DUP3 PUSH1 0x3 PUSH1 0x0 PUSH1 0x2 DUP8 DUP8 PUSH1 0x40 MLOAD PUSH2 0x455 SWAP3 SWAP2 SWAP1 PUSH2 0x1673 JUMP JUMPDEST SWAP1 DUP2 MSTORE PUSH1 0x20 ADD PUSH1 0x40 MLOAD DUP1 SWAP2 SUB SWAP1 KECCAK256 SLOAD DUP2 MSTORE PUSH1 0x20 ADD SWAP1 DUP2 MSTORE PUSH1 0x20 ADD PUSH1 0x0 KECCAK256 PUSH1 0x0 ADD SWAP2 SWAP1 PUSH2 0x482 SWAP3 SWAP2 SWAP1 PUSH2 0xDB8 JUMP JUMPDEST POP DUP1 PUSH1 0x3 PUSH1 0x0 PUSH1 0x2 DUP7 DUP7 PUSH1 0x40 MLOAD PUSH2 0x49A SWAP3 SWAP2 SWAP1 PUSH2 0x1673 JUMP JUMPDEST SWAP1 DUP2 MSTORE PUSH1 0x20 ADD PUSH1 0x40 MLOAD DUP1 SWAP2 SUB SWAP1 KECCAK256 SLOAD DUP2 MSTORE PUSH1 0x20 ADD SWAP1 DUP2 MSTORE PUSH1 0x20 ADD PUSH1 0x0 KECCAK256 PUSH1 0x1 ADD DUP2 SWAP1 SSTORE POP PUSH2 0x511 JUMP JUMPDEST DUP1 PUSH1 0x3 PUSH1 0x0 PUSH1 0x2 DUP7 DUP7 PUSH1 0x40 MLOAD PUSH2 0x4DA SWAP3 SWAP2 SWAP1 PUSH2 0x1673 JUMP JUMPDEST SWAP1 DUP2 MSTORE PUSH1 0x20 ADD PUSH1 0x40 MLOAD DUP1 SWAP2 SUB SWAP1 KECCAK256 SLOAD DUP2 MSTORE PUSH1 0x20 ADD SWAP1 DUP2 MSTORE PUSH1 0x20 ADD PUSH1 0x0 KECCAK256 PUSH1 0x1 ADD PUSH1 0x0 DUP3 DUP3 SLOAD PUSH2 0x509 SWAP2 SWAP1 PUSH2 0x12E4 JUMP JUMPDEST SWAP3 POP POP DUP2 SWAP1 SSTORE POP JUMPDEST POP POP POP JUMP JUMPDEST PUSH1 0x0 DUP2 GT PUSH2 0x559 JUMPI PUSH1 0x40 MLOAD PUSH32 0x8C379A000000000000000000000000000000000000000000000000000000000 DUP2 MSTORE PUSH1 0x4 ADD PUSH2 0x550 SWAP1 PUSH2 0x16D8 JUMP JUMPDEST PUSH1 0x40 MLOAD DUP1 SWAP2 SUB SWAP1 REVERT JUMPDEST DUP1 PUSH1 0x4 PUSH1 0x0 CALLER PUSH20 0xFFFFFFFFFFFFFFFFFFFFFFFFFFFFFFFFFFFFFFFF AND PUSH20 0xFFFFFFFFFFFFFFFFFFFFFFFFFFFFFFFFFFFFFFFF AND DUP2 MSTORE PUSH1 0x20 ADD SWAP1 DUP2 MSTORE PUSH1 0x20 ADD PUSH1 0x0 KECCAK256 PUSH1 0x1 ADD PUSH1 0x0 DUP5 DUP2 MSTORE PUSH1 0x20 ADD SWAP1 DUP2 MSTORE PUSH1 0x20 ADD PUSH1 0x0 KECCAK256 PUSH1 0x2 ADD SLOAD LT ISZERO PUSH2 0x5F2 JUMPI PUSH1 0x40 MLOAD PUSH32 0x8C379A000000000000000000000000000000000000000000000000000000000 DUP2 MSTORE PUSH1 0x4 ADD PUSH2 0x5E9 SWAP1 PUSH2 0x176A JUMP JUMPDEST PUSH1 0x40 MLOAD DUP1 SWAP2 SUB SWAP1 REVERT JUMPDEST PUSH1 0x64 PUSH1 0x4 PUSH1 0x0 CALLER PUSH20 0xFFFFFFFFFFFFFFFFFFFFFFFFFFFFFFFFFFFFFFFF AND PUSH20 0xFFFFFFFFFFFFFFFFFFFFFFFFFFFFFFFFFFFFFFFF AND DUP2 MSTORE PUSH1 0x20 ADD SWAP1 DUP2 MSTORE PUSH1 0x20 ADD PUSH1 0x0 KECCAK256 PUSH1 0x1 ADD PUSH1 0x0 DUP5 DUP2 MSTORE PUSH1 0x20 ADD SWAP1 DUP2 MSTORE PUSH1 0x20 ADD PUSH1 0x0 KECCAK256 PUSH1 0x1 ADD SLOAD NUMBER PUSH2 0x656 SWAP2 SWAP1 PUSH2 0x178A JUMP JUMPDEST GT ISZERO PUSH2 0x697 JUMPI PUSH1 0x40 MLOAD PUSH32 0x8C379A000000000000000000000000000000000000000000000000000000000 DUP2 MSTORE PUSH1 0x4 ADD PUSH2 0x68E SWAP1 PUSH2 0x1830 JUMP JUMPDEST PUSH1 0x40 MLOAD DUP1 SWAP2 SUB SWAP1 REVERT JUMPDEST DUP1 PUSH1 0x4 PUSH1 0x0 CALLER PUSH20 0xFFFFFFFFFFFFFFFFFFFFFFFFFFFFFFFFFFFFFFFF AND PUSH20 0xFFFFFFFFFFFFFFFFFFFFFFFFFFFFFFFFFFFFFFFF AND DUP2 MSTORE PUSH1 0x20 ADD SWAP1 DUP2 MSTORE PUSH1 0x20 ADD PUSH1 0x0 KECCAK256 PUSH1 0x1 ADD PUSH1 0x0 DUP5 DUP2 MSTORE PUSH1 0x20 ADD SWAP1 DUP2 MSTORE PUSH1 0x20 ADD PUSH1 0x0 KECCAK256 PUSH1 0x2 ADD PUSH1 0x0 DUP3 DUP3 SLOAD PUSH2 0x6FD SWAP2 SWAP1 PUSH2 0x178A JUMP JUMPDEST SWAP3 POP POP DUP2 SWAP1 SSTORE POP DUP1 PUSH1 0x3 PUSH1 0x0 DUP5 DUP2 MSTORE PUSH1 0x20 ADD SWAP1 DUP2 MSTORE PUSH1 0x20 ADD PUSH1 0x0 KECCAK256 PUSH1 0x1 ADD PUSH1 0x0 DUP3 DUP3 SLOAD PUSH2 0x72A SWAP2 SWAP1 PUSH2 0x12E4 JUMP JUMPDEST SWAP3 POP POP DUP2 SWAP1 SSTORE POP POP POP JUMP JUMPDEST PUSH1 0x0 DUP2 GT PUSH2 0x778 JUMPI PUSH1 0x40 MLOAD PUSH32 0x8C379A000000000000000000000000000000000000000000000000000000000 DUP2 MSTORE PUSH1 0x4 ADD PUSH2 0x76F SWAP1 PUSH2 0x189C JUMP JUMPDEST PUSH1 0x40 MLOAD DUP1 SWAP2 SUB SWAP1 REVERT JUMPDEST PUSH1 0x1 SLOAD DUP3 GT ISZERO PUSH2 0x7BD JUMPI PUSH1 0x40 MLOAD PUSH32 0x8C379A000000000000000000000000000000000000000000000000000000000 DUP2 MSTORE PUSH1 0x4 ADD PUSH2 0x7B4 SWAP1 PUSH2 0x1908 JUMP JUMPDEST PUSH1 0x40 MLOAD DUP1 SWAP2 SUB SWAP1 REVERT JUMPDEST PUSH1 0x0 PUSH1 0x4 PUSH1 0x0 CALLER PUSH20 0xFFFFFFFFFFFFFFFFFFFFFFFFFFFFFFFFFFFFFFFF AND PUSH20 0xFFFFFFFFFFFFFFFFFFFFFFFFFFFFFFFFFFFFFFFF AND DUP2 MSTORE PUSH1 0x20 ADD SWAP1 DUP2 MSTORE PUSH1 0x20 ADD PUSH1 0x0 KECCAK256 PUSH1 0x1 ADD PUSH1 0x0 DUP5 DUP2 MSTORE PUSH1 0x20 ADD SWAP1 DUP2 MSTORE PUSH1 0x20 ADD PUSH1 0x0 KECCAK256 PUSH1 0x2 ADD SLOAD EQ PUSH2 0x856 JUMPI PUSH1 0x40 MLOAD PUSH32 0x8C379A000000000000000000000000000000000000000000000000000000000 DUP2 MSTORE PUSH1 0x4 ADD PUSH2 0x84D SWAP1 PUSH2 0x1974 JUMP JUMPDEST PUSH1 0x40 MLOAD DUP1 SWAP2 SUB SWAP1 REVERT JUMPDEST DUP1 PUSH1 0x3 PUSH1 0x0 DUP5 DUP2 MSTORE PUSH1 0x20 ADD SWAP1 DUP2 MSTORE PUSH1 0x20 ADD PUSH1 0x0 KECCAK256 PUSH1 0x1 ADD SLOAD LT ISZERO PUSH2 0x8AF JUMPI PUSH1 0x40 MLOAD PUSH32 0x8C379A000000000000000000000000000000000000000000000000000000000 DUP2 MSTORE PUSH1 0x4 ADD PUSH2 0x8A6 SWAP1 PUSH2 0x1A06 JUMP JUMPDEST PUSH1 0x40 MLOAD DUP1 SWAP2 SUB SWAP1 REVERT JUMPDEST DUP1 PUSH1 0x3 PUSH1 0x0 DUP5 DUP2 MSTORE PUSH1 0x20 ADD SWAP1 DUP2 MSTORE PUSH1 0x20 ADD PUSH1 0x0 KECCAK256 PUSH1 0x1 ADD PUSH1 0x0 DUP3 DUP3 SLOAD PUSH2 0x8D5 SWAP2 SWAP1 PUSH2 0x178A JUMP JUMPDEST SWAP3 POP POP DUP2 SWAP1 SSTORE POP CALLER PUSH20 0xFFFFFFFFFFFFFFFFFFFFFFFFFFFFFFFFFFFFFFFF AND PUSH1 0x4 PUSH1 0x0 CALLER PUSH20 0xFFFFFFFFFFFFFFFFFFFFFFFFFFFFFFFFFFFFFFFF AND PUSH20 0xFFFFFFFFFFFFFFFFFFFFFFFFFFFFFFFFFFFFFFFF AND DUP2 MSTORE PUSH1 0x20 ADD SWAP1 DUP2 MSTORE PUSH1 0x20 ADD PUSH1 0x0 KECCAK256 PUSH1 0x0 ADD PUSH1 0x0 SWAP1 SLOAD SWAP1 PUSH2 0x100 EXP SWAP1 DIV PUSH20 0xFFFFFFFFFFFFFFFFFFFFFFFFFFFFFFFFFFFFFFFF AND PUSH20 0xFFFFFFFFFFFFFFFFFFFFFFFFFFFFFFFFFFFFFFFF AND EQ PUSH2 0x9F3 JUMPI CALLER PUSH1 0x4 PUSH1 0x0 CALLER PUSH20 0xFFFFFFFFFFFFFFFFFFFFFFFFFFFFFFFFFFFFFFFF AND PUSH20 0xFFFFFFFFFFFFFFFFFFFFFFFFFFFFFFFFFFFFFFFF AND DUP2 MSTORE PUSH1 0x20 ADD SWAP1 DUP2 MSTORE PUSH1 0x20 ADD PUSH1 0x0 KECCAK256 PUSH1 0x0 ADD PUSH1 0x0 PUSH2 0x100 EXP DUP2 SLOAD DUP2 PUSH20 0xFFFFFFFFFFFFFFFFFFFFFFFFFFFFFFFFFFFFFFFF MUL NOT AND SWAP1 DUP4 PUSH20 0xFFFFFFFFFFFFFFFFFFFFFFFFFFFFFFFFFFFFFFFF AND MUL OR SWAP1 SSTORE POP JUMPDEST DUP2 PUSH1 0x4 PUSH1 0x0 CALLER PUSH20 0xFFFFFFFFFFFFFFFFFFFFFFFFFFFFFFFFFFFFFFFF AND PUSH20 0xFFFFFFFFFFFFFFFFFFFFFFFFFFFFFFFFFFFFFFFF AND DUP2 MSTORE PUSH1 0x20 ADD SWAP1 DUP2 MSTORE PUSH1 0x20 ADD PUSH1 0x0 KECCAK256 PUSH1 0x1 ADD PUSH1 0x0 DUP5 DUP2 MSTORE PUSH1 0x20 ADD SWAP1 DUP2 MSTORE PUSH1 0x20 ADD PUSH1 0x0 KECCAK256 PUSH1 0x0 ADD DUP2 SWAP1 SSTORE POP DUP1 PUSH1 0x4 PUSH1 0x0 CALLER PUSH20 0xFFFFFFFFFFFFFFFFFFFFFFFFFFFFFFFFFFFFFFFF AND PUSH20 0xFFFFFFFFFFFFFFFFFFFFFFFFFFFFFFFFFFFFFFFF AND DUP2 MSTORE PUSH1 0x20 ADD SWAP1 DUP2 MSTORE PUSH1 0x20 ADD PUSH1 0x0 KECCAK256 PUSH1 0x1 ADD PUSH1 0x0 DUP5 DUP2 MSTORE PUSH1 0x20 ADD SWAP1 DUP2 MSTORE PUSH1 0x20 ADD PUSH1 0x0 KECCAK256 PUSH1 0x2 ADD DUP2 SWAP1 SSTORE POP NUMBER PUSH1 0x4 PUSH1 0x0 CALLER PUSH20 0xFFFFFFFFFFFFFFFFFFFFFFFFFFFFFFFFFFFFFFFF AND PUSH20 0xFFFFFFFFFFFFFFFFFFFFFFFFFFFFFFFFFFFFFFFF AND DUP2 MSTORE PUSH1 0x20 ADD SWAP1 DUP2 MSTORE PUSH1 0x20 ADD PUSH1 0x0 KECCAK256 PUSH1 0x1 ADD PUSH1 0x0 DUP5 DUP2 MSTORE PUSH1 0x20 ADD SWAP1 DUP2 MSTORE PUSH1 0x20 ADD PUSH1 0x0 KECCAK256 PUSH1 0x1 ADD DUP2 SWAP1 SSTORE POP PUSH2 0xB0E CALLER DUP4 PUSH2 0xC73 JUMP JUMPDEST POP POP JUMP JUMPDEST PUSH1 0x60 PUSH1 0x0 DUP3 EQ ISZERO PUSH2 0xB5A JUMPI PUSH1 0x40 MLOAD DUP1 PUSH1 0x40 ADD PUSH1 0x40 MSTORE DUP1 PUSH1 0x1 DUP2 MSTORE PUSH1 0x20 ADD PUSH32 0x3000000000000000000000000000000000000000000000000000000000000000 DUP2 MSTORE POP SWAP1 POP PUSH2 0xC6E JUMP JUMPDEST PUSH1 0x0 DUP3 SWAP1 POP PUSH1 0x0 JUMPDEST PUSH1 0x0 DUP3 EQ PUSH2 0xB8C JUMPI DUP1 DUP1 PUSH2 0xB75 SWAP1 PUSH2 0x1579 JUMP JUMPDEST SWAP2 POP POP PUSH1 0xA DUP3 PUSH2 0xB85 SWAP2 SWAP1 PUSH2 0x1A55 JUMP JUMPDEST SWAP2 POP PUSH2 0xB62 JUMP JUMPDEST PUSH1 0x0 DUP2 PUSH8 0xFFFFFFFFFFFFFFFF DUP2 GT ISZERO PUSH2 0xBA8 JUMPI PUSH2 0xBA7 PUSH2 0x1286 JUMP JUMPDEST JUMPDEST PUSH1 0x40 MLOAD SWAP1 DUP1 DUP3 MSTORE DUP1 PUSH1 0x1F ADD PUSH1 0x1F NOT AND PUSH1 0x20 ADD DUP3 ADD PUSH1 0x40 MSTORE DUP1 ISZERO PUSH2 0xBDA JUMPI DUP2 PUSH1 0x20 ADD PUSH1 0x1 DUP3 MUL DUP1 CALLDATASIZE DUP4 CALLDATACOPY DUP1 DUP3 ADD SWAP2 POP POP SWAP1 POP JUMPDEST POP SWAP1 POP JUMPDEST PUSH1 0x0 DUP6 EQ PUSH2 0xC67 JUMPI PUSH1 0x1 DUP3 PUSH2 0xBF3 SWAP2 SWAP1 PUSH2 0x178A JUMP JUMPDEST SWAP2 POP PUSH1 0xA DUP6 PUSH2 0xC02 SWAP2 SWAP1 PUSH2 0x1A86 JUMP JUMPDEST PUSH1 0x30 PUSH2 0xC0E SWAP2 SWAP1 PUSH2 0x12E4 JUMP JUMPDEST PUSH1 0xF8 SHL DUP2 DUP4 DUP2 MLOAD DUP2 LT PUSH2 0xC24 JUMPI PUSH2 0xC23 PUSH2 0x154A JUMP JUMPDEST JUMPDEST PUSH1 0x20 ADD ADD SWAP1 PUSH31 0xFFFFFFFFFFFFFFFFFFFFFFFFFFFFFFFFFFFFFFFFFFFFFFFFFFFFFFFFFFFFFF NOT AND SWAP1 DUP2 PUSH1 0x0 BYTE SWAP1 MSTORE8 POP PUSH1 0xA DUP6 PUSH2 0xC60 SWAP2 SWAP1 PUSH2 0x1A55 JUMP JUMPDEST SWAP5 POP PUSH2 0xBDE JUMP JUMPDEST DUP1 SWAP4 POP POP POP POP JUMPDEST SWAP2 SWAP1 POP JUMP JUMPDEST PUSH1 0x0 DUP1 PUSH1 0x0 SWAP1 POP JUMPDEST PUSH1 0x5 PUSH1 0x0 DUP5 DUP2 MSTORE PUSH1 0x20 ADD SWAP1 DUP2 MSTORE PUSH1 0x20 ADD PUSH1 0x0 KECCAK256 DUP1 SLOAD SWAP1 POP DUP2 LT ISZERO PUSH2 0xD38 JUMPI DUP4 PUSH20 0xFFFFFFFFFFFFFFFFFFFFFFFFFFFFFFFFFFFFFFFF AND PUSH1 0x5 PUSH1 0x0 DUP6 DUP2 MSTORE PUSH1 0x20 ADD SWAP1 DUP2 MSTORE PUSH1 0x20 ADD PUSH1 0x0 KECCAK256 DUP3 DUP2 SLOAD DUP2 LT PUSH2 0xCD5 JUMPI PUSH2 0xCD4 PUSH2 0x154A JUMP JUMPDEST JUMPDEST SWAP1 PUSH1 0x0 MSTORE PUSH1 0x20 PUSH1 0x0 KECCAK256 ADD PUSH1 0x0 SWAP1 SLOAD SWAP1 PUSH2 0x100 EXP SWAP1 DIV PUSH20 0xFFFFFFFFFFFFFFFFFFFFFFFFFFFFFFFFFFFFFFFF AND PUSH20 0xFFFFFFFFFFFFFFFFFFFFFFFFFFFFFFFFFFFFFFFF AND EQ ISZERO PUSH2 0xD25 JUMPI PUSH1 0x1 SWAP2 POP PUSH2 0xD38 JUMP JUMPDEST DUP1 DUP1 PUSH2 0xD30 SWAP1 PUSH2 0x1579 JUMP JUMPDEST SWAP2 POP POP PUSH2 0xC7B JUMP JUMPDEST POP DUP1 PUSH2 0xDB3 JUMPI PUSH1 0x5 PUSH1 0x0 DUP4 DUP2 MSTORE PUSH1 0x20 ADD SWAP1 DUP2 MSTORE PUSH1 0x20 ADD PUSH1 0x0 KECCAK256 DUP4 SWAP1 DUP1 PUSH1 0x1 DUP2 SLOAD ADD DUP1 DUP3 SSTORE DUP1 SWAP2 POP POP PUSH1 0x1 SWAP1 SUB SWAP1 PUSH1 0x0 MSTORE PUSH1 0x20 PUSH1 0x0 KECCAK256 ADD PUSH1 0x0 SWAP1 SWAP2 SWAP1 SWAP2 SWAP1 SWAP2 PUSH2 0x100 EXP DUP2 SLOAD DUP2 PUSH20 0xFFFFFFFFFFFFFFFFFFFFFFFFFFFFFFFFFFFFFFFF MUL NOT AND SWAP1 DUP4 PUSH20 0xFFFFFFFFFFFFFFFFFFFFFFFFFFFFFFFFFFFFFFFF AND MUL OR SWAP1 SSTORE POP JUMPDEST POP POP POP JUMP JUMPDEST DUP3 DUP1 SLOAD PUSH2 0xDC4 SWAP1 PUSH2 0x13F1 JUMP JUMPDEST SWAP1 PUSH1 0x0 MSTORE PUSH1 0x20 PUSH1 0x0 KECCAK256 SWAP1 PUSH1 0x1F ADD PUSH1 0x20 SWAP1 DIV DUP2 ADD SWAP3 DUP3 PUSH2 0xDE6 JUMPI PUSH1 0x0 DUP6 SSTORE PUSH2 0xE2D JUMP JUMPDEST DUP3 PUSH1 0x1F LT PUSH2 0xDFF JUMPI DUP1 CALLDATALOAD PUSH1 0xFF NOT AND DUP4 DUP1 ADD OR DUP6 SSTORE PUSH2 0xE2D JUMP JUMPDEST DUP3 DUP1 ADD PUSH1 0x1 ADD DUP6 SSTORE DUP3 ISZERO PUSH2 0xE2D JUMPI SWAP2 DUP3 ADD JUMPDEST DUP3 DUP2 GT ISZERO PUSH2 0xE2C JUMPI DUP3 CALLDATALOAD DUP3 SSTORE SWAP2 PUSH1 0x20 ADD SWAP2 SWAP1 PUSH1 0x1 ADD SWAP1 PUSH2 0xE11 JUMP JUMPDEST JUMPDEST POP SWAP1 POP PUSH2 0xE3A SWAP2 SWAP1 PUSH2 0xE3E JUMP JUMPDEST POP SWAP1 JUMP JUMPDEST JUMPDEST DUP1 DUP3 GT ISZERO PUSH2 0xE57 JUMPI PUSH1 0x0 DUP2 PUSH1 0x0 SWAP1 SSTORE POP PUSH1 0x1 ADD PUSH2 0xE3F JUMP JUMPDEST POP SWAP1 JUMP JUMPDEST PUSH1 0x0 PUSH20 0xFFFFFFFFFFFFFFFFFFFFFFFFFFFFFFFFFFFFFFFF DUP3 AND SWAP1 POP SWAP2 SWAP1 POP JUMP JUMPDEST PUSH1 0x0 PUSH2 0xE86 DUP3 PUSH2 0xE5B JUMP JUMPDEST SWAP1 POP SWAP2 SWAP1 POP JUMP JUMPDEST PUSH2 0xE96 DUP2 PUSH2 0xE7B JUMP JUMPDEST DUP3 MSTORE POP POP JUMP JUMPDEST PUSH1 0x0 PUSH1 0x20 DUP3 ADD SWAP1 POP PUSH2 0xEB1 PUSH1 0x0 DUP4 ADD DUP5 PUSH2 0xE8D JUMP JUMPDEST SWAP3 SWAP2 POP POP JUMP JUMPDEST PUSH1 0x0 DUP2 MLOAD SWAP1 POP SWAP2 SWAP1 POP JUMP JUMPDEST PUSH1 0x0 DUP3 DUP3 MSTORE PUSH1 0x20 DUP3 ADD SWAP1 POP SWAP3 SWAP2 POP POP JUMP JUMPDEST PUSH1 0x0 DUP2 SWAP1 POP PUSH1 0x20 DUP3 ADD SWAP1 POP SWAP2 SWAP1 POP JUMP JUMPDEST PUSH1 0x0 DUP2 MLOAD SWAP1 POP SWAP2 SWAP1 POP JUMP JUMPDEST PUSH1 0x0 DUP3 DUP3 MSTORE PUSH1 0x20 DUP3 ADD SWAP1 POP SWAP3 SWAP2 POP POP JUMP JUMPDEST PUSH1 0x0 JUMPDEST DUP4 DUP2 LT ISZERO PUSH2 0xF1D JUMPI DUP1 DUP3 ADD MLOAD DUP2 DUP5 ADD MSTORE PUSH1 0x20 DUP2 ADD SWAP1 POP PUSH2 0xF02 JUMP JUMPDEST DUP4 DUP2 GT ISZERO PUSH2 0xF2C JUMPI PUSH1 0x0 DUP5 DUP5 ADD MSTORE JUMPDEST POP POP POP POP JUMP JUMPDEST PUSH1 0x0 PUSH1 0x1F NOT PUSH1 0x1F DUP4 ADD AND SWAP1 POP SWAP2 SWAP1 POP JUMP JUMPDEST PUSH1 0x0 PUSH2 0xF4E DUP3 PUSH2 0xEE3 JUMP JUMPDEST PUSH2 0xF58 DUP2 DUP6 PUSH2 0xEEE JUMP JUMPDEST SWAP4 POP PUSH2 0xF68 DUP2 DUP6 PUSH1 0x20 DUP7 ADD PUSH2 0xEFF JUMP JUMPDEST PUSH2 0xF71 DUP2 PUSH2 0xF32 JUMP JUMPDEST DUP5 ADD SWAP2 POP POP SWAP3 SWAP2 POP POP JUMP JUMPDEST PUSH1 0x0 PUSH2 0xF88 DUP4 DUP4 PUSH2 0xF43 JUMP JUMPDEST SWAP1 POP SWAP3 SWAP2 POP POP JUMP JUMPDEST PUSH1 0x0 PUSH1 0x20 DUP3 ADD SWAP1 POP SWAP2 SWAP1 POP JUMP JUMPDEST PUSH1 0x0 PUSH2 0xFA8 DUP3 PUSH2 0xEB7 JUMP JUMPDEST PUSH2 0xFB2 DUP2 DUP6 PUSH2 0xEC2 JUMP JUMPDEST SWAP4 POP DUP4 PUSH1 0x20 DUP3 MUL DUP6 ADD PUSH2 0xFC4 DUP6 PUSH2 0xED3 JUMP JUMPDEST DUP1 PUSH1 0x0 JUMPDEST DUP6 DUP2 LT ISZERO PUSH2 0x1000 JUMPI DUP5 DUP5 SUB DUP10 MSTORE DUP2 MLOAD PUSH2 0xFE1 DUP6 DUP3 PUSH2 0xF7C JUMP JUMPDEST SWAP5 POP PUSH2 0xFEC DUP4 PUSH2 0xF90 JUMP JUMPDEST SWAP3 POP PUSH1 0x20 DUP11 ADD SWAP10 POP POP PUSH1 0x1 DUP2 ADD SWAP1 POP PUSH2 0xFC8 JUMP JUMPDEST POP DUP3 SWAP8 POP DUP8 SWAP6 POP POP POP POP POP POP SWAP3 SWAP2 POP POP JUMP JUMPDEST PUSH1 0x0 PUSH1 0x20 DUP3 ADD SWAP1 POP DUP2 DUP2 SUB PUSH1 0x0 DUP4 ADD MSTORE PUSH2 0x102C DUP2 DUP5 PUSH2 0xF9D JUMP JUMPDEST SWAP1 POP SWAP3 SWAP2 POP POP JUMP JUMPDEST PUSH1 0x0 DUP1 REVERT JUMPDEST PUSH1 0x0 DUP1 REVERT JUMPDEST PUSH1 0x0 DUP2 SWAP1 POP SWAP2 SWAP1 POP JUMP JUMPDEST PUSH2 0x1051 DUP2 PUSH2 0x103E JUMP JUMPDEST DUP2 EQ PUSH2 0x105C JUMPI PUSH1 0x0 DUP1 REVERT JUMPDEST POP JUMP JUMPDEST PUSH1 0x0 DUP2 CALLDATALOAD SWAP1 POP PUSH2 0x106E DUP2 PUSH2 0x1048 JUMP JUMPDEST SWAP3 SWAP2 POP POP JUMP JUMPDEST PUSH1 0x0 PUSH1 0x20 DUP3 DUP5 SUB SLT ISZERO PUSH2 0x108A JUMPI PUSH2 0x1089 PUSH2 0x1034 JUMP JUMPDEST JUMPDEST PUSH1 0x0 PUSH2 0x1098 DUP5 DUP3 DUP6 ADD PUSH2 0x105F JUMP JUMPDEST SWAP2 POP POP SWAP3 SWAP2 POP POP JUMP JUMPDEST PUSH1 0x0 DUP2 MLOAD SWAP1 POP SWAP2 SWAP1 POP JUMP JUMPDEST PUSH1 0x0 DUP3 DUP3 MSTORE PUSH1 0x20 DUP3 ADD SWAP1 POP SWAP3 SWAP2 POP POP JUMP JUMPDEST PUSH1 0x0 DUP2 SWAP1 POP PUSH1 0x20 DUP3 ADD SWAP1 POP SWAP2 SWAP1 POP JUMP JUMPDEST PUSH2 0x10D6 DUP2 PUSH2 0xE7B JUMP JUMPDEST DUP3 MSTORE POP POP JUMP JUMPDEST PUSH1 0x0 PUSH2 0x10E8 DUP4 DUP4 PUSH2 0x10CD JUMP JUMPDEST PUSH1 0x20 DUP4 ADD SWAP1 POP SWAP3 SWAP2 POP POP JUMP JUMPDEST PUSH1 0x0 PUSH1 0x20 DUP3 ADD SWAP1 POP SWAP2 SWAP1 POP JUMP JUMPDEST PUSH1 0x0 PUSH2 0x110C DUP3 PUSH2 0x10A1 JUMP JUMPDEST PUSH2 0x1116 DUP2 DUP6 PUSH2 0x10AC JUMP JUMPDEST SWAP4 POP PUSH2 0x1121 DUP4 PUSH2 0x10BD JUMP JUMPDEST DUP1 PUSH1 0x0 JUMPDEST DUP4 DUP2 LT ISZERO PUSH2 0x1152 JUMPI DUP2 MLOAD PUSH2 0x1139 DUP9 DUP3 PUSH2 0x10DC JUMP JUMPDEST SWAP8 POP PUSH2 0x1144 DUP4 PUSH2 0x10F4 JUMP JUMPDEST SWAP3 POP POP PUSH1 0x1 DUP2 ADD SWAP1 POP PUSH2 0x1125 JUMP JUMPDEST POP DUP6 SWAP4 POP POP POP POP SWAP3 SWAP2 POP POP JUMP JUMPDEST PUSH1 0x0 PUSH1 0x20 DUP3 ADD SWAP1 POP DUP2 DUP2 SUB PUSH1 0x0 DUP4 ADD MSTORE PUSH2 0x1179 DUP2 DUP5 PUSH2 0x1101 JUMP JUMPDEST SWAP1 POP SWAP3 SWAP2 POP POP JUMP JUMPDEST PUSH1 0x0 DUP1 REVERT JUMPDEST PUSH1 0x0 DUP1 REVERT JUMPDEST PUSH1 0x0 DUP1 REVERT JUMPDEST PUSH1 0x0 DUP1 DUP4 PUSH1 0x1F DUP5 ADD SLT PUSH2 0x11A6 JUMPI PUSH2 0x11A5 PUSH2 0x1181 JUMP JUMPDEST JUMPDEST DUP3 CALLDATALOAD SWAP1 POP PUSH8 0xFFFFFFFFFFFFFFFF DUP2 GT ISZERO PUSH2 0x11C3 JUMPI PUSH2 0x11C2 PUSH2 0x1186 JUMP JUMPDEST JUMPDEST PUSH1 0x20 DUP4 ADD SWAP2 POP DUP4 PUSH1 0x1 DUP3 MUL DUP4 ADD GT ISZERO PUSH2 0x11DF JUMPI PUSH2 0x11DE PUSH2 0x118B JUMP JUMPDEST JUMPDEST SWAP3 POP SWAP3 SWAP1 POP JUMP JUMPDEST PUSH1 0x0 DUP1 PUSH1 0x0 PUSH1 0x40 DUP5 DUP7 SUB SLT ISZERO PUSH2 0x11FF JUMPI PUSH2 0x11FE PUSH2 0x1034 JUMP JUMPDEST JUMPDEST PUSH1 0x0 DUP5 ADD CALLDATALOAD PUSH8 0xFFFFFFFFFFFFFFFF DUP2 GT ISZERO PUSH2 0x121D JUMPI PUSH2 0x121C PUSH2 0x1039 JUMP JUMPDEST JUMPDEST PUSH2 0x1229 DUP7 DUP3 DUP8 ADD PUSH2 0x1190 JUMP JUMPDEST SWAP4 POP SWAP4 POP POP PUSH1 0x20 PUSH2 0x123C DUP7 DUP3 DUP8 ADD PUSH2 0x105F JUMP JUMPDEST SWAP2 POP POP SWAP3 POP SWAP3 POP SWAP3 JUMP JUMPDEST PUSH1 0x0 DUP1 PUSH1 0x40 DUP4 DUP6 SUB SLT ISZERO PUSH2 0x125D JUMPI PUSH2 0x125C PUSH2 0x1034 JUMP JUMPDEST JUMPDEST PUSH1 0x0 PUSH2 0x126B DUP6 DUP3 DUP7 ADD PUSH2 0x105F JUMP JUMPDEST SWAP3 POP POP PUSH1 0x20 PUSH2 0x127C DUP6 DUP3 DUP7 ADD PUSH2 0x105F JUMP JUMPDEST SWAP2 POP POP SWAP3 POP SWAP3 SWAP1 POP JUMP JUMPDEST PUSH32 0x4E487B7100000000000000000000000000000000000000000000000000000000 PUSH1 0x0 MSTORE PUSH1 0x41 PUSH1 0x4 MSTORE PUSH1 0x24 PUSH1 0x0 REVERT JUMPDEST PUSH32 0x4E487B7100000000000000000000000000000000000000000000000000000000 PUSH1 0x0 MSTORE PUSH1 0x11 PUSH1 0x4 MSTORE PUSH1 0x24 PUSH1 0x0 REVERT JUMPDEST PUSH1 0x0 PUSH2 0x12EF DUP3 PUSH2 0x103E JUMP JUMPDEST SWAP2 POP PUSH2 0x12FA DUP4 PUSH2 0x103E JUMP JUMPDEST SWAP3 POP DUP3 PUSH32 0xFFFFFFFFFFFFFFFFFFFFFFFFFFFFFFFFFFFFFFFFFFFFFFFFFFFFFFFFFFFFFFFF SUB DUP3 GT ISZERO PUSH2 0x132F JUMPI PUSH2 0x132E PUSH2 0x12B5 JUMP JUMPDEST JUMPDEST DUP3 DUP3 ADD SWAP1 POP SWAP3 SWAP2 POP POP JUMP JUMPDEST PUSH1 0x0 DUP2 SWAP1 POP SWAP3 SWAP2 POP POP JUMP JUMPDEST PUSH1 0x0 PUSH2 0x1350 DUP3 PUSH2 0xEE3 JUMP JUMPDEST PUSH2 0x135A DUP2 DUP6 PUSH2 0x133A JUMP JUMPDEST SWAP4 POP PUSH2 0x136A DUP2 DUP6 PUSH1 0x20 DUP7 ADD PUSH2 0xEFF JUMP JUMPDEST DUP1 DUP5 ADD SWAP2 POP POP SWAP3 SWAP2 POP POP JUMP JUMPDEST PUSH32 0x2E20000000000000000000000000000000000000000000000000000000000000 PUSH1 0x0 DUP3 ADD MSTORE POP JUMP JUMPDEST PUSH1 0x0 PUSH2 0x13AC PUSH1 0x2 DUP4 PUSH2 0x133A JUMP JUMPDEST SWAP2 POP PUSH2 0x13B7 DUP3 PUSH2 0x1376 JUMP JUMPDEST PUSH1 0x2 DUP3 ADD SWAP1 POP SWAP2 SWAP1 POP JUMP JUMPDEST PUSH32 0x4E487B7100000000000000000000000000000000000000000000000000000000 PUSH1 0x0 MSTORE PUSH1 0x22 PUSH1 0x4 MSTORE PUSH1 0x24 PUSH1 0x0 REVERT JUMPDEST PUSH1 0x0 PUSH1 0x2 DUP3 DIV SWAP1 POP PUSH1 0x1 DUP3 AND DUP1 PUSH2 0x1409 JUMPI PUSH1 0x7F DUP3 AND SWAP2 POP JUMPDEST PUSH1 0x20 DUP3 LT DUP2 EQ ISZERO PUSH2 0x141D JUMPI PUSH2 0x141C PUSH2 0x13C2 JUMP JUMPDEST JUMPDEST POP SWAP2 SWAP1 POP JUMP JUMPDEST PUSH1 0x0 DUP2 SWAP1 POP DUP2 PUSH1 0x0 MSTORE PUSH1 0x20 PUSH1 0x0 KECCAK256 SWAP1 POP SWAP2 SWAP1 POP JUMP JUMPDEST PUSH1 0x0 DUP2 SLOAD PUSH2 0x1445 DUP2 PUSH2 0x13F1 JUMP JUMPDEST PUSH2 0x144F DUP2 DUP7 PUSH2 0x133A JUMP JUMPDEST SWAP5 POP PUSH1 0x1 DUP3 AND PUSH1 0x0 DUP2 EQ PUSH2 0x146A JUMPI PUSH1 0x1 DUP2 EQ PUSH2 0x147B JUMPI PUSH2 0x14AE JUMP JUMPDEST PUSH1 0xFF NOT DUP4 AND DUP7 MSTORE DUP2 DUP7 ADD SWAP4 POP PUSH2 0x14AE JUMP JUMPDEST PUSH2 0x1484 DUP6 PUSH2 0x1423 JUMP JUMPDEST PUSH1 0x0 JUMPDEST DUP4 DUP2 LT ISZERO PUSH2 0x14A6 JUMPI DUP2 SLOAD DUP2 DUP10 ADD MSTORE PUSH1 0x1 DUP3 ADD SWAP2 POP PUSH1 0x20 DUP2 ADD SWAP1 POP PUSH2 0x1487 JUMP JUMPDEST DUP4 DUP9 ADD SWAP6 POP POP POP JUMPDEST POP POP POP SWAP3 SWAP2 POP POP JUMP JUMPDEST PUSH32 0x3A20000000000000000000000000000000000000000000000000000000000000 PUSH1 0x0 DUP3 ADD MSTORE POP JUMP JUMPDEST PUSH1 0x0 PUSH2 0x14ED PUSH1 0x2 DUP4 PUSH2 0x133A JUMP JUMPDEST SWAP2 POP PUSH2 0x14F8 DUP3 PUSH2 0x14B7 JUMP JUMPDEST PUSH1 0x2 DUP3 ADD SWAP1 POP SWAP2 SWAP1 POP JUMP JUMPDEST PUSH1 0x0 PUSH2 0x150F DUP3 DUP7 PUSH2 0x1345 JUMP JUMPDEST SWAP2 POP PUSH2 0x151A DUP3 PUSH2 0x139F JUMP JUMPDEST SWAP2 POP PUSH2 0x1526 DUP3 DUP6 PUSH2 0x1438 JUMP JUMPDEST SWAP2 POP PUSH2 0x1531 DUP3 PUSH2 0x14E0 JUMP JUMPDEST SWAP2 POP PUSH2 0x153D DUP3 DUP5 PUSH2 0x1345 JUMP JUMPDEST SWAP2 POP DUP2 SWAP1 POP SWAP5 SWAP4 POP POP POP POP JUMP JUMPDEST PUSH32 0x4E487B7100000000000000000000000000000000000000000000000000000000 PUSH1 0x0 MSTORE PUSH1 0x32 PUSH1 0x4 MSTORE PUSH1 0x24 PUSH1 0x0 REVERT JUMPDEST PUSH1 0x0 PUSH2 0x1584 DUP3 PUSH2 0x103E JUMP JUMPDEST SWAP2 POP PUSH32 0xFFFFFFFFFFFFFFFFFFFFFFFFFFFFFFFFFFFFFFFFFFFFFFFFFFFFFFFFFFFFFFFF DUP3 EQ ISZERO PUSH2 0x15B7 JUMPI PUSH2 0x15B6 PUSH2 0x12B5 JUMP JUMPDEST JUMPDEST PUSH1 0x1 DUP3 ADD SWAP1 POP SWAP2 SWAP1 POP JUMP JUMPDEST PUSH1 0x0 DUP3 DUP3 MSTORE PUSH1 0x20 DUP3 ADD SWAP1 POP SWAP3 SWAP2 POP POP JUMP JUMPDEST PUSH32 0x4E6F7420696E766F6B656420627920746865206F776E65720000000000000000 PUSH1 0x0 DUP3 ADD MSTORE POP JUMP JUMPDEST PUSH1 0x0 PUSH2 0x1609 PUSH1 0x18 DUP4 PUSH2 0x15C2 JUMP JUMPDEST SWAP2 POP PUSH2 0x1614 DUP3 PUSH2 0x15D3 JUMP JUMPDEST PUSH1 0x20 DUP3 ADD SWAP1 POP SWAP2 SWAP1 POP JUMP JUMPDEST PUSH1 0x0 PUSH1 0x20 DUP3 ADD SWAP1 POP DUP2 DUP2 SUB PUSH1 0x0 DUP4 ADD MSTORE PUSH2 0x1638 DUP2 PUSH2 0x15FC JUMP JUMPDEST SWAP1 POP SWAP2 SWAP1 POP JUMP JUMPDEST DUP3 DUP2 DUP4 CALLDATACOPY PUSH1 0x0 DUP4 DUP4 ADD MSTORE POP POP POP JUMP JUMPDEST PUSH1 0x0 PUSH2 0x165A DUP4 DUP6 PUSH2 0x133A JUMP JUMPDEST SWAP4 POP PUSH2 0x1667 DUP4 DUP6 DUP5 PUSH2 0x163F JUMP JUMPDEST DUP3 DUP5 ADD SWAP1 POP SWAP4 SWAP3 POP POP POP JUMP JUMPDEST PUSH1 0x0 PUSH2 0x1680 DUP3 DUP5 DUP7 PUSH2 0x164E JUMP JUMPDEST SWAP2 POP DUP2 SWAP1 POP SWAP4 SWAP3 POP POP POP JUMP JUMPDEST PUSH32 0x43616E6E6F742072657475726E20302070726F64756374732100000000000000 PUSH1 0x0 DUP3 ADD MSTORE POP JUMP JUMPDEST PUSH1 0x0 PUSH2 0x16C2 PUSH1 0x19 DUP4 PUSH2 0x15C2 JUMP JUMPDEST SWAP2 POP PUSH2 0x16CD DUP3 PUSH2 0x168C JUMP JUMPDEST PUSH1 0x20 DUP3 ADD SWAP1 POP SWAP2 SWAP1 POP JUMP JUMPDEST PUSH1 0x0 PUSH1 0x20 DUP3 ADD SWAP1 POP DUP2 DUP2 SUB PUSH1 0x0 DUP4 ADD MSTORE PUSH2 0x16F1 DUP2 PUSH2 0x16B5 JUMP JUMPDEST SWAP1 POP SWAP2 SWAP1 POP JUMP JUMPDEST PUSH32 0x43616E6E6F742072657475726E206D6F7265207468616E20796F752068617665 PUSH1 0x0 DUP3 ADD MSTORE PUSH32 0x20626F7567687421000000000000000000000000000000000000000000000000 PUSH1 0x20 DUP3 ADD MSTORE POP JUMP JUMPDEST PUSH1 0x0 PUSH2 0x1754 PUSH1 0x28 DUP4 PUSH2 0x15C2 JUMP JUMPDEST SWAP2 POP PUSH2 0x175F DUP3 PUSH2 0x16F8 JUMP JUMPDEST PUSH1 0x40 DUP3 ADD SWAP1 POP SWAP2 SWAP1 POP JUMP JUMPDEST PUSH1 0x0 PUSH1 0x20 DUP3 ADD SWAP1 POP DUP2 DUP2 SUB PUSH1 0x0 DUP4 ADD MSTORE PUSH2 0x1783 DUP2 PUSH2 0x1747 JUMP JUMPDEST SWAP1 POP SWAP2 SWAP1 POP JUMP JUMPDEST PUSH1 0x0 PUSH2 0x1795 DUP3 PUSH2 0x103E JUMP JUMPDEST SWAP2 POP PUSH2 0x17A0 DUP4 PUSH2 0x103E JUMP JUMPDEST SWAP3 POP DUP3 DUP3 LT ISZERO PUSH2 0x17B3 JUMPI PUSH2 0x17B2 PUSH2 0x12B5 JUMP JUMPDEST JUMPDEST DUP3 DUP3 SUB SWAP1 POP SWAP3 SWAP2 POP POP JUMP JUMPDEST PUSH32 0x5472616E73616374696F6E206973206F6C646572207468616E2031303020626C PUSH1 0x0 DUP3 ADD MSTORE PUSH32 0x6F636B7321000000000000000000000000000000000000000000000000000000 PUSH1 0x20 DUP3 ADD MSTORE POP JUMP JUMPDEST PUSH1 0x0 PUSH2 0x181A PUSH1 0x25 DUP4 PUSH2 0x15C2 JUMP JUMPDEST SWAP2 POP PUSH2 0x1825 DUP3 PUSH2 0x17BE JUMP JUMPDEST PUSH1 0x40 DUP3 ADD SWAP1 POP SWAP2 SWAP1 POP JUMP JUMPDEST PUSH1 0x0 PUSH1 0x20 DUP3 ADD SWAP1 POP DUP2 DUP2 SUB PUSH1 0x0 DUP4 ADD MSTORE PUSH2 0x1849 DUP2 PUSH2 0x180D JUMP JUMPDEST SWAP1 POP SWAP2 SWAP1 POP JUMP JUMPDEST PUSH32 0x43616E6E6F742062757920302070726F64756374734C65646765722100000000 PUSH1 0x0 DUP3 ADD MSTORE POP JUMP JUMPDEST PUSH1 0x0 PUSH2 0x1886 PUSH1 0x1C DUP4 PUSH2 0x15C2 JUMP JUMPDEST SWAP2 POP PUSH2 0x1891 DUP3 PUSH2 0x1850 JUMP JUMPDEST PUSH1 0x20 DUP3 ADD SWAP1 POP SWAP2 SWAP1 POP JUMP JUMPDEST PUSH1 0x0 PUSH1 0x20 DUP3 ADD SWAP1 POP DUP2 DUP2 SUB PUSH1 0x0 DUP4 ADD MSTORE PUSH2 0x18B5 DUP2 PUSH2 0x1879 JUMP JUMPDEST SWAP1 POP SWAP2 SWAP1 POP JUMP JUMPDEST PUSH32 0x4E6F20737563682070726F647563742100000000000000000000000000000000 PUSH1 0x0 DUP3 ADD MSTORE POP JUMP JUMPDEST PUSH1 0x0 PUSH2 0x18F2 PUSH1 0x10 DUP4 PUSH2 0x15C2 JUMP JUMPDEST SWAP2 POP PUSH2 0x18FD DUP3 PUSH2 0x18BC JUMP JUMPDEST PUSH1 0x20 DUP3 ADD SWAP1 POP SWAP2 SWAP1 POP JUMP JUMPDEST PUSH1 0x0 PUSH1 0x20 DUP3 ADD SWAP1 POP DUP2 DUP2 SUB PUSH1 0x0 DUP4 ADD MSTORE PUSH2 0x1921 DUP2 PUSH2 0x18E5 JUMP JUMPDEST SWAP1 POP SWAP2 SWAP1 POP JUMP JUMPDEST PUSH32 0x416C726561647920626F75676874210000000000000000000000000000000000 PUSH1 0x0 DUP3 ADD MSTORE POP JUMP JUMPDEST PUSH1 0x0 PUSH2 0x195E PUSH1 0xF DUP4 PUSH2 0x15C2 JUMP JUMPDEST SWAP2 POP PUSH2 0x1969 DUP3 PUSH2 0x1928 JUMP JUMPDEST PUSH1 0x20 DUP3 ADD SWAP1 POP SWAP2 SWAP1 POP JUMP JUMPDEST PUSH1 0x0 PUSH1 0x20 DUP3 ADD SWAP1 POP DUP2 DUP2 SUB PUSH1 0x0 DUP4 ADD MSTORE PUSH2 0x198D DUP2 PUSH2 0x1951 JUMP JUMPDEST SWAP1 POP SWAP2 SWAP1 POP JUMP JUMPDEST PUSH32 0x5468657265206973206E6F7420656E6F756768207175616E7469747920696E20 PUSH1 0x0 DUP3 ADD MSTORE PUSH32 0x7468652073746F72652100000000000000000000000000000000000000000000 PUSH1 0x20 DUP3 ADD MSTORE POP JUMP JUMPDEST PUSH1 0x0 PUSH2 0x19F0 PUSH1 0x2A DUP4 PUSH2 0x15C2 JUMP JUMPDEST SWAP2 POP PUSH2 0x19FB DUP3 PUSH2 0x1994 JUMP JUMPDEST PUSH1 0x40 DUP3 ADD SWAP1 POP SWAP2 SWAP1 POP JUMP JUMPDEST PUSH1 0x0 PUSH1 0x20 DUP3 ADD SWAP1 POP DUP2 DUP2 SUB PUSH1 0x0 DUP4 ADD MSTORE PUSH2 0x1A1F DUP2 PUSH2 0x19E3 JUMP JUMPDEST SWAP1 POP SWAP2 SWAP1 POP JUMP JUMPDEST PUSH32 0x4E487B7100000000000000000000000000000000000000000000000000000000 PUSH1 0x0 MSTORE PUSH1 0x12 PUSH1 0x4 MSTORE PUSH1 0x24 PUSH1 0x0 REVERT JUMPDEST PUSH1 0x0 PUSH2 0x1A60 DUP3 PUSH2 0x103E JUMP JUMPDEST SWAP2 POP PUSH2 0x1A6B DUP4 PUSH2 0x103E JUMP JUMPDEST SWAP3 POP DUP3 PUSH2 0x1A7B JUMPI PUSH2 0x1A7A PUSH2 0x1A26 JUMP JUMPDEST JUMPDEST DUP3 DUP3 DIV SWAP1 POP SWAP3 SWAP2 POP POP JUMP JUMPDEST PUSH1 0x0 PUSH2 0x1A91 DUP3 PUSH2 0x103E JUMP JUMPDEST SWAP2 POP PUSH2 0x1A9C DUP4 PUSH2 0x103E JUMP JUMPDEST SWAP3 POP DUP3 PUSH2 0x1AAC JUMPI PUSH2 0x1AAB PUSH2 0x1A26 JUMP JUMPDEST JUMPDEST DUP3 DUP3 MOD SWAP1 POP SWAP3 SWAP2 POP POP JUMP INVALID LOG2 PUSH5 0x6970667358 0x22 SLT KECCAK256 PUSH32 0x55CDED67441C026CF6B483EFFC999C49BE29958AB92DF118159E9DA46B515964 PUSH20 0x6F6C634300080800330000000000000000000000 "
				},
				"gasEstimates": {
					"creation": {
						"codeDepositCost": "1378600",
						"executionCost": "30710",
						"totalCost": "1409310"
					},
					"external": {
						"addProduct(string,uint256)": "infinite",
						"buy(uint256,uint256)": "infinite",
						"owner()": "2489",
						"returnProduct(uint256,uint256)": "infinite",
						"showClientsHistory(uint256)": "infinite",
						"showProducts()": "infinite"
					},
					"internal": {
						"addClientToHistory(address,uint256)": "infinite"
					}
				},
				"methodIdentifiers": {
					"addProduct(string,uint256)": "b15247d9",
					"buy(uint256,uint256)": "d6febde8",
					"owner()": "8da5cb5b",
					"returnProduct(uint256,uint256)": "ca47b8c2",
					"showClientsHistory(uint256)": "a69f9d1b",
					"showProducts()": "a34e5649"
				}
			},
			"storageLayout": {
				"storage": [
					{
						"astId": 659,
						"contract": "contracts/MyStore.sol:MyStore",
						"label": "owner",
						"offset": 0,
						"slot": "0",
						"type": "t_address"
					},
					{
						"astId": 258,
						"contract": "contracts/MyStore.sol:MyStore",
						"label": "productCount",
						"offset": 0,
						"slot": "1",
						"type": "t_uint256"
					},
					{
						"astId": 262,
						"contract": "contracts/MyStore.sol:MyStore",
						"label": "productIds",
						"offset": 0,
						"slot": "2",
						"type": "t_mapping(t_string_memory_ptr,t_uint256)"
					},
					{
						"astId": 267,
						"contract": "contracts/MyStore.sol:MyStore",
						"label": "productsLedger",
						"offset": 0,
						"slot": "3",
						"type": "t_mapping(t_uint256,t_struct(Product)240_storage)"
					},
					{
						"astId": 272,
						"contract": "contracts/MyStore.sol:MyStore",
						"label": "clients",
						"offset": 0,
						"slot": "4",
						"type": "t_mapping(t_address,t_struct(Client)248_storage)"
					},
					{
						"astId": 277,
						"contract": "contracts/MyStore.sol:MyStore",
						"label": "clientsHistory",
						"offset": 0,
						"slot": "5",
						"type": "t_mapping(t_uint256,t_array(t_address)dyn_storage)"
					}
				],
				"types": {
					"t_address": {
						"encoding": "inplace",
						"label": "address",
						"numberOfBytes": "20"
					},
					"t_array(t_address)dyn_storage": {
						"base": "t_address",
						"encoding": "dynamic_array",
						"label": "address[]",
						"numberOfBytes": "32"
					},
					"t_mapping(t_address,t_struct(Client)248_storage)": {
						"encoding": "mapping",
						"key": "t_address",
						"label": "mapping(address => struct MyStore.Client)",
						"numberOfBytes": "32",
						"value": "t_struct(Client)248_storage"
					},
					"t_mapping(t_string_memory_ptr,t_uint256)": {
						"encoding": "mapping",
						"key": "t_string_memory_ptr",
						"label": "mapping(string => uint256)",
						"numberOfBytes": "32",
						"value": "t_uint256"
					},
					"t_mapping(t_uint256,t_array(t_address)dyn_storage)": {
						"encoding": "mapping",
						"key": "t_uint256",
						"label": "mapping(uint256 => address[])",
						"numberOfBytes": "32",
						"value": "t_array(t_address)dyn_storage"
					},
					"t_mapping(t_uint256,t_struct(Product)240_storage)": {
						"encoding": "mapping",
						"key": "t_uint256",
						"label": "mapping(uint256 => struct MyStore.Product)",
						"numberOfBytes": "32",
						"value": "t_struct(Product)240_storage"
					},
					"t_mapping(t_uint256,t_struct(Transaction)255_storage)": {
						"encoding": "mapping",
						"key": "t_uint256",
						"label": "mapping(uint256 => struct MyStore.Transaction)",
						"numberOfBytes": "32",
						"value": "t_struct(Transaction)255_storage"
					},
					"t_string_memory_ptr": {
						"encoding": "bytes",
						"label": "string",
						"numberOfBytes": "32"
					},
					"t_string_storage": {
						"encoding": "bytes",
						"label": "string",
						"numberOfBytes": "32"
					},
					"t_struct(Client)248_storage": {
						"encoding": "inplace",
						"label": "struct MyStore.Client",
						"members": [
							{
								"astId": 242,
								"contract": "contracts/MyStore.sol:MyStore",
								"label": "clientAddress",
								"offset": 0,
								"slot": "0",
								"type": "t_address"
							},
							{
								"astId": 247,
								"contract": "contracts/MyStore.sol:MyStore",
								"label": "productsBought",
								"offset": 0,
								"slot": "1",
								"type": "t_mapping(t_uint256,t_struct(Transaction)255_storage)"
							}
						],
						"numberOfBytes": "64"
					},
					"t_struct(Product)240_storage": {
						"encoding": "inplace",
						"label": "struct MyStore.Product",
						"members": [
							{
								"astId": 237,
								"contract": "contracts/MyStore.sol:MyStore",
								"label": "name",
								"offset": 0,
								"slot": "0",
								"type": "t_string_storage"
							},
							{
								"astId": 239,
								"contract": "contracts/MyStore.sol:MyStore",
								"label": "quantity",
								"offset": 0,
								"slot": "1",
								"type": "t_uint256"
							}
						],
						"numberOfBytes": "64"
					},
					"t_struct(Transaction)255_storage": {
						"encoding": "inplace",
						"label": "struct MyStore.Transaction",
						"members": [
							{
								"astId": 250,
								"contract": "contracts/MyStore.sol:MyStore",
								"label": "productId",
								"offset": 0,
								"slot": "0",
								"type": "t_uint256"
							},
							{
								"astId": 252,
								"contract": "contracts/MyStore.sol:MyStore",
								"label": "blockNumber",
								"offset": 0,
								"slot": "1",
								"type": "t_uint256"
							},
							{
								"astId": 254,
								"contract": "contracts/MyStore.sol:MyStore",
								"label": "quantity",
								"offset": 0,
								"slot": "2",
								"type": "t_uint256"
							}
						],
						"numberOfBytes": "96"
					},
					"t_uint256": {
						"encoding": "inplace",
						"label": "uint256",
						"numberOfBytes": "32"
					}
				}
			},
			"userdoc": {
				"kind": "user",
				"methods": {},
				"version": 1
			}
		}
	}
}